:020000040801F1
:10000000C0D70220C1010108A1C5010851B30108F0
:1000100061C501084508010841F001080000000021
:10002000000000000000000000000000D3010108F3
:10003000B950010800000000D701010855EB010884
:10004000DB010108DB010108DB010108DB0101081C
:10005000DB010108DB010108015A0108DB0101088D
:10006000DB010108DB010108DB010108DB010108FC
:10007000DB010108DB010108DB010108DB010108EC
:10008000DB010108DB010108DB010108DB010108DC
:1000900049080108DB010108DB010108DB01010857
:1000A000DB010108DB010108DB010108DB010108BC
:1000B000DB010108DB010108DB010108DB010108AC
:1000C000DB010108DB010108DB010108DB0101089C
:1000D000DB010108DB01010899ED0108D5ED0108FC
:1000E000195A0108C5C90108DB010108DB01010833
:1000F000DB010108DB010108DB010108DB0101086C
:10010000DB010108D5D20108DB010108DB01010890
:10011000DB010108DB010108DB010108DB0101084B
:10012000DB010108994C0108DB010108FD1F0108F2
:10013000C54C0108DB010108DB010108DB010108F6
:100140004D080108DB010108DB010108DB010108A2
:10015000DB010108DB010108DB010108DB0101080B
:10016000DB010108DB010108DB010108DB010108FB
:10017000DB010108DB0101087D0D0108DB0101083D
:10018000DB010108DB010108DB010108DB010108DB
:10019000DB010108DB010108DB010108DB010108CB
:1001A000E5C10108DB010108E91F0108DFF80CD0F7
:1001B00000F06EFA0048004771310208C0D70220F3
:1001C0000648804706480047FEE7FEE7FEE7FEE7F1
:1001D000FEE7FEE7FEE7FEE7FEE7FEE799EB010834
:1001E000AD01010810B5431A934209D2831888184B
:1001F00003E010F8011D03F8011D521EF9D210BDD5
:1002000040EA01039B0703D009E008C9121F08C098
:10021000042AFAD203E011F8013B00F8013B521E18
:10022000F9D210BDD2B201E000F8012B491EFBD279
:1002300070470022F6E710B513460A4604461946F1
:10024000FFF7F0FF204610BD30B505462A460B46A5
:1002500012F8010B13F8014B08B1A042F8D01CB101
:10026000002802D06D1CF1E7284630BD10B50446C9
:1002700004E00B7800F8013B03B1491C521EF8D290
:10028000204610BDCAB2401E10F8011F8A4202D09B
:100290000029F9D100207047421C10F8011B0029E9
:1002A000FBD1801A704710B5002200E0521C835C1D
:1002B0008C5CA34201D1002BF8D1D8B2E1B2401A34
:1002C00010BD30B504460020034600E05B1C93429D
:1002D00003D2E05CCD5C401BF8D030BD034611F882
:1002E000012B00F8012B002AF9D11846704730B5D0
:1002F00005460020034600E05B1C934205D2EC5CFF
:10030000C85C201A01D1002CF6D130BD70B506466C
:100310002EF040F9046805460A220021304600F01C
:1003200022F92C6070BD2DE9FE4F804681EA030062
:10033000C00F0C46009021F0004123F00045B8EBBF
:100340000200A94105D24046214690461C460B4674
:10035000024623F00040104347D0270DC7F30A00A0
:10036000C3F30A510290401A019040286BDAC3F39C
:10037000130040F4801B0098924620B10023D2EB7A
:10038000030A63EB0B0B01985946C0F1400250463B
:1003900000F0B8F806460D4650465946019A00F05E
:1003A000D0F810EB08006141002487EA115284EA7A
:1003B000E7731A4340D0009A62B3019A012A4FEAC8
:1003C000075215DC001B61EB02014FF0004202EA0C
:1003D0000752CDE90042001C41F5801132462B4600
:1003E00000F008F903B0BDE8F08F40462146F9E778
:1003F000001B61EB0201001C41F5801300185B41FA
:100400002018A2F5001747EB030140EAD570B61992
:100410006D4111E06D084FEA360645EAC0754FEAB6
:100420000752001B61EB0201001C41F580114908D5
:100430004FEA30000019514132462B4603B0BDE867
:10044000F04F00F0C8B80098012240000023D0EB24
:10045000020263EBE073009821464FEAE074B8EBC8
:10046000000061EB0401E9E783F000435BE781F002
:10047000004158E770B5C1F30A5201F0004500246D
:10048000C1F3130140F2FF3341F480119A4201DAC3
:10049000002070BD40F233439A42A2F2334203DCA3
:1004A000524200F03EF800E090402C43F1D0404230
:1004B00070BD00F0004230F000400AD0C10D01F5DF
:1004C0006071C0F3160042EA0151C20840071143AF
:1004D000704700200146704730B50B4601460020AA
:1004E0002022012409E021FA02F59D4205D303FAF6
:1004F00002F5491B04FA02F52844151EA2F1010277
:10050000F1DC30BD202A04DB203A00FA02F10020A1
:1005100070479140C2F1200320FA03F31943904041
:100520007047202A04DB203A21FA02F000217047AC
:1005300021FA02F3D040C2F120029140084319464B
:100540007047202A06DBCB17203A41FA02F043EA33
:10055000E07306E041FA02F3D040C2F1200291407C
:100560000843194670472DE9F04791460F468046EB
:100570000446002614F8015B2DB100F09BF80068DA
:10058000405DC007F6D12B2D02D02D2D18D0641E52
:100590004A463946204600F091F827B13968A14211
:1005A00001D1C7F8008071054FF002040BD540421D
:1005B000002803DD2DF0EEFF0460A007BDE8F08702
:1005C00046F48066E4E70028F8DA2DF0E3FF0460E3
:1005D0006FF00040F2E710B5141E73F1000408DA62
:1005E000401C41F1000192185B411A4301D120F0F7
:1005F000010010BD2DE9F04D92469B4611B1B1FAB4
:1006000081F202E0B0FA80F220329046FFF77AFFE2
:1006100004460F4640EA0A0041EA0B0153465A4697
:10062000084313D0114653EA010019D0C8F1400223
:100630005046FFF776FF05460E465046594642465D
:10064000FFF760FF084305D0012004E0204639464B
:10065000BDE8F08D0020054346EAE0762C433743A1
:100660000A986305E40AA0EB08000022FD0A44EAA8
:1006700047540A3002D500200146E9E70105101968
:100680006941DDE9084500196941BDE8F04DA2E77F
:10069000064C074D06E0E06840F0010394E80700CF
:1006A00098471034AC42F6D3FFF784FDE47A05088E
:1006B000147B05080048704750D804082DE9F05F06
:1006C00082460078002715468B460AF10104B94698
:1006D000302801D09DB113E014F8010B01277828D0
:1006E00003D0582801D045B10AE00DB1102D07D133
:1006F0000027102514F8010B02E0082500E00A2568
:100700000026B0460EE005FB080005FB06F10127B8
:1007100001EB10461FFA80F8B6F5803F00D3B946CA
:1007200014F8010B294600F018F80028EBDABBF1A9
:10073000000F05D00FB1641E00E05446CBF8004016
:10074000B9F1000F06D02DF025FF02210160C81E6F
:10075000BDE8F09F48EA0640FAE73A2800D2303870
:1007600020F02002412A01D3A2F13700884201D3B0
:100770004FF0FF30704770B58C1810F8015B15F022
:10078000070301D110F8013B2A1106D110F8012B03
:1007900003E010F8016B01F8016B5B1EF9D12B0728
:1007A00005D40023521E0DD401F8013BFAE710F8DE
:1007B000013BCB1A921C03E013F8015B01F8015BCB
:1007C000521EF9D5A142D8D3002070BDF0B581B03A
:1007D0000D4619461446064610F08EF840F6E027FE
:1007E000C2F200076B4630463946224610F070FBD5
:1007F00000982F6001B0F0BD10B582B00820012133
:1008000008240BF079FF40F20120C0F20010CDE97E
:10081000004040F60044C4F202046946204605F058
:10082000FBFC2046082105F04FFD02B010BD000082
:10083000010901EB810100F00F0000EB4100C0B2A3
:1008400070470000FEE7000070470000704700009E
:1008500043F20002C4F2020229B1013810F8013F4C
:1008600001391360FAD110687047000043F20800A4
:10087000C4F2020001210160704700002DE9F04F31
:100880008BB083B24FF014160696A0F1140600EB5D
:10089000D33000B28AB214274008ADF82270ADF808
:1008A0002460ADF82660ADF82870ADF82A0001EBA1
:1008B000D230A1F1140600B243F6D035ADF81C6079
:1008C000ADF81E6040080FF2C419C2F200050DF128
:1008D0000E080DF1040B70A64FF0000AADF82000D1
:1008E00018E000BF4FF4FA7018F0E8FF00202872FB
:1008F000D5E9000128F81A002BF81A1018F0B2FEFA
:1009000030463946224619F0B3F80AF1010ABAF125
:10091000050F36D040F23060C0F604001AF062FADB
:1009200000201AF059FA18F09DFE6FF07F401AF07F
:1009300055FA0DF1220030F91A7006A830F91A4064
:10094000384621460A2219F0F1FA00201AF046FA38
:1009500038462146052219F0E9FA6FF07F401AF077
:100960003DFA07F114014846224619F081F800BF0C
:10097000287A0028B6D1642018F0A0FF1AF07CFE77
:10098000F6E718F06FFE45A018F0F2FFBDF90E80F3
:100990000421404618F0C6FF42A018F0E9FFBDF957
:1009A0000400042118F0BEFF18F0D4FF3FA018F097
:1009B000DFFFBDF910400421204618F0B3FF3DA031
:1009C00018F0D6FFBDF906600421304618F0AAFFE2
:1009D00018F0C0FF39A018F0CBFFBDF912000421B8
:1009E00018F0A0FF37A018F0C3FFBDF9087004216C
:1009F000384618F097FF18F0ADFF34A018F0B8FF94
:100A0000BDF91400042118F08DFF32A018F0B0FFDA
:100A1000BDF90A00042118F085FF18F09BFF2FA0F4
:100A200018F0A6FFBDF91600042118F07BFF2DA0D9
:100A300018F09EFFBDF90C00042118F073FF18F0A8
:100A400089FF2AA018F094FF287A38B9642018F09A
:100A500035FF1AF011FE287A0028F7D04FF4FA700B
:100A600018F02CFF002000214FF4F0724346009450
:100A70001AF06CFD012000214FF488723346009774
:100A80001AF064FD0BB0BDE8F08F00BF50726573C3
:100A900073206865726500004F4B000078303A2083
:100AA00000000000202079303A20000078313A2000
:100AB00000000000202079313A20000078323A20EE
:100AC00000000000202079323A20000078333A20DC
:100AD00000000000202079333A20000078343A20CA
:100AE00000000000202079343A200000506C65613D
:100AF000736520746F75636820646973706C6179C5
:100B000020746F20636F6E74696E75652E2E2E00D3
:100B100010B50024CFF6FF7480200CF0B1FB18B99B
:100B20000134F9D3032010BD40F2FF500CF060FBFC
:100B3000002010BD10B542F634410446C4F2010154
:100B4000086810F0450FFBD041073DD4C00741D1E4
:100B50000CF08EFBA04243D140F2FF500CF048FB5A
:100B6000002000240CF0A8FB4EF20801CFF6FF5144
:100B7000084227D0002836D4410037D4810038D429
:100B8000C10039D401013AD441013BD4C1013CD464
:100B900001023DD4410223D481023CD4C1023DD4A0
:100BA00001033ED441033FD4810340D4C10341D467
:100BB000010442D4410443D4810444D400071A21DF
:100BC00001EAE074204610BD04200CF011FB032460
:100BD000204610BD012001240CF00AFB204610BD68
:100BE0001024204610BD1C24204610BD0924204698
:100BF00010BD0A24204610BD0B24204610BD0C2435
:100C0000204610BD0D24204610BD0E24204610BDE8
:100C10000F24204610BD1124204610BD122420466A
:100C200010BD1324204610BD1424204610BD1524E9
:100C3000204610BD1624204610BD1724204610BDA6
:100C40001824204610BD1924204610BD10B542F6C8
:100C50003441C4F2010100BF086810F0450FFBD019
:100C6000410707D410F001044FF0010008BF40F223
:100C7000FF5001E0032404200CF0BAFA204610BD16
:100C800010B542F63440C4F2010000BF016811F013
:100C9000450FFBD004204C0758BF40F2FF500CF02A
:100CA000A7FA032000EAE47010BD000010B542F678
:100CB00034410446C4F20101086810F0450FFBD02E
:100CC000410719D4C0071DD10CF0D2FA03281FD157
:100CD00040F2FF500CF08CFA00200CF0EDFA10F40A
:100CE000604F18D081041BD4410411D400040F219B
:100CF00001EAE074204610BD04200CF079FA0324C8
:100D0000204610BD012001240CF072FA204610BDCF
:100D10001024204610BD000C20800024204610BD69
:100D20001324204610BD000010B5002342F63442C3
:100D3000CFF6FF73C4F201021168184623B111F017
:100D4000450300F10103F7D0032400284FF004000D
:100D500007D011F0040204D148064FF0000402D578
:100D600040200CF045FA204610BD00001021C5F2CD
:100D700005010968084018BF012070470120FFF7EE
:100D8000F5BF0000B0B582B04FF07F401AF024F8F4
:100D900018F068FC4FF2A050C0F603001AF022F8D9
:100DA0004FF0C4401AF01AF87820412140F2DB12CB
:100DB000692319F0D3F8052041217322E12319F0AA
:100DC000CDF80520E62140F2DB124FF4877319F0CD
:100DD000C5F845F231304CF26C41C2F20100C2F26A
:100DE000000100780A684BF2887442F00103C028C1
:100DF00008BF22F001030B60C2F200042068C0F3B8
:100E0000001003F0F3FE40F60100022500900A20D6
:100E1000F02150221E23019516F0BAFD4CF2C811A4
:100E2000C2F20001086026A116F041FF40F6020060
:100E300000908720F02150221E23019516F0A8FD76
:100E40004CF20021C2F20001086020A116F02FFF31
:100E500040F6030000904FF48270F02150221E23D0
:100E6000019516F095FD4CF28C11C2F2000108605C
:100E700018A116F01CFF40F6040000904FF4C37058
:100E8000F02150221E23019516F082FD4CF2042120
:100E90002268C2F200010860110612A10FA258BF19
:100EA000114616F004FF2068002140F48070206095
:100EB00041F6E420C2F20000017002B0B0BD00BFF4
:100EC00053657474696E677300000000546F6F6C33
:100ED00073000000436F6E74726F6C00556E6C6F20
:100EE000636B00004C6F636B0000000010B582B0B4
:100EF000002019F071FF002019F070FF82200021FE
:100F00004FF4C372F02319F029F840F619000224B7
:100F100000908C2032213C223C23019416F038FDB5
:100F20004CF29811C2F2000108606EA116F0BFFEEB
:100F300040F61A000090C82032213C223C23019444
:100F400016F026FD4CF29C11C2F20001086066A169
:100F500016F0ADFE40F61B0000904FF48270322177
:100F60003C223C23019416F013FD4CF2A011C2F276
:100F7000000108605DA116F09AFE40F61C0000908A
:100F80004FF4A07032213C223C23019416F000FD66
:100F90004CF2A411C2F20001086055A116F087FEC0
:100FA00040F61D0000908C206E213C223C230194D1
:100FB00016F0EEFC4CF2A811C2F2000108604DA13F
:100FC00016F075FE40F61E000090C8206E213C22EF
:100FD0003C23019416F0DCFC4CF2AC11C2F200018F
:100FE000086045A116F063FE40F61F0000904FF424
:100FF00082706E213C223C23019416F0C9FC4CF215
:10100000B011C2F2000108603CA116F050FE4FF48E
:10101000026000904FF4A0706E213C223C230194AA
:1010200016F0B6FC4CF2B411C2F20001086034A113
:1010300016F03DFE40F6210000908C20AA213C22B3
:101040003C23019416F0A4FC4CF2B811C2F200014A
:1010500008602CA116F02BFE40F618000090C82066
:10106000AA213C223C23019416F092FC4CF29411EC
:10107000C2F20001086024A116F019FE40F6220019
:1010800000904FF48270AA213C223C23019416F078
:101090007FFC4CF2C011C2F20001086047F264719B
:1010A000C0F6050116F003FE40F6230000904FF451
:1010B000A070AA213C223C23019416F069FC4CF25A
:1010C000BC11C2F20001086010A116F0F0FD4BF255
:1010D0008870C2F20000016841F02001016002B096
:1010E00010BD00BF310000003200000033000000DE
:1010F000340000003500000036000000370000001A
:101100003800000039000000300000003C42434B32
:10111000000000002DE9F04387B000204FF00008E8
:1011200019F05AFE18F09EFA4FF425600225CDE919
:1011300000800A200A214FF4E6729123CDE902587B
:101140004FF00A091DF03CFA4CF24024C2F20004B0
:1011500097A232210E2320601DF063F8206896A22A
:10116000CD210E231DF05DF8206898A2CD210E231D
:101170001DF057F8206801211DF0ADFB206801210A
:101180001DF0A6FB4FF420604FF6DC77CDE900851B
:10119000CDE902090A20B92150221E2304971EF02E
:1011A0001FFD4CF26424C2F20004642120601EF092
:1011B0008FFE2068FA2101221EF028FE20680221FD
:1011C0001EF05CFE40F60120CDE90085CDE9020964
:1011D0008720B92150221E2304971EF001FD4CF2F6
:1011E0005426C2F20006FA21012230601EF00EFEE3
:1011F000306864211EF06CFE306802211EF03EFE55
:1012000040F60220CDE90085CDE902090A20F0214F
:1012100050221E2304971EF0E3FC4CF25C26C2F21F
:101220000006FA21012230601EF0F0FD30686421D2
:101230001EF04EFE306802211EF020FE40F6032014
:10124000CDF80080CDE902098720F02150221E232D
:10125000049701951EF0C4FC4CF25826C2F2000619
:10126000FA21012230601EF0D1FD206864211EF0B9
:101270002FFE306802211EF001FE0F2004214FF4E2
:101280003062CDE90085CDE9032105904FF48270ED
:10129000A5215A220023CDF808801DF0CFFF4CF283
:1012A0004C24C2F200044EA1002220601EF0C4F8BB
:1012B00020684EA101221EF0BFF820684EA1022234
:1012C0001EF0BAF8206850A103221EF0B5F820687D
:1012D00003211EF0D5F840F6050000904FF4C370CE
:1012E000B92150221E23019516F052FB4CF2C41175
:1012F000C2F20001086047A116F0D9FC40F60600D2
:1013000000904FF48270F02150221E23019516F0B8
:101310003FFB4CF28811C2F2000108603FA116F0B9
:10132000C6FC40F6070000904FF4C370F021502235
:101330001E23019516F02CFB4CF29011C2F2000115
:10134000086047F2FD71C0F6050116F0B0FC40F2EE
:101350003060C0F6040019F045FD0A20A82118F0FD
:101360001FFF31A018F004FB8720A82118F018FFF8
:1013700031A018F0FDFA0A20DF2118F011FF31A08A
:1013800018F0F6FA8720DF2118F00AFF30A018F0D5
:10139000EFFA45F23030C2F2010080F8008041F6E9
:1013A000E420C2F200000521017007B0BDE8F0831F
:1013B0004164647265737300486172647761726539
:1013C0002056657273696F6E000000004669726D89
:1013D000776172652056657273696F6E0000000058
:1013E00046696E64204649525354000046696E6453
:1013F000204E45585400000046696E6420414C4C14
:10140000204E45570000000046696E6420414C4C58
:10141000000000005343414E00000000534554209B
:101420004144445245535300535441525420414483
:101430004452455353000000454E44204144445219
:10144000455353004F4C44204144445245535300AC
:101450004E45572041444452455353002DE9F04135
:1014600084B000204FF0000819F0B6FC18F0FAF82C
:101470004FF47F4019F0B2FC40F60D0002250090B9
:101480000A20F02150221E23019516F081FA4CF219
:10149000D41447F63801C2F20004C0F605012060FA
:1014A00016F005FC20681FF005FC40F60A000090CD
:1014B0008520F02150221E23019516F069FA4CF286
:1014C000D811C2F20001086047F26471C0F605014C
:1014D00016F0EDFB40F60C0000904FF48270F02106
:1014E00050221E23019516F053FA4CF2CC11C2F291
:1014F0000001086047F63D01C0F6050116F0D7FB74
:1015000040F60B0000904FF4C370F02150221E23D0
:10151000019516F03DFA4CF2D011C2F200010860BC
:1015200047F62301C0F6050116F0C1FB4FF4056034
:10153000CDE900800A206E2150221423029516F076
:1015400033FC4CF20C24C2F200044FF47F412060C3
:1015500016F063FD20680FF2F43116F03AFD45F203
:101560006867C2F2010739682068C1F3003116F0DC
:1015700014FD40F65100CDE90080C82041216422CD
:101580001423029516F010FC4CF20824C2F2000459
:101590004FF47F41206016F040FD206847F60201BD
:1015A000C0F6050116F015FD39682068C1F3C021A9
:1015B00016F0F3FC40F65200CDE9008040F26310D3
:1015C000232160221423029516F0EEFB4CF2102624
:1015D000C2F200064FF47F41306016F01EFD47F660
:1015E0002A043068C0F60504214616F0F2FC39687A
:1015F0003068C1F3002116F0D0FC40F65300CDE96D
:10160000008040F263103C2178221423029516F0EA
:10161000CBFB4CF21826C2F200064FF47F4130603B
:1016200016F0FBFC306847F61101C0F6050116F014
:10163000D0FC39683068C1F3402116F0AEFC40F6AA
:101640005400CDE9008040F263106E216022142323
:10165000029516F0A9FB4CF21426C2F200064FF4D4
:101660007F41306016F0D9FC3068214616F0B1FC9D
:1016700039683068C1F3802116F08FFC10244FF4D4
:101680001060CDE900040A2023216422142302956E
:1016900016F02DFE4CF230264CF29C51C2F20006A0
:1016A000C2F20001306017F011F83068FA2101220F
:1016B0004FF0010816F082FE40F60110CDE900045B
:1016C0000A203C2164221423029516F010FE4CF2ED
:1016D00034274CF27011C2F20007C2F200013860E8
:1016E00016F0F4FF3868FA21012216F067FE40F682
:1016F0000210CDE900040A2055216422142302952A
:1017000016F0F5FD4CF2382445F24C41C2F20004CB
:10171000C2F20101206016F0D9FF2068FA210122EF
:1017200016F04CFE052740F60310CDE900070A200D
:10173000AA2132221423029516F0D9FD4CF2282654
:1017400045F26544C2F20006C2F201043060204650
:101750000021542211F026FE45F23C30C2F2010075
:101760000188204600220AF089F93068214616F0E7
:10177000ADFF3068FA21012216F020FE40F6041079
:10178000CDE900070A20C32132221423029516F066
:10179000AEFD4CF22426C2F2000630602046002145
:1017A000542211F0FFFD45F23830C2F201000188E9
:1017B000204600220AF062F93068214616F086FFC2
:1017C0003068FA21012216F0F9FD40F60610CDE945
:1017D0000007C820AA2132221423029516F087FDA3
:1017E0004CF2202640F27071C2F20006C2F20001F3
:1017F000306016F06BFF3068FA21012216F0DEFD32
:1018000040F60710CDE9000740F26310AA2132220A
:101810001423029516F06BFD4CF22C26C2F2000642
:10182000306020460021542211F0BCFD45F2746066
:10183000C2F201000188204600220AF01FF9306838
:10184000214616F043FF3068FA21012216F0B6FD5A
:10185000152040F60511CDE90010C820232178227B
:101860001423029516F043FD4CF21C21C2F2000134
:101870000860FA21012216F0A1FD40F23060C0F6A6
:10188000040019F0AFFA05200F2118F089FC47F287
:10189000B970C0F6050018F06BF87320252118F018
:1018A0007FFC2DA018F064F873203E2118F078FC1E
:1018B0002DA018F05DF87320572118F071FC2EA0B0
:1018C00018F056F8C3200F2118F06AFC2DA018F06C
:1018D0004FF84FF4AF700F2118F062FC2CA018F0F5
:1018E00047F84FF4AF705A2118F05AFC2BA018F0AB
:1018F0003FF80520962118F053FC2BA018F038F87B
:101900004320AD2118F04CFC2BA018F031F84320F7
:10191000C62118F045FC2DA018F02AF8C320962106
:1019200018F03EFC2EA018F023F84FF4AF7096216B
:1019300018F036FC2DA018F01BF841F6E420C2F296
:10194000000080F8008004B0BDE8F08144484350B6
:1019500020636C69656E740049507634204164647C
:1019600072657373000000004465662E2047617441
:1019700065776179000000005375626E6574204DD3
:1019800061736B004441544520262054494D450065
:1019900048545450205345525645520054465450D2
:1019A0002053455256455200525334383520494E43
:1019B0005445524641434500496E74657266616301
:1019C00065204164647265737300000042726F6148
:1019D0006463617374204164647265737300000012
:1019E0005041535353574F524400000053595354DE
:1019F000454D20494400000070B586B00020002409
:101A000019F0EAF917F02EFE6FF07F4019F0E6F9B1
:101A1000022540F61500CDE90005BE200A213C2232
:101A20003C230A2615F0B4FF4CF2E411C2F2000187
:101A300008606FA116F03BF940F6130000904FF4D8
:101A400096700A213C223C23019515F0A1FF4CF22F
:101A5000F411C2F20001086069A116F028F940F6FD
:101A6000170000904FF4CD700A213C223C230195D1
:101A700015F08EFF4CF2EC11C2F20001086063A178
:101A800016F015F94FF401600090BE2055213C225C
:101A90003C23019515F07CFF4CF2F011C2F20001DD
:101AA00008605EA116F003F940F6110000904FF4B3
:101AB000967055213C223C23019515F069FF4CF2AC
:101AC000FC11C2F20001086057A116F0F0F840F6D0
:101AD000120000904FF4CD7055213C223C2301951B
:101AE00015F056FF4CF2F811C2F20001086052A145
:101AF00016F0DDF840F6160000904FF49670A02125
:101B00003C223C23019515F043FF4CF2E811C2F250
:101B1000000108604CA116F0CAF840F614000090CD
:101B20004FF4CD70A0213C223C23019515F030FFED
:101B30004CF2DC11C2F20001086046A116F0B7F8C1
:101B400048A0BE21A02217F093FF4FF6DC7040F6AC
:101B500004210094CDE902160490BE20B421502245
:101B6000282301951EF03CF84CF26026C2F20006D4
:101B7000642130601EF0ACF9306802211EF07EF95D
:101B800040F6180000904FF4C370F02150221E233D
:101B9000019515F0FDFE4CF2E011C2F20001086063
:101BA00047F2FD71C0F6050116F081F84FF43A6670
:101BB0000A200A21A0224FF48273CDE90045029445
:101BC00003961EF0B6FB4CF26824C2F20004012119
:101BD00020601EF05BFC206801211EF05DFC41F6D8
:101BE000E420C2F200000321017006B070BD00BF06
:101BF0007553440A46494C45204C49535400000053
:101C00005550444154450A46570000004C4F41444A
:101C10000A4354524C204C49535400004255530A35
:101C20005343414E00000000494D4147450A55507D
:101C30004C4F4144000000004649524D572E0A5572
:101C4000504C4F41440000007553440A464F524DDA
:101C500041540000444953504C41590A43414C49B6
:101C600042522E00434F4E54524F4C4C45520000AE
:101C700080B54CF2C810C2F2000000681EF0A6FF4A
:101C80004CF20020C2F2000000681EF09FFF4CF2F0
:101C90008C10C2F2000000681EF098FF4CF2042085
:101CA000C2F200000068BDE880401EF08FBF000057
:101CB00080B54CF29410C2F2000000681EF086FF5E
:101CC0004CF29810C2F2000000681EF07FFF4CF248
:101CD0009C10C2F2000000681EF078FF4CF2A010C9
:101CE000C2F2000000681EF071FF4CF2A410C2F2B4
:101CF000000000681EF06AFF4CF2A810C2F200005B
:101D000000681EF063FF4CF2AC10C2F200000068E5
:101D10001EF05CFF4CF2B010C2F2000000681EF032
:101D200055FF4CF2B410C2F2000000681EF04EFFE6
:101D30004CF2B810C2F2000000681EF047FF4CF2EF
:101D4000C010C2F2000000681EF040FF4CF2BC1050
:101D5000C2F200000068BDE880401EF037BF0000FE
:101D600080B54CF24020C2F2000000681EF02EFF49
:101D70004CF26420C2F2000000681EF027FF4CF213
:101D80005420C2F2000000681EF020FF4CF25C20DC
:101D9000C2F2000000681EF019FF4CF25820C2F297
:101DA000000000681EF012FF4CF24C20C2F200004E
:101DB00000681EF00BFF4CF2C410C2F20000006875
:101DC0001EF004FF4CF28810C2F2000000681EF002
:101DD000FDFE4CF29010C2F200000068BDE88040A9
:101DE0001EF0F4BE80B54CF2D410C2F200000068C0
:101DF0001EF0ECFE4CF2D810C2F2000000681EF09B
:101E0000E5FE4CF2D010C2F2000000681EF0DEFECB
:101E10004CF2CC10C2F2000000681EF0D7FE4CF26B
:101E20000C20C2F2000000681EF0D0FE4CF2082028
:101E3000C2F2000000681EF0C9FE4CF21020C2F28F
:101E4000000000681EF0C2FE4CF21820C2F2000032
:101E500000681EF0BBFE4CF21420C2F200000068C5
:101E60001EF0B4FE4CF23020C2F2000000681EF0FA
:101E7000ADFE4CF23420C2F2000000681EF0A6FE57
:101E80004CF23820C2F2000000681EF09FFE4CF2B7
:101E90002820C2F2000000681EF098FE4CF22420B8
:101EA000C2F2000000681EF091FE4CF21C20C2F24B
:101EB000000000681EF08AFE4CF22020C2F20000F2
:101EC00000681EF083FE4CF22C20C2F20000006875
:101ED000BDE880401EF07ABE80B54CF2F010C2F230
:101EE000000000681EF072FE4CF2DC10C2F200002E
:101EF00000681EF06BFE4CF2F410C2F200000068A5
:101F00001EF064FE4CF2FC10C2F2000000681EF0ED
:101F10005DFE4CF2F810C2F2000000681EF056FEA2
:101F20004CF2E410C2F2000000681EF04FFE4CF2CA
:101F3000E810C2F2000000681EF048FE4CF2EC10FF
:101F4000C2F2000000681EF041FE4CF2E010C2F246
:101F5000000000681EF03AFE4CF26020C2F2000061
:101F600000681EF033FE4CF26820C2F200000068E8
:101F7000BDE880401EF02ABEB0B54CF24024C2F24B
:101F800000042068002100251CF097F9206845F224
:101F90003034C2F2010422780FA301211CF0B5FCF9
:101FA0004CF26C20C2F2000000214FF4007211F0DC
:101FB000F9F945F22030C2F201002221016045F218
:101FC00024302178C2F201000560481C2070BDE871
:101FD000B04017F089BF00BF44452D323030323158
:101FE000365F303300000000AFF300804BF2080092
:101FF000C4F2020002210160704700000BF08ABFAA
:10200000000000000000000008102011000001087E
:1020100010B541F6E421C2F200010978002918BF89
:1020200010BD04467820412140F2DB12692317F0ED
:1020300027FB4FF0C44018F0D1FE7820412140F238
:10204000DB12692317F08AFF002018F01FFF02201F
:1020500018F026FF41F21010C0F6040018F0C2FE7E
:102060006FF07F4018F0BAFE7D20502118F098F8EC
:1020700047F65400C0F6050017F07AFC45F23430FC
:10208000C2F20100008817F050FC201F442800F223
:102090004C80DFE810F04500670093009300930048
:1020A0009300930093009300930093009300930098
:1020B0009300930078007D008200930093009300CA
:1020C0009300930093009300930093009300930078
:1020D0009300930093009300930093009300930068
:1020E0009300930093009300930093009300930058
:1020F0009300930093009300930093009300930048
:102100009300930093009300930093009300930037
:102110009300930093009300930093008400860043
:1021200047F26770C0F6050046E0A4F1B10120292E
:1021300044D824A0DFE801F0401137424242424235
:10214000424242424242424242424242424242426F
:1021500042424242424242423C0047F28070C0F654
:10216000050029E01FA017F003FC4CF24000C2F26A
:10217000000000884CF22001C2F20001085C17F058
:10218000D4FB1AA018E047F26B70C0F6050013E00C
:1021900047F2C970C0F605000EE017A00CE028A0B9
:1021A0000AE01EA008E047F29F70C0F6050003E0B9
:1021B00047F2E270C0F6050017F0DAFBBDE8104008
:1021C00017F092BE20555044415445204641494C99
:1021D000202D2046494C45205359532E204552521C
:1021E0004F52000020494D414745200020555044A2
:1021F0004154452052554E002046572055504441E9
:102200005445204641494C202D205452414E5346BE
:10221000455220204552524F520000002046494C62
:102220004520555044415445204641494C202D20DD
:102230005452414E5346455220204552524F52006F
:102240002046494C45205550444154452053554360
:10225000434553530000000010B582B017F0AAFFA9
:10226000002018F0A1FD17F0FDF94BF6981047F289
:102270001261C2F20000C0F6050100220EF0B2FCAD
:102280004BF28874C2F2000418B1206820F01000EC
:102290002AE04BF2287047F21061C2F20000C0F64B
:1022A00005010EF0DFFD18B1206820F010001BE0E2
:1022B0004BF6F450C2F2000051A101220EF0BEFC18
:1022C00018B1206820F010000EE040F2CD704BF6FF
:1022D000F451C0F60100C2F200010022002317F001
:1022E0004DF8206840F0100047F212612060C0F6FF
:1022F0000501002000220EF075FC012018F054FDAD
:102300004FF07F4018F068FD17F0ACF94EF6DC0096
:10231000C0F6030017F0E4F84FF23930C0F60200BF
:102320001DF076F847F62D20C0F6020015F0A8FC47
:102330004FF69950C0F602001DF092FD14201DF0DA
:1023400089FD6FF07F401DF071F8012016F07CF9D7
:102350000220022418F0A4FD6FF07F4018F03EFD2B
:1023600042F29C10C0F6040018F03CFD78206E216B
:1023700040F26312192300941CF077FC4CF24824BD
:10238000C2F200040021642220601CF042FD20689B
:10239000002100221CF0CAFD206801216FF07F425D
:1023A0001CF0C4FD20684FF68072C0F2800200214C
:1023B0001CF00CFD20684DF2D332C0F2D302012193
:1023C0001CF004FD206802211CF0A0FD20684FF6DF
:1023D0000C61C0F603011CF00DFD20680BA11CF080
:1023E00043FD20684EF64951C0F602011CF02AFD5B
:1023F00020681EF0A7FF02B0BDE81040FEF7C2BC87
:1024000042434B5F474E442E424D50003025000062
:102410002DE9F04F83B005460138072800F27D8092
:102420000C46DFE810F008000800080049007D00B5
:10243000A200DD002C01002018F0D0FC8220002139
:102440004FF4B472322317F089FD44F6CC00C0F685
:10245000040018F0C7FC6FF07F4018F0BFFC0220AA
:1024600018F01EFD4F2C00F05281422C40F071817B
:1024700041F2EE20C2F2010000780138032800F298
:10248000AE83DFE810F00400790351038C0341F2BE
:10249000E021C2F201010A7845F2BC40C2F201001B
:1024A0000023002A835400F08C83501E087045F2EC
:1024B000BC40C2F2010084E3002018F08FFC8220AF
:1024C00000214FF4B472322317F048FD44F6CC00DB
:1024D000C0F6040018F086FC6FF07F4018F07EFC18
:1024E000022018F0DDFC4F2C40F0E38041F2E820A0
:1024F000C2F20100FDF70AFF45F23C31C2F20101D0
:102500000880FFF7D5FBFEF7A9FF4BF28870C2F2F7
:102510000000016821F02001016003B0BDE8F08FE8
:10252000002018F05BFC822000214FF4B4723223AB
:1025300017F014FD44F6CC00C0F6040018F052FC6D
:102540006FF07F4018F04AFC022018F0A9FC4F2CD5
:1025500040F0AF8041F2E820C2F20100FDF7D6FE64
:1025600045F23831C2F201011DE20020002618F0C8
:1025700035FC822000214FF4B472322317F0EEFCB8
:1025800044F6CC00C0F6040018F02CFC6FF07F403D
:1025900018F024FC022018F083FC4F2C40F08980B6
:1025A00040F27074C2F2000420460021062210F0AE
:1025B000F9FE41F2E825C2F2010528466E71FDF7E9
:1025C0006BFEC2B220462946FDF70CFE2846FDF7F9
:1025D00063FE40F22871C2F20001087000F040BCB6
:1025E0004F2C02D0422C40F092810020002518F0A0
:1025F000F5FB822000214FF4B472322317F0AEFCB9
:1026000044F6CC00C0F6040018F0ECFB6FF07F40FD
:1026100018F0E4FB022018F043FC4F2C00F0648219
:10262000422C40F0D48341F2E024C2F2010420782D
:1026300041F2E828C2F20108002608F80060D0B193
:10264000013845F220372070C2F2010700063E60D3
:1026500011D00020B42500BF00EB800005EBC000C6
:1026600001B22A200F2217F055F93868217801307D
:1026700088423860F0DB207808F8006082E10020B2
:1026800018F0ACFB822000214FF4B472322317F013
:1026900065FC44F6CC00C0F6040018F0A3FB6FF014
:1026A0007F4018F09BFB022018F0FAFB4F2C00F043
:1026B0007081422C11D141F2E021C2F201010B786C
:1026C00041F2E820C2F201000022002BC2541CBFDC
:1026D000013B0B700978425460E0A4F13000C0B2B5
:1026E000092857D841F2E020C2F2010001784A1CC3
:1026F000D3B2027041F2E822C2F20102062B545416
:1027000028BF017041F2E820C2F2010046E041F228
:10271000EE20C2F2010000780138032800F26D8239
:10272000DFE810F0040074021602880245F2BC4093
:10273000C2F20100FDF7EAFD45F26061C2F201015B
:10274000012D086040F0AE824CF29051C2F20001BF
:1027500083E2A4F13000C0B209282CD841F2EE2067
:10276000C2F2010000780138032800F23882DFE865
:1027700010F00400A402B102BE0241F2E022C2F253
:1027800001021178481CC3B2107045F2BC40C2F27D
:102790000100B8E245F26540C2F20100FDF7B6FD66
:1027A00045F26064C2F20104206096200F2117F008
:1027B000F7FC20681CE245F2BC48C2F20108404622
:1027C0000021542210F0EEFD45F21059C2F2010929
:1027D00048460021542210F0E5FD45F2645AC2F249
:1027E000010A50460021542210F0DCFD45F2B85693
:1027F000C2F2010630460021542210F0D3FD45F20A
:102800006545C2F20105287841F2E027A0F13001C8
:10281000C2F20107012209293A700DD83978002245
:10282000D3B208F80300C8B2285C0132A0F130032B
:1028300001310A2BF4D339703978685C0131A0F189
:102840003002092A39700DD839780022D3B209F83C
:102850000300C8B2285C0132A0F1300301310A2B19
:10286000F4D339703978685C0131A0F13002092A5B
:1028700039700DD839780022D3B20AF80300C8B2F3
:10288000285C0132A0F1300301310A2BF4D33970F6
:102890003878295CA1F13002092A0CD8002200BF47
:1028A0000130D3B2F154C1B2695C0132A1F13003FD
:1028B0000A2BF5D3387041F2EE282978C2F20108CC
:1028C000002088F800003870A1F1300009284FF08E
:1028D00001096CD845F2BC4A45F2606B0020C2F297
:1028E000010AC2F2010B06E0701CC1B2695C3870CB
:1028F00030390A2959D20646C0B2A042F4D850460F
:1029000088F80090FDF702FDCBF80000ECE7A4F199
:102910003000C0B2092800F25A8241F2E025C2F22A
:102920000105287848B9002018F058FA82200021C3
:102930004FF4B472322317F011FB6FF07F4018F0A0
:102940004DFA022018F0ACFA44F6CC00C0F60400B0
:1029500018F048FA2878042808D800EB8000B42141
:1029600001EBC0012A200F2216F0D4FF2878411C69
:10297000CAB2297041F2E821C2F20101062A0C54C0
:1029800028BF28704BF28C70C2F2000047F2305121
:102990001CE241F2E820C2F20100FDF7B7FC45F26B
:1029A0007461C2F2010108805AE206F102095FFA7D
:1029B00089F0285C87F800903038092820D845F243
:1029C000105645F2606B4FF0020AC2F20106C2F2E5
:1029D000010B09E009F101095FFA89F0285C87F829
:1029E000009030380A280BD25FFA89F0A042F1D863
:1029F000304688F800A0FDF789FCCBF80000E9E735
:102A000009F10106F0B2285C3E70303809281DD863
:102A100045F2645945F2606B4FF0030AC2F20109B6
:102A2000C2F2010B07E000BF0136F0B2285C3E7035
:102A300030380A280AD2F0B2A042F5D8484688F8C1
:102A400000A0FDF763FCCBF80000EDE70136F0B223
:102A5000285C3E70303809281CD845F2B85945F238
:102A6000606B4FF0040AC2F20109C2F2010B06E0EA
:102A70000136F0B2285C3E7030380A280AD2F0B233
:102A8000A042F5D8484688F800A0FDF73FFCCBF8F7
:102A90000000EDE798F8000045F2BC42013845F22D
:102AA000105345F2645645F2B85500210328C2F28E
:102AB0000102C2F20103C2F20106C2F2010539703D
:102AC00000F28D80DFE810F00400250130013C01A8
:102AD0003878115C002900F0828000BF0130C1B25B
:102AE000515C0029FAD136E140F22871C2F20001AE
:102AF00041F2E8200A7840F27071C2F20100C2F29D
:102B000000014571FDF7F3FB002800F04881DCA0CF
:102B100096210F2216F0ACFF4BF28870C2F2000033
:102B2000006820F0800046E141F2E021C2F201019C
:102B30000A7845F26450C2F201000023002A83544F
:102B40003FD0501E087045F26450C2F2010038E0D8
:102B500045F26450C2F20100FDF7D8FB45F2606116
:102B6000C2F20101012D086040F090804CF29051BA
:102B7000C2F20001023170E041F2E021C2F2010133
:102B80000A7845F21050C2F2010000238354C2B10A
:102B9000501E087045F21050C2F2010011E041F2DF
:102BA000E021C2F201010A7845F2B850C2F20100F8
:102BB000002383542AB1501E087045F2B850C2F267
:102BC000010041F2E021C2F20101097800224254E1
:102BD000FDF79CFB45F26061C2F20101086096209E
:102BE0000F2117F0DDFA45F26060C2F201000068C3
:102BF00003B0BDE8F04F16F098BE012D2ED0022D87
:102C000000F01481032D00F0BC8029E145F2105042
:102C1000C2F20100FDF77AFB45F26061C2F20101E8
:102C2000012D086040F099804CF29051C2F20001F1
:102C3000013112E045F2B850C2F20100FDF766FB27
:102C400045F26061C2F20101012D086040F08F8001
:102C50004CF29051C2F20001033108704CF29C54C6
:102C6000C2F2000420460021142210F09BFB4CF21B
:102C70009050C2F20000817802784378C7780091C2
:102C800047F20461C0F605012046E6E0022D00F09F
:102C9000B680032D40F0E48045F26461C2F2010188
:102CA00002316DE0022D00F0B080032D40F0D8809D
:102CB00045F26461C2F2010162E041F2E022C2F237
:102CC00001021178481CC3B2107045F21050C2F2D4
:102CD000010018E041F2E022C2F201021178481C22
:102CE000C3B2107045F26450C2F201000BE041F231
:102CF000E022C2F201021178481CC3B2107045F202
:102D0000B850C2F20100042B4454FFF461AF1170BB
:102D10005CE73878195C00293FF461AF0130C1B23B
:102D2000595C0029FAD116E03878315C00293FF46B
:102D300056AF00BF0130C1B2715C0029FAD10AE080
:102D40003878295C00293FF44AAF00BF0130C1B296
:102D5000695C0029FAD1387041E7022D5AD0032D61
:102D60007ED145F26461C2F20101013108E0022D19
:102D700056D0032D74D145F26461C2F201010331D2
:102D8000087045F24C4045F26467C2F20100002130
:102D9000C2F201070161C1608160416053E03CA063
:102DA00096210F2216F064FE4BF28870C2F20000EA
:102DB000006840F080004BF28871C2F200010860A8
:102DC0004BF28C70C2F200004FF47A7101604BF24A
:102DD0008874C2F200042078000606D54BF2907089
:102DE000C2F2000047F230510160002018F058F89C
:102DF000206840F04000206003B0BDE8F08F4CF246
:102E00008411C2F2000102310FE04CF28411C2F2CF
:102E100000010AE04CF28411C2F20001013104E029
:102E20004CF28411C2F20001033108704CF27010B0
:102E3000C2F2000000214CF284170161C160816080
:102E40004160C2F200073A787B78BE78FF78016073
:102E500047F20461C0F60501009601972BF086FB4E
:102E6000FEF726FFFEF7FAFA4BF28870C2F2000076
:102E7000016821F02001016003B0BDE8F08F00BFC0
:102E800057524F4E472050415353574F5244000022
:102E900050415353574F5244204F4B0010B5012817
:102EA00012D0002818BF10BD4CF24820C2F200001A
:102EB00000681EF047FA78206E2140F2DB1287236B
:102EC000BDE8104016F0DCBB4CF24824C2F200040E
:102ED000206800211CF03EF82068BDE810401EF07C
:102EE0004EBD00002DE9F04F85B003F06BFA41F6BE
:102EF0008434C2F200042168401A0A28C1F06A80B2
:102F000003F060FA206018F0B7FB16F0EDFF41F611
:102F1000E425C2F200052878052801F25180DFE897
:102F200010F006008B005908AF00C400E3004BF21C
:102F30008C74C2F200042068A0B94BF28870C2F20F
:102F4000000001684A060DD521F040028B060260A0
:102F500004D521F060010160FEF7AAFEFEF788FEAD
:102F6000FDF710FF4BF29075C2F20005286868B9B2
:102F70004BF28870C2F2000001680A0606D521F003
:102F800080010160FEF774FEFDF7FCFE01F03EF8E3
:102F90004CF20027C2F20007386814F063FE30B12B
:102FA0004BF28876C2F20006307800062CD44CF240
:102FB000C817C2F20007386814F054FE30B14BF263
:102FC0008876C2F200063078000629D44CF2042735
:102FD000C2F20007386814F045FE002800F0708146
:102FE0004BF28876C2F200063078800600F16881E4
:102FF000386814F037FE002800F03A8318F03CFBE4
:10300000322016F05BFCF3E7386814F02BFE002842
:1030100000F0C98118F030FB322016F04FFCF3E7C6
:10302000386814F01FFE002800F06F8218F024FBAF
:10303000322016F043FCF3E741F67034C2F200048C
:10304000204609F0A9FD4CF2D017C2F200073868FB
:1030500014F008FE00285BD04BF28876C2F200061E
:103060003078800654D400BF386814F0FBFD002887
:1030700000F09E8118F000FB322016F01FFCF3E7F1
:103080004CF2F014C2F20004206814F0EBFD0028AA
:1030900000F0EA80206814F0E5FD002856D018F012
:1030A000EBFA322016F00AFCF4E74BF28874C2F215
:1030B00000042078800640F173874CF29415C2F228
:1030C0000005286814F0CEFD002800F0698200BFDA
:1030D000286814F0C7FD002800F06D8118F0CCFAC4
:1030E000322016F0EBFBF3E74CF2C414C2F20004FA
:1030F000206814F0B7FD002800F0CC80206814F0A0
:10310000B1FD48B318F0B8FA322016F0D7FBF5E756
:103110004CF2D817C2F20007386814F0A3FD00285B
:1031200000F083804BF28876C2F200063078800689
:103130007BD400BF386814F095FD002800F0188299
:1031400018F09AFA322016F0B9FBF3E7FEF7C4FE46
:10315000FDF7E0FF00F059BE4CF26420C2F200001F
:1031600000681CF066FE4CF25421C2F2000145F2E8
:1031700020380968C2F20108C8F8000008461CF0AF
:1031800058FE4CF24C21C2F2000145F22435096888
:10319000C2F20105286008461CF02AF945F22834DD
:1031A000B8F80030C2F2010429882060C2B2184683
:1031B00004F068FC45F22C36411CC2F201060229DB
:1031C0003060C0F02286206840F00100032840F003
:1031D0004C823068002800F018864CF25419002701
:1031E0000A24C2F200090CE0FEF7C6FE306801377F
:1031F00001383060642016F061FB3068002800F070
:103200000486D9F80000F9B230F811000122411CFF
:10321000296089B2C8F8000004F034FC0128E3D02A
:10322000013C2006E6D10A24E0E74CF2CC16C2F2BB
:103230000006306814F016FD002800F098804BF26C
:103240008870C2F200000078800600F1908000BF14
:10325000306814F007FD002800F0348218F00CFAF2
:10326000322016F02BFBF3E74CF2DC14C2F2000420
:10327000206814F0F7FC002800F02882206814F081
:10328000F1FC002800F09F8018F0F6F9322016F0CB
:1032900015FBF3E74CF28814C2F20004206814F026
:1032A000E1FC002800F02882206814F0DBFC0028F4
:1032B00000F09B8018F0E0F9322016F0FFFAF3E7F7
:1032C0004CF28C16C2F20006306814F0CBFC30B120
:1032D0004BF28870C2F20000007800063BD445F241
:1032E0003134C2F201042078C02840F085814CF2CC
:1032F0006C40C2F200000168C90740F07D8101689E
:10330000732241F0010101604B2005214B2316F08F
:10331000B7F941F23010C0F605004B21052216F036
:103320005FFC4FF47F4017F059FD002017F054FD6B
:10333000002017F0B5FD0E2017F0A8FD5F203C21FE
:1033400016F02EFF41F21010C0F6040017F04AFDEF
:103350000FF6B44000E3306814F084FC002800F05D
:10336000348218F089F9322016F0A8FAF3E74CF20B
:10337000D416C2F20006306814F074FC00285AD04B
:103380004BF28877C2F200073878800653D4306851
:1033900014F068FC002800F01E8218F06DF932204D
:1033A00016F08CFAF3E7FEF763FCFEF725FBB0E0BE
:1033B00009F03AF9DEE041F2E420C2F201000078BF
:1033C000302100F0EBBDFEF787FD4FF4F0704FF4B5
:1033D0008871FDF753FA4FF47A7016F06FFA16F011
:1033E00041F9FEF709FB00F010BD4CF25C20C2F27F
:1033F000000000681CF01DFD45F22031C2F2010101
:1034000008604CF25820C2F2000045F224310068F6
:10341000C2F2010101220A601CF00BFD45F22C31C1
:10342000C2F20101086045F21D30C2F20100D12153
:10343000017000F0EABC41F68030C2F20000027870
:10344000A1798A4240F079814CF23024C2F2000422
:1034500020681DF067FF01283FD04CF23424C2F2EF
:10346000000420681DF05EFF012836D04CF238249D
:10347000C2F2000420681DF055FF01282DD04CF247
:103480002824C2F2000420681DF04CFF012824D03B
:103490004CF22424C2F2000420681DF043FF0128EE
:1034A0001BD04CF21C24C2F2000420681DF03AFF2D
:1034B000012812D04CF22024C2F2000420681DF032
:1034C00031FF012809D04CF22C24C2F200042068FC
:1034D0001DF028FF012840F0798420684CF2502428
:1034E000C2F20004206014F08CFF236801464BF206
:1034F00024723068C2F20002002B117000F0728456
:103500001DF0DBFB05B0BDE8F08FFEF7B1FBFDF76A
:10351000A5FF47F2305028603168206041F040003C
:103520003060642016F0CAF94BF28870C2F20000D5
:103530000078800640F14E854CF29414C2F20004EB
:103540004CF250212068C2F2000100220A6014F0FF
:1035500089FBD8B3206814F085FB28B118F08CF8EB
:10356000322016F0ABF9F5E70720302100F030BD2E
:1035700009F000FDFEF736FCFDF704FC4BF29070FD
:10358000C2F2000047F2305101604BF28C70326899
:10359000C2F20000016042F04000306000F010BD57
:1035A0004CF29815C2F20005286814F05BFB002865
:1035B00000F03681286814F055FB002800F0B18037
:1035C00018F05AF8322016F079F9F3E74CF2981413
:1035D000C2F20004206814F045FB002800F034819A
:1035E000206814F03FFB002800F0A38018F044F896
:1035F000322016F063F9F3E72078C02894D04CF21B
:103600006C40C2F200000168C9078DD001687322C6
:1036100021F0010101604B2005214B2316F030F809
:1036200041F24410C0F605004B21052216F0D8FAED
:10363000FF2017F0D3FB002017F0CEFB002017F07F
:103640002FFC0E2017F022FC5F203C2116F0A8FD75
:1036500041F21010C0F6040017F0C4FB2078BF2818
:1036600040F075810FF6901076E1FEF785FCCCE313
:103670003078000600F1D180FDF738FC41F2E820F7
:10368000C2F201000021062200250FF08BFE41F25C
:10369000E020C2F2010005706FF07F4017F09EFB42
:1036A00044F6CC00C0F6040017F09CFB022017F093
:1036B000F7FB0FF6341096210F2216F0D9F947F2D6
:1036C000305029E709F056FC00F07ABC4CF2F414B3
:1036D000C2F20004206814F0C5FA002800F0C88087
:1036E000206814F0BFFA002800F08F8317F0C4FFA1
:1036F000322016F0E3F8F3E74CF29014C2F2000423
:10370000206814F0AFFA002800F0C780206814F099
:10371000A9FA002870D017F0AFFF322016F0CEF8CB
:10372000F4E741F2E420C2F201000078312100F018
:1037300035BC0720312100F04BBC45F26545C2F293
:10374000010501702846002154220FF02BFE04F1E0
:1037500008012846022207F0FDFD3A26E81CE11D7B
:103760000222AE7007F0F6FDA81DA11D02226E71A7
:1037700007F0F0FD42F22000288105F10A0004F173
:103780000A01022207F0E6FD2E20287305F10D0044
:1037900004F10B01022207F0DDFD43F22E20A5F813
:1037A0000F003020687405F1120004F10C010222B0
:1037B00007F0D0FD4CF21C20C2F200000068294640
:1037C00014F084FF05B0BDE8F08FFEF751FA002039
:1037D00028602060A5E64CF25026C2F20006306850
:1037E000002800F0A6824CF23021C2F200010968E4
:1037F00088427DD1012070E2FEF7B2FAFEF7FCF8B4
:103800004CF2602045F26061C2F20000C2F2010198
:10381000006809681CF05CFBF7E20020286083E682
:103820004CF29C15C2F20005286814F01BFA00281F
:1038300067D0286814F016FA00284FD017F01CFF44
:10384000322016F03BF8F4E74CF29C14C2F200046C
:10385000206814F007FA002866D0206814F002FAF5
:10386000002842D017F008FF322016F027F8F4E7BE
:103870004CF2FC14C2F20004206814F0F3F90028A2
:1038800071D0206814F0EEF9002800F0BE8217F025
:10389000F3FE322016F012F8F3E701AC20460021C7
:1038A000102210250FF07EFD4CF24026C2F20006D9
:1038B00030681AF065FF024645F260673068C2F270
:1038C0000107002123463A6000951AF0FFFE2046CA
:1038D000FCF71CFD386005B0BDE8F08F41F2E42034
:1038E000C2F201000078322158E3072032216FE351
:1038F0004CF23421C2F200010968884252D1022000
:10390000EBE14CF2A015C2F20005286814F0AAF908
:10391000002850D0286814F0A5F9C8B317F0ACFE01
:10392000322015F0CBFFF5E74CF2A014C2F20004F0
:10393000206814F097F9002851D0206814F092F90B
:1039400068B317F099FE322015F0B8FFF5E720783C
:10395000C12803D10FF2A86016F00AF84FF07F409B
:1039600017F03AFAE0E54CF2F814C2F200042068CD
:1039700014F078F9002850D0206814F073F900286A
:1039800000F0438217F078FE322015F097FFF3E73E
:1039900041F2E420C2F2010000783321FEE2072068
:1039A000332115E34CF23821C2F200010968884244
:1039B00029D1032091E14CF2A415C2F20005286838
:1039C00014F050F9002800F0DD80286814F04AF95E
:1039D000B8B317F051FE322015F070FFF5E74CF246
:1039E000A414C2F20004206814F03CF9002800F08E
:1039F000DC80206814F036F950B317F03DFE322019
:103A000015F05CFFF5E74CF22821C2F200010968CD
:103A1000884240F0AE8004205FE14CF2E414C2F230
:103A20000004206814F01EF9002800F0D1802068FE
:103A300014F018F978B117F01FFE322015F03EFF90
:103A4000F5E741F2E420C2F2010000783421A5E25A
:103A500007203421BCE24CF23C2745F22036C2F26A
:103A600000070020C2F20106386030604BF6981063
:103A700047F21261C2F20000C0F6050100220DF00B
:103A8000B1F8002840F0A6824BF2287047F210618E
:103A9000C2F20000C0F605010DF0E4F94CF25D0938
:103AA000C2F20009002889F8000040F0AE814CF213
:103AB000682AC2F2000ADAF800000FF220510091E1
:103AC00001210022002301241CF09FFC4CF2442B16
:103AD0003968C2F2000BCBF80000002908BF0224AD
:103AE00034604CF244044BF22870C2F20004C2F27B
:103AF000000021460DF0ACFA89F8000070BB607A36
:103B000060B34BF2287804F10905C2F20008207A6C
:103B10002946C0064FF0000254BF002001201CF0CF
:103B200050FC3860D0B1DAF800003968DBF80020CA
:103B300033681CF0CAFA16F0D7F938682146002815
:103B40004FF0010008BF0220306040460DF080FABF
:103B500089F8000010B9607A0028D8D14BF2287497
:103B6000C2F2000420460CF091FE20460CF08EFEBE
:103B70004BE14CF22421C2F200010968884246D18F
:103B80000520AAE04CF2A815C2F20005286814F03E
:103B900069F8002844D0286814F064F868B317F076
:103BA0006BFD322015F08AFEF5E74CF2A814C2F244
:103BB0000004206814F056F8002847D0206814F05C
:103BC00051F808B317F058FD322015F077FEF5E7ED
:103BD0004CF2E814C2F20004206814F043F8002804
:103BE0004AD0206814F03EF8002800F00E8117F04B
:103BF00043FD322015F062FEF3E741F2E420C2F209
:103C0000010000783521C9E107203521E0E14CF2BF
:103C10002021C2F200010968884256D106205CE0EA
:103C20004CF2AC15C2F20005286814F01BF800280D
:103C300000F0A680286814F015F8002800F096809F
:103C400017F01AFD322015F039FEF3E74CF2AC14F0
:103C5000C2F20004206814F005F8002800F0A380E8
:103C6000206813F0FFFF002800F0878017F004FDA4
:103C7000322015F023FEF3E74CF2EC14C2F20004FC
:103C8000206813F0EFFFD0B94CF2E014C2F2000448
:103C9000206813F0E7FF002800F09C81206813F0F3
:103CA000E1FF002800F0AD8017F0E6FC322015F0AF
:103CB00005FEF3E717F0E0FC322015F0FFFD206869
:103CC00013F0D0FF0028F5D19FE04CF22C21C2F276
:103CD00000010968884205D1082041F2E421C2F2BE
:103CE0000101086041F2E020C2F2010000210170F0
:103CF00041F2E820C2F20100002106220FF052FB3F
:103D000045F26544C2F201042046002154220FF01E
:103D100049FB30682146182214F092FBFEF762F846
:103D2000002017F059F815F09DFCFDF7DFF804208E
:103D3000287041F2E4204BF22471C2F20100C2F279
:103D4000000100780978FEF763FB4BF29070C2F235
:103D5000000047F2305101604BF28C703A68C2F2B9
:103D60000000016042F04000386029E141F2E420A7
:103D7000C2F201000078362110E10720362127E148
:103D80004CF2B015C2F20005286813F06BFF002852
:103D900050D0286813F066FF48B317F06DFC32204E
:103DA00015F08CFDF5E74CF2B014C2F20004206867
:103DB00013F058FF00284FD0206813F053FFE8B1EC
:103DC00017F05AFC322015F079FDF5E74CF250203F
:103DD000C2F20000002101604BF224723068C2F28E
:103DE000000211701CF066FF05B0BDE8F08F41F2D3
:103DF000E420C2F2010000783721CFE0072037210C
:103E0000E6E0FEF769F8FCF7BDFF4BF290704BF26D
:103E10008872C2F2000047F23051C2F20002016023
:103E20004BF28C701368C2F20000016043F0400056
:103E30001060C5E04CF2B415C2F20005286813F01A
:103E400011FF28B3286813F00DFFB8B117F014FC68
:103E5000322015F033FDF5E74CF2B414C2F2000441
:103E6000206813F0FFFE28B3206813F0FBFE60B15A
:103E700017F002FC322015F021FDF5E741F2E420B5
:103E8000C2F201000078382188E0072038219FE045
:103E90004CF2B815C2F20005286813F0E3FE28B30F
:103EA000286813F0DFFEB8B117F0E6FB322015F0FA
:103EB00005FDF5E74CF2B814C2F20004206813F0D7
:103EC000D1FE28B3206813F0CDFE60B117F0D4FB0B
:103ED000322015F0F3FCF5E741F2E420C2F20100D4
:103EE000007839215AE00720392171E04CF2C015E1
:103EF000C2F20005286813F0B5FE28B3286813F055
:103F0000B1FEB8B117F0B8FB322015F0D7FCF5E7D9
:103F10004CF2C014C2F20004206813F0A3FE28B3D0
:103F2000206813F09FFE60B117F0A6FB322015F059
:103F3000C5FCF5E741F2E420C2F2010000784F2110
:103F40002CE007204F2143E04CF2BC15C2F20005E3
:103F5000286813F087FE18B3286813F083FEB8B101
:103F600017F08AFB322015F0A9FCF5E74CF2BC14DF
:103F7000C2F20004206813F075FE58B3206813F0F5
:103F800071FE18B317F078FB322015F097FCF5E7B7
:103F900041F2E420C2F2010000784221FEF738FA33
:103FA0004BF29070C2F2000047F2305101604BF2C8
:103FB0008C702268C2F20000016042F04000206074
:103FC000642015F07BFC05B0BDE8F08F072042218E
:103FD000FEF71EFA05B0BDE8F08F00BF7553445FD1
:103FE0004361726400000000454E54455220504128
:103FF0005353574F524400004552524F5200000055
:104000002053544F5000000052554E002DE9F0410E
:1040100088B004AC204608F0BFFD41F6E420C2F2AF
:1040200000000078002840F0A58140F22970C2F21B
:10403000000002789DF817108A424BF28872C2F293
:10404000000204BF53785FEAC37300F093811368E2
:10405000017023F480731360052041217322C8236B
:10406000E71D15F00DFB4FF0C44016F0B7FE05201C
:1040700041217322C82315F071FF002016F010FFB4
:104080006D4604F108012846022207F063F93A2040
:10409000EE1C8DF8020030463946022205F1020876
:1040A00007F058F93C20642116F07AF8FF2016F04A
:1040B00095FE46F67C00C0F6040016F093FE0E2036
:1040C00016F0E4FE284615F053FC9DF81900072869
:1040D00000F27280DFE800F00416253443526107D5
:1040E00007208DF8190042F26100C0F22000029012
:1040F00046F26450C6F66C20019042F22000C6F2EF
:104100004E5058E046F26A10C0F26B00029046F63C
:104110006420C6F66540019046F65070C6F26E50B7
:1041200049E042F22000C0F22000029047F26F20E6
:10413000C6F66130019042F22000C7F255403AE0E5
:1041400042F26100C0F22000029046F66920C6F2F9
:104150006540019042F22000C7F253202BE046F662
:104160006130C0F22000029047F27460C7F27240E2
:10417000019042F22000C6F243501CE042F22000BF
:10418000C0F22000029047F26540C6F6613001900F
:1041900042F22000C5F220000DE042F22000C0F201
:1041A0002000029046F66270C6F27410019042F24E
:1041B0002000C7F2535000903C20822115F0F0FF00
:1041C0006FF07F4016F00AFE43F23450C0F6040050
:1041D00016F008FE0E2016F059FE6D46284615F022
:1041E000C7FB04F10A012846022207F0B3F89DF844
:1041F0001B002E21013811288DF8021000F27A8060
:10420000DFE800F009141E252C333A416C787878E9
:104210007878784C566046F27510C0F27200C6F895
:10422000030046F24A10C7F26E5062E046F2751083
:10423000C0F27200706046F24650C7F2622058E049
:104240000020307146F24D10C7F2724051E06C20F0
:10425000B08047F24100C6F672104AE046F24D10B7
:10426000C0F26A00CDF8030044E00020307147F24C
:104270004A50C6F66E103CE00020307147F24A50BA
:10428000C6F66C1035E047F27530C0F27400C6F81F
:10429000030047F24150C7F267502AE046F262102D
:1042A000C0F27200706046F64F30C6F6747020E0BF
:1042B00046F26D20C7F26120706046F64E70C6F27D
:1042C000765016E00020307246F26D20C7F2612071
:1042D000706046F24450C6F263500AE072203081AA
:1042E00046F66550C6F26210706046F25350C7F24F
:1042F000704030606E463046FBF7CEFF41F2101141
:10430000C0F6040142F29C17C0F604070A2898BFC1
:104310003946084616F066FDFF2016F05FFD3C208A
:10432000A02115F03DFF0E2016F0B0FD304615F02F
:104330001FFB00208DF8040043F23200C2F220007F
:10434000009004F10C014046022207F003F83846C1
:1043500016F048FD6FF07F4016F040FD3C20BE2176
:1043600015F01EFF0E2016F091FD304615F000FBF3
:1043700015F0BAFD08B0BDE8F081000070B541F657
:10438000E420C2F200000078002818BF70BD45F29A
:10439000B85445F20C60C2F20104C2F20100214699
:1043A0005422FBF71FFF45F26455C2F20105204677
:1043B00029465422FBF716FF45F21056C2F20106B9
:1043C000284631465422FBF70DFF45F2BC44C2F2A9
:1043D0000104304621465422FBF704FF2046002109
:1043E00054220EF0DFFF4BF29476C2F20006F07812
:1043F000317941EA0021A1B145F2442042F235026F
:1044000045F25233C2F23A00C4F24142C3F63403D9
:10441000C4E90032A06004F10C00002207F02EFB7A
:104420000CE042F24C0144F6487244F65240C5F2A8
:104430004341C4F25452C4E90021A0602046FBF776
:104440002BFFB27820212154A2F1AE01462900F1C0
:10445000010000F2C481DFE811F04700C201C2018F
:10446000C201C201C201C201D50150005700DB01E7
:10447000E9016000FD017700C2010C028600C20163
:10448000C201C201C201C201C201C201C201C20114
:1044900023029D00A6002C02320238023E02AF0029
:1044A00054025A02B800D400C201C201EE006302F5
:1044B000C201FF000E016C0225012E0182023701AC
:1044C0004001C20149018B0294025A019D0271010F
:1044D0007A018301A602AF029901A201B802C102CA
:1044E000C201D702E002B90147F6A4112044C0F688
:1044F00005011722FBF776FEB7E220440FF26C614C
:104500001922FBF76FFEB0E247F65C112044C0F6BB
:1045100005011522FBF766FEA7E244F65372C5F2C9
:1045200046422118225045F24530C5F24540C1F8B7
:104530000B0042F22000C4F25250886044F257103F
:10454000C4F25250486090E245F25772C4F244728D
:104550002118225045F24540088145F22020C5F23D
:104560004530486081E245F25232C3F634022118E8
:10457000225045F25220C5F24F20C1F80B0042F202
:104580005300C5F24520886042F23500C5F2425022
:1045900048606AE247F650212044C0F6050118221F
:1045A000FBF720FE61E247F6A4212044C0F6050196
:1045B0001822FBF717FE58E247F674112044C0F6A4
:1045C00005011422FBF70EFE4FE245F25502C4F23C
:1045D00044122118225042F24500888144F6495085
:1045E000C4F24170886044F25450C2F24400486002
:1045F0002046FBF751FE71792044002207F03EFA75
:1046000033E245F2BC45C2F201052846FBF744FE01
:104610007179B32900F01882B22900F01E82B12905
:1046200040F0238247F634212844C0F605011A22BF
:10463000FBF7D8FD19E244F65562C4F64B62211827
:10464000225044F24310C4F25240886045F24F7049
:10465000C2F24E00486008E245F25722C4F64F62AB
:104660002118225044F64F50088142F24700C4F608
:1046700052704860F9E145F25722C4F64F622118A2
:10468000225042F24D00C4F24940C1F80B0045F2FD
:104690005340C4F64550886042F24700C5F65310B7
:1046A0004860E2E147F608112044C0F605011322F4
:1046B000FBF798FDD9E147F6F4012044C0F6050167
:1046C0001122FBF78FFDD0E147F678012044C0F6B8
:1046D00005011122FBF786FDC7E147F6B40120442E
:1046E000C0F605011122FBF77DFDBEE144F64D1237
:1046F000C4F64E122118225045F25530C4F24540FE
:10470000886044F24210C2F252004860ADE144F2C7
:104710004312C4F252422118225044F64330C5F2EB
:104720004520C1F80B0045F25340C4F24130886087
:1047300044F62010C2F24E00486096E147F6BC11E4
:104740002044C0F605011122FBF74CFD8DE147F630
:1047500034112044C0F605011222FBF743FD84E129
:1047600044F24812C4F24E422118225042F24C0048
:10477000C4F64F60C86044F22030C4F641408860FF
:1047800044F24D10C4F2494048606EE147F6E4112E
:104790002044C0F605011122FBF724FD65E144F633
:1047A0005372C2F253022118225045F24530C5F22D
:1047B0004540C1F80B0042F24D00C4F252508860EF
:1047C00044F64140C5F2412048604EE147F60C21D5
:1047D0002044C0F605011122FBF704FD45E144F633
:1047E0005562C4F64B62211822505420087345F2DA
:1047F0004560C4F64560886045F24F70C2F24E00D5
:10480000486032E12044D4A11922FBF7EBFC2CE1F3
:1048100044F65012C2F24E0221182250542008725F
:1048200044F25250C4F2535048601EE144F65072B4
:10483000C4F257522118225045F24540888145F272
:104840002020C5F24530886042F65250C4F64F60D1
:1048500048600AE145F24972C4F2447221182250BC
:1048600045F24540088145F22020C5F245304860B8
:10487000FBE044F64C72C2F257022118225045F276
:104880004530C5F24540C1F80B0042F25200C4F277
:104890005250886044F65070C4F257504860E4E0CB
:1048A00047F66C212044C0F605011722FBF79AFC5D
:1048B000DBE02044C1A11922FBF794FCD5E02044A1
:1048C000B8A11722FBF78EFCCFE02044AEA11C223A
:1048D000FBF788FCC9E044F64612C4F65252211890
:1048E000225045F24140C4F24540C86045F2205094
:1048F000C4F25040886044F25710C4F252504860ED
:10490000B3E02044B4A11222FBF76CFCADE047F603
:104910008C112044C0F605011622FBF763FCA4E0CD
:1049200047F68C012044C0F605011122FBF75AFC22
:104930009BE045F24752C5F245322118225044F619
:104940004140C4F24940C86044F25240C5F2206080
:10495000886042F25400C4F24310486085E047F694
:10496000E0012044C0F605011122FBF73BFC7CE08E
:1049700047F664012044C0F605011322FBF732FC20
:1049800073E047F6A0012044C0F605011322FBF7AF
:1049900029FC6AE047F6F8112044C0F6050113220D
:1049A000FBF720FC61E047F648112044C0F6050102
:1049B0001122FBF717FC58E047F61C112044C0F603
:1049C00005011422FBF70EFC4FE047F6D0112044FE
:1049D000C0F605011222FBF705FC46E044F646123C
:1049E000C4F252522118225045F24530C5F24540DA
:1049F000C86044F65250C5F22020886044F220106E
:104A0000C4F24C10486030E047F6C8012044C0F6BC
:104A100005011522FBF7E6FB27E044F64472C5F2D8
:104A20004F222118225045F24340C5F24960C1F897
:104A30000B0042F24C00C4F24130886044F2202066
:104A4000C4F64540486010E047F620212844C0F6EF
:104A500005011322FBF7C6FB07E047F6882128442F
:104A6000C0F605011822FBF7BDFB2046FBF714FC3E
:104A70002218C0F1540110462022FBF7D3FB00207E
:104A800084F8530078206E214FF4F072DC2314F088
:104A9000F7FD002016F0FAF94FF07F4016F09CF970
:104AA00041F21015C0F60405284616F09BF96FF088
:104AB0007F4016F093F920467D21C82214F0D8FFDC
:104AC00045F21050C2F201007D21B42214F0D0FF53
:104AD00045F26450C2F201007D21A02214F0C8FF0B
:104AE00045F2B850C2F201007D218C2214F0C0FFC3
:104AF00045F20C60C2F201007D21782214F0B8FF6B
:104B000014F0F2FE7820412140F2DB12692314F008
:104B1000B7FD4FF0C44016F061F97820412140F212
:104B2000DB12692315F01AFA002016F0AFF9022003
:104B300016F0B6F9284616F055F96FF07F4016F0DA
:104B40004DF97D20502115F02BFB204614F010FF6D
:104B5000BDE8704015F0C8B94E4F2041444452455D
:104B6000455353204C4953540000000075534420D2
:104B70004341524420414444522E204C4953542036
:104B80004552524F52000000544845524D4F535425
:104B90004154204E54432053454E534F52204552CA
:104BA000524F520046414E434F494C2046524545D4
:104BB0005A494E4720414C41524D000046414E4318
:104BC0004F494C2054454D5045522E20544F4F20B4
:104BD0004849474800000000424F4F544C4F414461
:104BE000455220555044415445440000B0B54BF265
:104BF00088710128C2F200010BD0002818BFB0BD97
:104C0000086841F2581520F01000FF24C0F6050591
:104C100008E0086841F26C1540F010004FF47F4442
:104C2000C0F6050508600F20052137224B2314F03C
:104C300027FD28460F21052214F0D2FF204616F04A
:104C4000CDF8002016F0C8F8002016F029F90E2043
:104C500016F01CF923203C2115F0A2FA41F21010A5
:104C6000C0F6040016F0BEF804A014F081FE4FF068
:104C70007F40BDE8B04016F0AFB800BF75534400A8
:104C800000294BF20001C4F202010A680CBF22EABB
:104C90000000104308607047B0B546F2284448F65B
:104CA0000005C4F20204C1F200052046294600F0C6
:104CB00087F9002808BFB0BD20462946BDE8B040AE
:104CC00000F024B846F2704048F22001C4F202001D
:104CD000C2F2000100F074B946F20002C4F202020E
:104CE00002F58263984240F67D7002F58062C0F65C
:104CF0007D703CBF46F20002C4F202028B0000EA63
:104D0000010054BF9060D0607047000046F200027E
:104D1000C4F2020202F58263984240F67D7002F509
:104D20008062C0F67D703CBF46F20002C4F202020F
:104D30008B0000EA010054BF9060D0607047000013
:104D40000268002942F0010308BF22F0010303605A
:104D500070470000016821F001010160002101603D
:104D600041608160C160016146F20F41C4F20201FD
:104D700088424FF02101416122DC46F26F01C4F20A
:104D80000201884240DC46F23F01C4F2020188423F
:104D90006FDC46F21001C4F20201884200F0C280CA
:104DA00046F22801C4F20201884201BF46F208001F
:104DB000C4F202004FF47461016008BF704770478D
:104DC00046F26F41C4F20201884238DC46F23F41AC
:104DD000C4F20201884262DC46F21041C4F20201D0
:104DE000884200F0A68046F22841C4F202018842BF
:104DF00001BF46F20800C4F202004FF47461C0F82B
:104E0000001408BF7047704746F29F01C4F20201C8
:104E100088425BDC46F27001C4F20201884200F075
:104E2000908046F28801C4F20201884240F0BD80C1
:104E300046F20800C4F2020040F6407186E046F2F5
:104E40009F41C4F20201884256DC46F27041C4F22E
:104E5000020188427ED046F28841C4F202018842B3
:104E600018BF704746F20C40C4F2020040F6407191
:104E700075E046F24001C4F20201884273D046F266
:104E80005801C4F20201884201BF46F20800C4F290
:104E900002004FF07461016008BF7047704746F22E
:104EA0004041C4F20201884265D046F25841C4F242
:104EB0000201884201BF46F20800C4F202004FF02E
:104EC0007461C0F8001408BF7047704746F2A00133
:104ED000C4F20201884257D046F2B801C4F202017E
:104EE000884201BF46F20800C4F202004FF03D5173
:104EF000416008BF7047704746F2A041C4F202010A
:104F000088424AD046F2B841C4F20201884201BF49
:104F100046F20C40C4F202004FF03D51016008BF60
:104F20007047704746F20800C4F202003D2101605C
:104F3000704746F20800C4F202003D21C0F8001498
:104F4000704746F20800C4F202003D21C2F200019F
:104F50004160704746F20C40C4F202003D21C2F2AB
:104F600000010160704746F20800C4F202004FF4ED
:104F700074110160704746F20800C4F202004FF459
:104F80007411C0F80014704746F208000021C4F202
:104F90000200C2F23D014160704746F20C40002120
:104FA000C4F20200C2F23D010160704702680029AC
:104FB00042F0200308BF22F0200303607047000086
:104FC00080B546F20003C4F2020340F63C7C03F5D0
:104FD0008262C0F63C7C03F5806390423CBF46F29F
:104FE0000003C4F2020311EA0C0F05D04FF01E0EAD
:104FF00002680EEAD12001E04069802210408A0058
:1050000048BF04331A680CF141131940114018BF0E
:105010000121002818BF0120084080BD0B0608D5DB
:10502000D0F814C0002A4CF0800308BF2CF0800395
:105030004361802908BF704701F01E011AB1026860
:10504000114301607047026822EA01010160704764
:105050002DE9F04F026848F23F03CFF21C03D1F86C
:1050600000901A40D1E9038E01F1140C9CE8F01075
:1050700042EA090242EA080222432A4332438B6A87
:105080003A43D1E90DAB42EA0C021A4342EA0A0262
:1050900042EA0B0202604269D1E90B3722F00702B3
:1050A0001A433A434261C0F804E04A688260896862
:1050B000C160BDE8F08F00007047000010B582B0FD
:1050C000019001F07FF90090019860B1002400BFC9
:1050D00001F078F90099019A401A904228BF019492
:1050E00001980028F4D102B010BD000080B500F096
:1050F000E9F8BDE8804000F011BB000041F68C31BA
:10510000C2F2000108680268002A02D40268D205CF
:1051100024D40268002A15D40268920512D50268C8
:10512000D2050FD441F6D442C2F2000208681368D7
:105130001860126800200123506093600A68D268EA
:105140000A6070470268002A06D4026892055CBFB4
:1051500002685FEAC2520DD500207047086841F628
:10516000D441C2F200010968486088680130886053
:105170000120704741F6D442C2F2000212689368DF
:1051800001339360C06808600020704749F218013D
:10519000C4F202010A68002842F0020308BF22F0AC
:1051A00002030B607047000070B541F68C33C2F209
:1051B00000031860D2B1A2F1010CA0F120034FF05E
:1051C000000E4FF0004444F2F45500BF43F8204F66
:1051D000E64506460EF1010E38BF03F12006C3E98D
:1051E0000151724501F2F451DE60EFD149F20C0138
:1051F000C4F20201086041F6D44041F66051C2F2A7
:105200000000C2F20001016070BD000049F2180107
:10521000C4F202010A68002842F4005308BF22F4D5
:1052200000530B6070470000B0B541F63043C2F246
:1052300000031860BAB1A2F1010CA0F120034FF0F5
:10524000000E4FF4801400BF43F8204FE64505469A
:105250000EF1010E38BF03F12005C3E902157245B6
:1052600001F2F451F0D149F21001C4F202010860D8
:10527000B0BD000080B54FF00070012107F048FA82
:105280004FF000700021BDE8804007F041BA0000F7
:1052900082B001900020009001980090009828B101
:1052A00000980138009000980028F9D102B07047AA
:1052B00049F21800C4F20200016841F48011016053
:1052C00070470000F0B583B0002440F64057D72067
:1052D0000121C4F20204C0F2030707F00DFA4FF4F3
:1052E0008040012107F044FA012009F039FA8620B4
:1052F000009040F202306D4601902046294600F0B1
:105300008BFF204601210B2200F0CAFF204602211C
:105310000B2200F0C5FF204607210B2200F0C0FF42
:105320004FF4006004F5806600903046294600F096
:1053300073FF30460B210B2200F0B2FF4FF4C04048
:1053400004F5C05600903046294600F065FF30460F
:105350000D210B2200F0A4FF30460E210B2200F09D
:105360009FFF322004F5006600903046294600F089
:1053700053FF304601210B2200F092FF30460421FA
:105380000B2200F08DFF304605210B2200F088FF34
:105390000820009040F20120C0F2001004F5E05413
:1053A00001902046294600F037FF2046082100F0F2
:1053B0008BFF0025029500BF0298B84203D20298E5
:1053C00001300290F8E72046082100F07FFF0295A7
:1053D0000298B84206D200BF0298013002900298AB
:1053E000B842F9D303B0F0BD49F20000C4F20200A4
:1053F000006800F00100704741F68C3CC2F2000CDE
:105400000023DCF80020836043601368C3F30D4180
:1054100041F6D443C2F200031B6804390160996865
:10542000022928BF1A689168DCF80020C0E901123F
:10543000D068CCF8000070472DE9F04186B00D46E9
:1054400048F200080021C4F2020805910091D8F842
:105450001010044601A821F01C0607F0B1F90298CB
:105460004DF20031CFF6CE614EF2BF120144C0F2D0
:10547000E402914202D846F0080627E04FF24011BC
:10548000CFF6E95147F63F020144C0F27D12914246
:1054900002D846F00C0619E047F60011CFF66C4131
:1054A00045F600220144C0F2622291420ED341F639
:1054B0000071CFF60A2108444FF27F01C0F2FA21B1
:1054C00088428CBF46F0100646F0040628460021AC
:1054D0004FF40042C8F81060002600F063FA00287C
:1054E00000F0E9804FF6FF77C0F2040707F530209F
:1054F000FFF7CEFE206800283FD000BF00980121B2
:1055000001300090284600F0B9F9400702D4009815
:10551000B842F3D300980026B84200F0CC80284669
:1055200000214FF48052009600F03CFA002800F071
:10553000C28000BF0098012101300090284600F091
:105540009DF9800602D40098B842F3D30098002653
:10555000B84200F0B08028461F21009600F08EF976
:1055600000F01C00042800F0AA80082817D10020B1
:1055700020624FF48040606111E06069216A400858
:1055800040EAD10082B228460021002600F00AFA43
:10559000002800F090806FF07F40FFF779FED8F888
:1055A000000048F20F11CFF620710840D4E9011233
:1055B00001260843E16810432269084361691043EA
:1055C000A2690843E1691043226A0843616A1043F3
:1055D000A26A0843E16A1043226B0843616B1043DF
:1055E0000843C8F80000D4E90E010843D4E91012BA
:1055F00008431043D4E9121208431043D4E91412AB
:1056000008431043C8F80400A06D4FF64171C8F874
:105610000800E06DC8F80C00D8F818000840D4E97C
:1056200018210843A16E40EA0240E26E0843216F50
:105630001043626F08431043C8F81800D4E91E01F4
:1056400043F623720843C8F81C0049F20000C4F274
:1056500002008169CFF6DE021140D4E92023114314
:10566000D4F888201943D4F88C301143D4F8902012
:105670001943D4F894301143D4F898201943D4F83E
:105680009C301143D4F8A02019431143816104F1E7
:10569000A4030ECB1143D4F8B02019431143D4E92D
:1056A0002D2341EA8201194341F4000101600168A0
:1056B00041F080010160304606B0BDE8F081002075
:1056C000206260616BE700000A794B7942EA0322AD
:1056D00048F24003C4F20203C25009681844416012
:1056E0007047000048F20001C4F202010A68002875
:1056F00042F0040308BF22F004030B60704700006F
:1057000048F20001C4F202010A68002842F00803CE
:1057100008BF22F008030B607047000010B5B0B05E
:105720004FF06060012106F0E7FFFFF7A3FD00F0F6
:10573000D5F800BFFFF758FE0128FBD001AC20468A
:1057400000F0E8F80120019000204FF4007108906B
:10575000CDE90B104FF000714FF400120F90129032
:10576000CDE914001690219022912492CDE92600D3
:105770000420CDE929014FF480302B904FF48000B4
:105780002C904FF400502D904FF480402F902046E5
:105790000121FFF751FE08B130B010BDA4209521C2
:1057A00000F08CF930B010BD70B541F6304CC2F24B
:1057B000000CDCF800201168002923D440F2F551D8
:1057C000884212D34BF20B01CAF60241A0FB01132F
:1057D0009C0A40F2F45E04FB1E018DB2002D18BF3E
:1057E000012505EB932101290ED111686FF35F307C
:1057F00041F0405111605060106840F0004010606E
:10580000D06828E0002070BD4FF60C23CFF6FF7360
:1058100001FB030000F2F45360196FF35F33441E81
:10582000002510466DB908E00668013546F00046CF
:105830000660C0688D420ED21DB9166846F08056CB
:105840001660AC42C0F804E0EED1066846F000569F
:1058500006604360E8E749F21401C4F20201CCF8A3
:105860000000086840075CBF012070BD042008608C
:10587000002041F8100C012070BD000080B581B0FF
:1058800048F2100E0023C4F2020E0093DEF800C0AE
:105890004FF4F86202EA81110CF01C0C60F3CF2186
:1058A0004FF6FF7301EB0C00C0F204030130CEF899
:1058B000000000BF009801300090DEF80000C00733
:1058C00002D000989842F5D30098984214BFDEF8B1
:1058D0000400002080B201B080BD000049F2000049
:1058E000C4F20200016841F001010160704700004C
:1058F00080B50120FFF704FFFFF7DAFC0120FFF776
:10590000F1FE0120FFF782FC0120BDE88040FFF797
:105910003DBC000080B5012200214FF48043C0E966
:1059200000214FF40062C0E90211C0E90413C0E98C
:105930000611C0E9082140222023C0E90A11C0E96C
:105940000C11C0E90E11C0E910238022C0E9121128
:10595000C0E91411C0E91611C0E918124FF08062B5
:105960004FF000734FF4001CC0E91A11C0E91C117C
:10597000C0E91E11C0E92023C0E9221CC0E924119E
:10598000C0E926114FF48032C0E9281300F1A803C2
:105990004FF4800C4FF4005E83E80450C0E92D11F1
:1059A00080BD000010B581B048F2100E0023C4F293
:1059B000020E0093DEF800304FF4F86404EA81111F
:1059C00003F01C0360F3CF214FF6FF7CC818C0F230
:1059D000040C0330CEF80420CEF80000009801300B
:1059E0000090DEF80000C00702D000986045F5D3B3
:1059F0000098B0EB0C0018BF012001B010BD0000F2
:105A000080B5012000F01CF8002808BF80BD0120EF
:105A1000BDE8804000F00EB880B54FF4006000F0A3
:105A20000FF8002808BF80BD4FF40060BDE880403B
:105A3000AFF3008043F61441C4F2010108607047DF
:105A400043F61441C4F201010968084018BF01205F
:105A5000704700008179002943F60041C4F201013A
:105A60001FD002680B6893430B604B6893434B60F5
:105A7000037943EA010CDCF800301A43CCF800202B
:105A800002688B6893438B60CB689343CB6040790B
:105A900010280ED1886810438860C8681043C86019
:105AA00070470279006811430A6822EA0000086022
:105AB0007047084301681143016070470C46912903
:105AC000054602D1002005F0E1FE2846214603F0FC
:105AD00063FA00BFFEE7000064221028CAF2000249
