:020000040800F2
:10000000E020002001010008090100080B010008A0
:100010000D0100080F010008110100080000000098
:1000200000000000000000000000000013010008B4
:10003000150100080000000017010008C5140008A1
:100040001B0100081B0100081B0100081B01000820
:100050001B0100081B0100081B0100081B01000810
:100060001B0100081B0100081B0100081B01000800
:100070001B0100081B0100081B0100081B010008F0
:100080001B0100081B0100081B0100081B010008E0
:100090001B0100081B0100081B0100081B010008D0
:1000A0001B0100081B0100081B0100081B010008C0
:1000B0001B0100081B0100081B0100081B010008B0
:1000C0001B0100081B0100081B0100081B010008A0
:1000D0001B0100081B0100081B0100081B01000890
:1000E0001B0100081B0100081B010008DFF80CD0F1
:1000F00000F018F80048004741150008E0200020F3
:100100000648804706480047FEE7FEE7FEE7FEE7B1
:10011000FEE7FEE7FEE7FEE7FEE7FEE7D514000890
:10012000ED000008064C074D06E0E06840F00103D2
:1001300094E8070098471034AC42F6D3FFF7DAFF93
:10014000AC1B0008BC1B0008202A04DB203A21FA63
:1001500002F00021704721FA02F3D040C2F12002E0
:10016000914008431946704782B04FF4FA700190ED
:10017000A648416800910021019A3AB14268009B6B
:10018000D21A019B9A4228BF0191F5E702B070474D
:10019000E0B58DF806004FF414500321ADF80400CB
:1001A00001A800F01FFC4FF40070102100F06EFA5F
:1001B0008CBD00002DE9F04FADF5836D81B00C468C
:1001C0007349704FDFF8C08906AD0591002C00F02F
:1001D000918003218DF81B044A4E04224FF4FA73D8
:1001E0008DF818140146000A8DF81A04080C0291C3
:1001F0000DF583618DF81904414881464FF0805018
:10020000C9F80000304600F06AFFB4F5806F03942F
:1002100028BF4FF48064A2B2304629464FF4FA73E7
:1002200000F066FD4FF48050C9F800003868000601
:1002300005D5554847F80C0C544847F80C0CDDF828
:1002400014B0A1080022CDE900142F48834598BFBF
:100250008A423DD298F84000012842D055F82260E9
:1002600001202C46049288F8400000F093F8A0BBCF
:1002700000225D4602F11009B9F1300F18D00020BC
:10028000002105F1020AC8F84400386840F0010076
:1002900038603046FFF758FF288000F07BF8396857
:1002A000002855464A4621F001013960E2D014E0A9
:1002B0000020049A254688F8400054F82200DBF814
:1002C0000010814200990CD101320BF1040BBCE704
:1002D000386840F08000386003E00020254688F848
:1002E0004000019A0599039C02981144A41A1044F5
:1002F00005916BE70DF5836D01B0BDE8F08F00BF90
:10030000100C014084000020FCFF00082DE9F041A2
:100310001C4C2068000605D51B4844F80C0C1B48F3
:1003200044F80C0C394D95F84000012824D00120E8
:1003300085F8400000F02EF8D8B9154E4FF00008AF
:1003400006F55047BE4214D2C5F84480206840F0FC
:10035000020020606660206840F04000206000F0ED
:1003600019F8216821F00201216010B906F58066B4
:10037000E8E7002085F84000206840F08000206019
:10038000BDE8F0811020024023016745AB89EFCD25
:100390000030000810B51D491D484CF250334A6822
:1003A0000468E40705D04C68A41A9C42F8D90320DD
:1003B00010BD0268920644BF202202600268D20685
:1003C00007D40269D20704D1026852075CBF00203B
:1003D00010BD0268D20603D54A6C42F002024A649C
:1003E0000268520703D54A6C42F001024A6402696E
:1003F000D20707D04A6C42F004024A64016921F036
:100400000101016114210160012010BD00000020E4
:100410000C2002402DE9F84F8F4A4FF0000C4FF0AE
:1004200001084FF00F09002390424FF0040208BF6B
:1004300003220092894AA2F57E7A31FA03F208BFBC
:10044000BDE8F88F08FA03F212EA01074AD06246C3
:100450000646B7F5807F28BF203A28BF04363468A7
:1004600009FA02F5AC43042505FA02F22243326090
:100470000CF00C06C26809FA06F5BA43C2609A0885
:100480005AF8224004EA050B7D4CA0420AD07D4C6C
:10049000A0420AD07C4CDDF800E0A04208BF4FF03B
:1004A000020E04E04FF0000E01E04FF0010E0EFAD4
:1004B00006F4A34516D15AF82260FC4326EA050546
:1004C0004AF82250654A1546126822402A606A6836
:1004D00022406A60AA682240AA60614A15461268F2
:1004E00022402A600CF1040C0133A6E72DE9FC4FF1
:1004F000594A04234FF0000B4FF001084FF00F0E44
:100500004FF000090025904208BF03230093102DEF
:1005100008BFBDE8FC8F0B6808FA05F2134200F033
:1005200097804F68032F16D9112F24D0122F26D071
:100530004D4B9F4213D04D4B9F4210D04C4B9F428E
:100540000DD04C4B9F420AD04B4B9F4207D04B4B98
:100550009F4204D020E0DFE807F00216191D8B68E7
:1005600033B1012B14BF426102614FF0080913E05F
:100570004FF0040910E0CB6803F104090CE0CB68EC
:1005800003F10C0908E0D1F80C9005E0CB6803F109
:10059000080901E04FF000095B460646082D28BF18
:1005A000203B28BF043637680EFA03F409FA03F338
:1005B00027EA040423433360CB79DB0648D5294B73
:1005C000264E0BF00C0C1C461B68A6F57E7643F0FD
:1005D00001032360236803F0010301930EFA0CF377
:1005E000019CAC0856F8247027EA030A244B984271
:1005F00008D0244B984207D0234B9842009B08BF59
:10060000022302E0002300E0012303FA0CF343EA93
:100610000A0346F82430114C4F68FB03236854BF8B
:10062000934313432360BB03636854BF9343134353
:100630006360FB02A36854BF93431343A360BB02F0
:10064000074B1C461B6854BF23EA02021A43226070
:100650000BF1040B01355AE700140140000401407E
:100660000C0401401810024000001110000012108C
:100670000000211000002210000031100000321094
:1006800000080140000C0140001001402DE9F84F26
:10069000D34F804697F8350020281CBF0220BDE8C4
:1006A000F88F3F480D46012142F2107200F024FEFF
:1006B00001460220002968D197F83410012964D03E
:1006C0003868384C4FF001094FF0A00B4FF0200A6A
:1006D000016821F400610160242187F835100021B0
:1006E00087F83490B96301682A4641F4807101604B
:1006F0004FF00110002100F0FFFDE0BB3868C0F8AA
:1007000010B061684269436997F83560A02E0CD03B
:100710009B0A43EA520212F0010206D16268521AA1
:10072000AA4288BF87F835B0ECE787F835A0416961
:10073000026842F400728907026010D4416942F2F3
:10074000107221F4806141611548012100F0D4FD4F
:1007500088B9C14512D2386809F10109C3E7416976
:1007600042F21072009101218069009000980C48BB
:1007700000F0C2FD58B10320BDE8F88F002087F8D3
:100780003400202087F835000120BDE8F88F0020D4
:10079000202187F8340087F83510BDE8F88F00BFB6
:1007A00002001000000000202DE9F843E34F064648
:1007B00097F83500202840F01081002E00F00D81C0
:1007C000DF4C8946012142F2107204F5702000F0DE
:1007D00093FD002840F0018197F83400012800F0D3
:1007E000FC8038684FF000081022016821F4006195
:1007F0000160222187F83510102187F83610C7F8DC
:100800003880016841F480610160012187F834106B
:10081000016841F4807101604FF00110002100F087
:100820006BFD80BB3869B0F5804F1DD1A1203968C0
:100830000861204600F096FD20BBB9F1010F27D1D9
:100840003868016821F480610160EFF3108072B6AE
:10085000386841690091816900910099016841F40B
:100860000071016062B646E03868F0210161A01DA8
:1008700000F078FD30B93868A0210161204600F011
:1008800071FDE0B1B86B87F83480B86BBDE8F883D0
:100890003868B9F1020F016825D141F400610160A7
:1008A000EFF3108072B63868416900918169009158
:1008B0000099016821F48061016062B61BE038682C
:1008C000102241690091816900910099016841F409
:1008D000807101604FF00110002100F00DFD002833
:1008E000D1D1F120A3E741F4806101604169009119
:1008F00080690090009804F102085FEA094064D022
:1009000034461FFA89F64D46032E0DD8012E20D10C
:1009100000F05CFD0028B8D138684FF0000900698C
:1009200004F8010B2646E8E700F050FD0028ACD1A2
:1009300038682646A5F10109006906F8010B3868F8
:1009400041694907D9D50069A5F10209A61C607063
:10095000D3E740460021102200F0CEFC022E13D136
:1009600000283AD1EFF3108072B6A61C4FF00009B0
:100970003868016841F4007101600069207062B656
:10098000386800696070B8E738BB386810220168C1
:1009900021F480610160EFF3108072B600213868A5
:1009A00000692070404600F0A7FCB0B93868E61C2A
:1009B0004FF00009016841F4007101600069607046
:1009C00062B638680069A07097E7202087F8350084
:1009D000002087F8340087F83600BDE8F88300BFB0
:1009E000480000202DE9F843544F044697F835009D
:1009F000202840F0A080002C00F09D80504E0D4635
:100A0000012142F2107206F5702000F075FC0028FA
:100A100040F0918097F83400012800F08C8038680D
:100A20004FF000081022016821F4006101602121CB
:100A300087F83510102187F836100121C7F8388063
:100A400087F83410016841F4807101604FF00110A3
:100A5000002100F051FC90B93869B0F5804F06D004
:100A60003868F0210161B01D00F07CFC30B93868B5
:100A7000A0210161304600F075FC28B1B86B87F801
:100A80003480B86BBDE8F8833868DFF8449A416970
:100A90000091816900910099A046D9F80440290489
:100AA00028D02E464169090609D400F011FCD0BBBC
:100AB000D9F80400001B10282BD83868F2E7444608
:100AC000751E14F8011B2A040161416918BF11F059
:100AD0000401E1D098F80110B51E08F1020401618B
:100AE000DAE700F0F5FBF0B9D9F80400001B102894
:100AF0000FD8386841694907F3D5016841F400719E
:100B00000160002087F83400202087F83500BDE818
:100B1000F883B86B40F02000B863002087F83400F9
:100B2000202087F83500B86B042804D138680168A4
:100B300041F400710160BDE8F88300BF4800002067
:100B400002000100104890F8201001291AD002215B
:100B500080F82110012180F8201041694268CB689B
:100B60009B0706D543689B1AB3F57A7FF7D9032113
:100B700003E04AF6AA220A600121002280F8202020
:100B800080F82110704700BF0000002080B500F001
:100B90001BF84FF47A71B0FBF1F00021421E0748B8
:100BA000B1EB126F06D1064B5A60F022C2750722D4
:100BB00099601A600268C17580BD00BF0CED00E04D
:100BC00010E000E000F0ACFC10B5104810490268DD
:100BD00002F00C03082B10D1C2F383430DA4D203FF
:100BE000E35C02D41049594307E002680DA4C2F344
:100BF0004042A25CB1FBF2F1594300680B4AC0F3DA
:100C00000310105C21FA00F010BD00BF0410024078
:100C100000127A0002030405060708090A0B0C0DEE
:100C20000E0F10100102000000093D009A1B000881
:100C300090B3B0B5044690F8510008B900F02EF812
:100C4000022084F8510094E80F001143056819430D
:100C500025F0400505602269114362691143A269CC
:100C600002F400731943E3691943236A1943A36A21
:100C700019430160042101EA1241626A1143416093
:100C8000E16A0161C16921F40061C16100200121B3
:100C9000606584F85110B0BD01207047B0B586B0D2
:100CA0001148124C02AD016841F4804101602946AF
:100CB000006800F48040019003200590022003901A
:100CC0004FF42040029001982046FFF70FFC0020CF
:100CD0002946CDE903004FF4804002902046FFF7FB
:100CE00005FC06B0B0BD00BF1C100240000C014066
:100CF000F8B504460020ADF8000094F85100012832
:100D00000AD10120002900F0CB81002A00F0C8811F
:100D100094F85000012801D10220F8BD22201D4680
:100D2000012384F85100002084F85030C4E91200F7
:100D3000E287A287C4E90C00A1636065A368B3F5EC
:100D4000004F04D12068066826F480460660A06A39
:100D5000B0F5005F08D12668376827F40057376080
:100D6000376847F400573760002B40F08280636893
:100D7000B3F5827F7DD1002384F85030ADF8023086
:100D800094F85130012B03D094F85130222BC3D169
:100D9000012384F8503094F85130012B04BF3223E2
:100DA00084F85130E287A287A1630023B0F5005F89
:100DB0006365C4E91233E286A2862163236807D102
:100DC0001E6826F400561E601E6846F400561E601B
:100DD0001E68760603D41E6846F040061E60E6686C
:100DE000B6F5006F40F08080012A0FD131F8026B18
:100DF000B0F5005FA2F10102DE60E286216340F0FF
:100E00000B81186840F48050186005E1100400F070
:100E100001812046022100222B4600F017FB00280A
:100E200040F02F81216B206831F8022BC2602163D2
:100E3000E18E0139E186090407D1A16AB1F5005FAD
:100E400003D1016841F48051016020460121002254
:100E50002B4600F0FBFA002840F013812068A16BBC
:100E6000C06821F8020BE08FE28EA1630138E087B1
:100E7000CCE720680168490603D4016841F04001CD
:100E80000160E16839B391B202297ED32046012185
:100E900000222B4600F0DAFA002840F0F2802068A9
:100EA000A16BC26821F8022BA163E18F4A1EE28781
:100EB000E9E72046012100222B4600F0C7FA00286E
:100EC00040F0DF80A16B20684A1CA263C0680870F4
:100ED000E08F421EE28790B20228EAD2A06AB0F503
:100EE000005F5AD1206854E0012A1BD14E1CB0F596
:100EF000005FA2F1010226630978E286D96003D17E
:100F0000186840F4805018602046012100222B46CA
:100F100000F09CFA002840F0B4802068A16BC06803
:100F2000087086E0100400F088802046022100222C
:100F30002B4600F08BFA002840F0A380216B20683C
:100F40004A1C22630978C160E18E0139E1860904F7
:100F500007D1A16AB1F5005F03D1016841F4805166
:100F600001602046012100222B4600F06FFA002884
:100F700040F08780A16B20684A1CA263C06808709B
:100F8000E08FE28E0138E087CCE7A16AB1F5005F1F
:100F900003D1016841F48051016020460121002203
:100FA0002B4600F053FA00286BD12068E168C06836
:100FB00021B1A16B21F8020BA16303E0A16B4A1CD4
:100FC000A2630870E08F0138E087A06AB0F5005F87
:100FD0000CD12046012100222B4600F037FAD0BB6D
:100FE0002068C068ADF80000BDF800006068B0F58A
:100FF000827F0BD1A068B0F5004F02D0B0F5806FB2
:1010000004D12068016821F040010160012084F8CA
:1010100051003AE0606898B92046012100222B4631
:1010200000F014FA68BB2068A16BC06821F8020BBD
:10103000A163E08F0138E08702E06068002841D0BA
:10104000A06AB0F5005F10D12046012100222B4696
:1010500000F0FCF918B1606D40F0020010E020686B
:10106000C068ADF80200BDF80200204680210122D0
:101070002B46012600F0EAF928B1606D40F010001F
:1010800060650320F8BD84F85160A06AB0F5005F88
:1010900003D120688168C90603D4002084F8500079
:1010A000F8BD616D41F002016165016821F40051F4
:1010B0000160002184F85010016841F40051016082
:1010C0000120F8BD2046012100222B4600F0BEF988
:1010D0000028D6D1A16B20684A1CA2631FE7F8B58F
:1010E000044690F8510001280AD10120002900F09F
:1010F000A280002A00F09F8094F85000012801D1BE
:101100000220F8BD12201D46012384F85100002062
:10111000C4E90E0084F85030E286A2862163C4E957
:1011200012006065A36A2068B3F5005F07D1036809
:1011300023F400530360036843F400530360A3687F
:10114000B3F5004F03D1036843F4804303600368A1
:101150005B0603D4036843F0400303606368A2F1B5
:10116000010CE768B3FA83F34FEA5316BCFA8CF329
:101170004FEA531346EA0306DFB1BEB131F8022B42
:10118000C2606246A4F836C021630FE02046022107
:1011900000222B4600F05AF9E8BB216B206831F899
:1011A000022BC2602163E18E4A1EE2861104EDD15A
:1011B00017E03EB14B1C23630978C160511EE186E4
:1011C00009040ED02046022100222B4600F03EF9F1
:1011D00008BB216B20684A1C22630978C160E28E3B
:1011E000ECE7A16AB1F5005F03D1016841F48051D9
:1011F00001602046022100222B4600F027F930B979
:101200002046802101222B4600F020F928B1606D94
:1012100040F0100060650320F8BDA06828B9206880
:10122000C16800918068009000980020012184F836
:10123000500084F85110F8BD80B50748A449012238
:101240000A23FFF74CFF05484FF0805101604FF42F
:101250008051016080BD00BF840000201008014063
:10126000F8B59B480221174C0025174F4174C168FF
:101270008A6842F001028A6005744574A4F58060B2
:1012800041F6F111B84720464FF4C051B8470F4E10
:101290004FF44071306920F4001030612046B847A7
:1012A00030694FF4604120F4804030612046B847F7
:1012B0004FF0FF303060756030603560BDE8F84059
:1012C000FFF740BC000C0140150400080C10024060
:1012D00050490A68506940054FF000000BD553692A
:1012E00023F48063536104228A6381F83400202050
:1012F00081F8350001207047F0B5DFF860C8744E02
:1013000085B200F47F00DCF80040776881B1511CA1
:10131000B0F5803F0CBF6369A3692B40AB421FD17E
:101320000029F5D0A2B17368DB1B9342F0D90FE01E
:10133000511CB0F5803F0CBF6369A3692B40AB42E1
:101340000ED00029F5D01AB17368DB1B9342F0D997
:1013500000208CF8340020208CF835000320F0BDEC
:101360000020F0BD70B52B49594C83B200F47F00CA
:101370000A686568B0F5803F0CBF566996691E40E3
:101380009E420ED0566976050DD46668761B112EE6
:10139000F0D3002081F83400202081F835000320AC
:1013A00070BD002070BD106840F40070106050697E
:1013B00020F48060506104208863002081F83400AC
:1013C000202081F83500012070BD00BF10B5114903
:1013D0003F4A08685368446964060BD44469E406CC
:1013E0000AD45468E41A112CF5D3886B40F020021B
:1013F000032007E0002010BD426922F01002426184
:10140000012000228A63002281F83420202281F802
:10141000352010BD48000020B0B52D4C0022A2EBB5
:101420004005217801F0FD012170880701F0FD00E1
:1014300058BF41F002002070FFF7FEFEFEF794FE59
:1014400015B121780135F0E7B0BD00BFF0B5204DF2
:1014500004686E6862B15A1CA7680F408F422FD192
:10146000002AF9D083B16F68BF1B9F42F4D90BE00B
:101470005A1CA7680F408F4222D0002AF9D01BB116
:101480006F68BF1B9F42F4D9616821F0E001616081
:10149000216821F040012160816AB1F5005F07D128
:1014A000216821F400512160216841F4005121603C
:1014B000002180F85010012180F851100320F0BD68
:1014C0000020F0BD0248416801314160704700BF13
:1014D000000000200E480F4A016841F00101016040
:1014E000416811400C4A4160016811400160016887
:1014F00021F480210160416821F4FE0141604FF434
:101500001F01816005484FF000610160704700BF16
:10151000001002400000FFF8FFFFF6FE08ED00E0BB
:101520009748BFF34F8F054A016801F4E06111430A
:101530000160BFF34F8F00BFFDE700BF0400FA0555
:1015400086B08E498E4D4FF6FF048E4F08688B464D
:1015500040F0100008602868204038432860FFF7FA
:1015600015FB894E894A0221706940F001007061C3
:10157000706900F00100029002982868204038430A
:10158000834F286028680020E875106861F31A60AE
:101590001060306810F00C0F07D0306800F00C00BD
:1015A000082805D13068C00302D456F8040C0DE0B9
:1015B00001203860DFF88805416856F8042C92074E
:1015C00004D44268521A642AF7D93DE056F8040C54
:1015D00020F0F80046F8040C0120C7F88004DFF87A
:1015E00060054168326A920704D44268521A022A9E
:1015F000F8D929E00121029141684268029B521A00
:101600009A42FAD3316801F00C0108291CD000215C
:101610003966416856F8042C920104D54268521A82
:10162000022AF7D910E0316821F4741101F5601134
:10163000316001213966416856F8042C920103D4C7
:101640004268521A032AF7D3DBF8000010F0060FA5
:101650001BD0306820F0F000306056F8040C800198
:1016600056D53068022141F2883261F301003060C2
:10167000DFF8CC044168336803F00C03082B2ED04C
:1016800043685B1A9342F6D942E0DBF8000002217E
:101690005A4661F30200CBF80000DBF8000000F0CE
:1016A0000700022834D1306820F0F000306056F88E
:1016B000040C80012CD53068022141F2883261F39C
:1016C00001003060DFF878044168336803F00C03F0
:1016D000082B12D043685B1A9342F6D918E0DBF866
:1016E000000002215A4661F30200CBF80000DBF84B
:1016F000000000F0070002280AD13068042161F3DD
:101700000A203060306820F460503060FFF73EFA05
:10171000B069DFF82C4440F08050B061B06900F04F
:101720008050029002981B48016841F4807101606A
:1017300061680268D20504D46268521A642AF8D932
:101740002FE0F06900F44070B0F5007F29D0F06917
:101750000121C7F840140021C7F8401420F440715B
:101760008007F16118D5606841F28831F26992070B
:1017700012D46268121A8A42F8D912E0002002409C
:101780000CED00E00003FA050410024004000140E3
:101790000000424200700040F069022161F309201C
:1017A000F061FFF711FA4FF47A71B0FBF1F000210C
:1017B000421EE448B1EB126F05D14260F022EA7597
:1017C000072281600260026842F004020260DE4A81
:1017D0002868E975042140F6FF70C4E90521E0613D
:1017E000D068C00702D0D068800718D494F82100D0
:1017F00010B9002084F820000220042184F8210080
:1018000045F255501060506861F3020040F6FF71D8
:101810005060906808439060012084F821000BF527
:101820008050E060607C08B9002020744FF001090E
:10183000C64D0DF108084FF4C05A022784F81190E4
:101840004146706940F004007061706900F0040066
:1018500002900298706940F008007061706900F0B1
:10186000080002900298BA48286141F6F110C5F8C4
:1018700010A40597CDF80C9002902846FEF736FE8E
:1018800005F5806541460597CDE902A92846FEF792
:101890002DFEDBF81000000605D5AE48CBF804009D
:1018A000AD48CBF804003420AC4FCBF80C00DBF88B
:1018B000100040F08000CBF8100097F835000028A9
:1018C00040F0A680A048A64B00214FF48042396228
:1018D00000F51050C7E90003C7E90211C7E9042168
:1018E000C7E9061197F83520D2BB87F8341002A952
:1018F000706940F008007061706900F008000290A3
:101900000298706940F001007061706900F0010098
:101910000290029889488346006840F00200CBF8A4
:10192000000003200590122003904FF440700290B5
:101930002846FEF7DBFDB06940F40010B061B069E5
:1019400000F4001001900198B0698002FCD5F068A5
:1019500040F40010F060F06820F40010F060386887
:10196000242187F83510016821F001010160FFF79B
:101970002BF931687B4A7D4DC1F30221515C20FA7D
:1019800001F17948B1FBF0F3D7E90002AA424360C4
:101990000AD852000133B1FBF2F140F6FC72036247
:1019A000114208BF04211BE04FF496756B434FF4BE
:1019B0007A75B3FBF5F34FF4404501330362BB681E
:1019C000002B4FF0190308BF4FF4004508BF032355
:1019D0005A43B1FBF2F242EA0501120508BF0121A8
:1019E000C16107F10C05D7E90712114301602ECD43
:1019F0001143816045EA0301C160016841F00101C2
:101A0000016000202021B86387F8351087F8360080
:101A1000574800210A254FF482724FF40073C0E941
:101A20000811C0E90A15484D05F50065C0E90052E6
:101A3000C0E90211C0E90411C0E90631FFF7F8F866
:101A40004C4D4D4F08F102094FF4145A0DF10306A5
:101A5000207840F001002070FFF7EEFBFEF784FBDA
:101A60004FF47A704FF47A71FEF710FE00285CD1C3
:101A700040460221ADF808A0FEF7B4FF3046012130
:101A8000FEF792FEFFF75EF89DF803004E2824D083
:101A9000572802D04F282ED13CE04FF404500221A9
:101AA000BB46ADF808004046FEF79CFF48460421BF
:101AB000FEF77AFEDDF80A704E20FEF769FB3FBAAA
:101AC000781EB0F5504F32D2FEF720FC4FF4641070
:101AD0003946FEF76FFB5F460DE00320FFF79CFCE5
:101AE000FEF714FC4FF496004FF45041FEF762FBF2
:101AF0004F20FEF74DFB28683840B0F1005FA7D1BA
:101B0000FFF7AEFB6868A060286880F30888A068CB
:101B100080479DE75720FEF73BFB207800F0FE0052
:101B200020700120FFF778FCFBE7012000E0022095
:101B3000FFF772FCFFF794FBFFF744F80400014045
:101B40000000002010E000E00030004000080140EC
:101B50000000F11923016745AB89EFCD4800002053
:101B6000801A06009A1B000840420F00A086010060
:101B700084000020003000080000FE2F02E008C8AA
:101B8000121F08C1002AFAD170477047002001E0F7
:101B900001C1121F002AFBD17047000000000102A2
:101BA00003040102030406070809000010200008CE
:101BB00000000020E02000008C1B00080000000056
:101BC0000000000000000000000000000000000015
:101BD0000000000000000000000000000000000005
:101BE00000000000000000000000000000000000F5
:101BF00000000000000000000000000000000000E5
:10200000000000000000000007102025000000086C
:04000005080000ED02
:00000001FF
