:020000040000FA
:20000000687A0320DD010108991E0208FDF90108911E0208871601086D62020800000000FC
:20002000000000000000000000000000EF010108F51F010800000000F3010108D953020877
:20004000F7010108F7010108F7010108F7010108F7010108F7010108F7010108F701010898
:20006000F7010108F7010108F7010108F7010108F7010108F7010108F7010108F701010878
:20008000F7010108F7010108F7010108F7010108F7010108F7010108F7010108F701010858
:2000A000F7010108F7010108F7010108F7010108F7010108F7010108F7010108F701010838
:2000C000F7010108F7010108F7010108F70101084D4602084D6202085D620208F7010108FC
:2000E000F7010108F7010108F7010108F7010108F7010108F7010108F7010108F7010108F8
:20010000F7010108F7010108F7010108F7010108F7010108F7010108F7010108F7010108D7
:20012000F7010108F7010108F7010108F7010108F7010108F7010108F7010108F7010108B7
:20014000F7010108F7010108F7010108F7010108F7010108F7010108F7010108F701010897
:20016000F7010108F7010108F7010108F7010108F7010108F7010108F70101080000000078
:20018000F7010108F7010108F7010108F7010108F7010108F7010108F7010108F701010857
:2001A000FD120208F701010865640108F7010108713B0208F7010108F7010108F701010899
:2001C000F7010108F7010108DFF80CD000F00EFB0048004759360308687A0320064880472E
:2001E00006480047FEE7FEE7FEE7FEE7FEE7FEE7FEE7FEE7FEE7FEE735550208C901010811
:2002000010B5441A0346944209D28418114403E011F8013D04F8013D521EF9D210BD40EA3A
:200220000104A40703D009E010C9121F10C3042AFAD203E011F8014B03F8014B521EF9D2C1
:2002400010BDD2B201E000F8012B491EFBD270470022F6E710B513460A4604461946FFF751
:20026000F0FF204610BD421C10F8011B0029FBD1801A704730B504460020034600E05B1CA5
:20028000934203D2E05CCD5C401BF8D030BD034611F8012B00F8012B002AF9D11846704794
:2002A0002DE9FE4F804681EA0300C00F0C46009021F0004123F00045B8EB0200A94105D2E6
:2002C0004046214690461C460B46024623F00040104347D0270DC7F30A00C3F30A51029008
:2002E000401A019040286BDAC3F3130040F4801B0098924620B10023D2EB030A63EB0B0B3C
:2003000001985946C0F14002504600F0A9F906460D4650465946019A00F0C1F910EB08006E
:200320006141002487EA115284EAE7731A4340D0009A62B3019A012A4FEA075215DC001BDB
:2003400061EB02014FF0004202EA0752CDE90042001C41F5801132462B4600F0F8F903B030
:20036000BDE8F08F40462146F9E7001B61EB0201001C41F5801300185B412018A2F50017A3
:2003800047EB030140EAD570B6196D4111E06D084FEA360645EAC0754FEA0752001B61EB03
:2003A0000201001C41F5801149084FEA30000019514132462B4603B0BDE8F04F00F0B8B911
:2003C0000098012240000023D0EB020263EBE073009821464FEAE074B8EB000061EB04011F
:2003E000E9E783F000435BE781F0004158E72DE9FE4F81EA030404F0004421F00041009451
:200400004FF0000B23F0004350EA01045ED052EA03045BD0C3F30A54C1F30A552C44A4F234
:20042000F3340194A0FB0254C1F3130141F48011C3F3130343F4801301FB024400FB034E5D
:20044000840A970A44EA815447EA8357A4FB076802958D0A05FB07854FEA932C04FB0C5440
:200460002705029D4FEA065847EA1637B5EB08056EEB070C870E920E47EA811742EA8312C4
:20048000A7FB0201B6EB0B0164EB00042B0D43EA0C335E1844EB1C50DA465146E7FB020166
:2004A000C5F313044FEA0B3343EA14534FEA0432019C43EA0603A4F10C040294009CCDE993
:2004C00000B400F044F903B0BDE8F08F00200146F9E72DE9F04D81EA030404F0004B21F008
:2004E000004514464FF0000A23F0004150EA050220D054EA01021DD0C5F30A570246C5F348
:200500001303C1F31300C1F30A5640F4801543F48013A7EB0608101BD64608F2FD3873EBE3
:20052000050002D308F1010801E092185B41B8F1000F03DA00200146BDE8F08D00204FF437
:200540008011064684460EE0171B73EB050705D3121B63EB050306434CEA010C49084FEAF9
:20056000300092185B4150EA0107EDD152EA030012D082EA040083EA0501084305D0101BB6
:20058000AB4106D20122002306E000224FF0004302E06FF0010253101AEB06004CEB085185
:2005A00010EB0A0041EB0B01BDE8F04D00F0C0B80EB5C10F80EAE0700844CA07002140F2F7
:2005C00033438DE80E000A460B4600F0C0F803B000BD00F0004230F000400AD0C10D01F539
:2005E0006071C0F3160042EA0151C20840071143704700200146704730B5041E71F100043C
:2006000004DB4FF00044404264EB0101141E73F1000405DB1C464FF00043524263EB04035E
:200620008B4208BF824230BD01F0004330B421F0004150EA010206D00A0DA2F56072C1F3C4
:200640001301002A02DC30BC00207047440F44EAC104C100E01830BC00EBC25000F031B8FA
:20066000202A04DB203A00FA02F1002070479140C2F1200320FA03F3194390407047202A4F
:2006800004DB203A21FA02F00021704721FA02F3D040C2F120029140084319467047202ACB
:2006A00006DBCB17203A41FA02F043EAE07306E041FA02F3D040C2F12002914008431946FA
:2006C00070470029A8BF7047401C490008BF20F00100704710B4B0FA80FC00FA0CF050EACE
:2006E000010404BF10BC704749B1CCF1200421FA04F411FA0CF118BF012121430843A3EB83
:200700000C01CB1D4FEA00614FEA102042BF002010BC704700EBC35010440029A4BF10BC93
:200720007047401C490008BF20F0010010BC704710B5141E73F1000408DA401C41F1000132
:2007400092185B411A4301D120F0010010BD2DE9F04D92469B4611B1B1FA81F202E0B0FACE
:2007600080F220329046FFF77BFF04460F4640EA0A0041EA0B0153465A46084313D01146A7
:2007800053EA010019D0C8F140025046FFF777FF05460E46504659464246FFF761FF084338
:2007A00005D0012004E020463946BDE8F08D0020054346EAE0762C4337430A986305E40A89
:2007C000A0EB08000022FD0A44EA47540A3002D500200146E9E7010510196941DDE9084560
:2007E00000196941BDE8F04DA2E70000064C074D06E0E06840F0010394E80700984710341D
:20080000AC42F6D3FFF7E4FC90060608C006060870B58C1810F8015B15F0070301D110F8BD
:20082000013B2A1106D110F8012B03E010F8016B01F8016B5B1EF9D12B0705D40023521E99
:200840000DD401F8013BFAE710F8013BCB1A921C03E013F8015B01F8015B521EF9D5A1420A
:20086000D8D3002070BD00001FB56048006820B90BF01AF95D49086027E05D48006800F0A3
:20088000020010B30BF010F958490968401A42F23D21884219D35648006820F00200544926
:2008A00008600846006840F008000860514800685149086000204F490860504908705048AE
:2008C000006840F001004E4908600BF0EDF84D490968401AEA2800D21FBD0BF0E5F8494915
:2008E00008600120019002900B200090694646480AF01EF944480AF0AFFA0A2142480AF065
:200900004DFA41480AF010FA4049414A126821F812003F480068401C3D490860092801D906
:20092000002008600024002005E0384931F810100C44411CC8B20A28F7DB0A20B4FBF0F454
:20094000642C02D3B4F57A6F19D92D48008800F4007050B12648006800F0020028B9264835
:20096000006840F04000244908602548006820F400702349086000202649088033E020480B
:20098000006840F400701E490860A0B213F02AFB214880ED000A90ED000AF2EE040A20EE9F
:2009A000200ABDEEC00A10EE100A00B21B4908800846B0F900001A4991F900100844154944
:2009C000B1F9001088420ED014480088144991F90010084400B20F4908800948006840F013
:2009E00080000749086000BF76E70000B402012098020120A0020120280201202C020120B4
:200A000024020120B8020120F8720120B0760120BC02012036020120C0020120380201206C
:200A20003A0201205749096821F44031564AC2F804131146D1F8041342681143514A116010
:200A40000168496821F480710268516001684A68016942EA0121026851600168496821F042
:200A60004071026851600168496882681143026851600168896821F40061026891600168A3
:200A80008968C268114302689160404A816A914218D00168896821F070610268916001685C
:200AA0008968826A1143026891600168896821F040510268916001688968C26A114302680F
:200AC00091600BE00168896821F07061026891600168896821F040510268916001688968F2
:200AE00021F002010268916001688A68816942EA410102689160016AA1B10168496841F46D
:200B00000061026851600168496821F460410268516001684A68416A491E42EA4131026839
:200B2000516005E00168496821F40061026851600168C96A21F470010268D1620168CA6A18
:200B4000818B491E42EA01510268D1620168896821F400710268916001688A68016B42EAD9
:200B60004121026891600168896821F480610268916001688A68416942EA812102689160DF
:200B80007047000004230140002001400100000F38B50446002000900120214908601020BB
:200BA0004860012088600020C8604FF6FF721D480EF07AF801200AF0D1FC022018490860DE
:200BC00010204860012088600020C8604FF6FF7214480EF069F803201149086010204860BE
:200BE000082088600020C8604FF6FF720D480EF05BF84FF4087000900420094908601020E8
:200C00004860012088600098C8604FF6FF7205480EF04AF8214603480EF032F838BD000051
:200C200048090120F808012030B587B004460D4600BF7A48006840F00100784908600846D7
:200C4000006800F00100019000BF00BF00BF73480838006840F480007049083908600846A6
:200C6000006800F48000019000BF00BF00BF0846006840F0010008600846006800F00100D4
:200C8000019000BF00BF00BF0846006840F0040008600846006800F00400019000BF00BF7B
:200CA00000BF0846006840F0080008600846006800F00800019000BF00BF00BF08460068ED
:200CC00040F0100008600846006800F01000019000BF00BF00BF0846006840F0200008607A
:200CE0000846006800F02000019000BF00BF00BF0846006840F0400008600846006800F02C
:200D00004000019000BF00BF4FF63F0002900220039000200490032005900C20069002A9E0
:200D20003F480AF0AFFD802002900220039000200490032005900C20069002A939480AF04B
:200D4000A1FD302002900220039000200490032005900C20069002A933480AF093FD48F246
:200D6000331002900220039000200490032005900C20069002A92D480AF084FD4FF68370E8
:200D800002900220039000200490032005900C20069002A926480AF075FD4CF20370029016
:200DA0000220039000200490032005900C20069002A920480AF066FD00201F49486080210F
:200DC0001D4881608900C1604900016189004161890081610021C1614FF4003101620021A7
:200DE0004162032181620021C162016313481249086000BF08462063846300BF0AF0E4FA75
:200E00000D480AF013FB00220F2138200BF054FF38200BF03DFF07B030BD00003838024098
:200E20000014024000000240000802400018024000100240000C024058090120106402409E
:200E40002DE9F0418CB005464FF000086148006801696148007888472870287800287DD065
:200E60000024AEE0684600EB440203A800EB44015848006843695848007898475748007844
:200E800001280AD103A830F8140009A921F814003DF8140006A921F814005048007800F063
:200EA000020038B103A830F81400C0F5805009A921F814004948007800F0040030B13DF8E9
:200EC0001400C0F5805006A921F814004348007800F0080050B103A830F8140006A921F8F2
:200EE00014003DF8140009A921F8140009A830F814003B4951F82410884207D909A830F845
:200F00001400374951F82410401A06E0344850F8240009A931F81410401A86B206A830F831
:200F20001400304951F82410884207D906A830F814002C4951F82410401A06E0294850F828
:200F4000240006A931F81410401A87B2F01905280DDD09A830F81400214900E035E041F839
:200F6000240006A830F814001E4941F824001A48007870280DD109A830F81410A81C20F876
:200F8000141006A830F8141005F10C0020F8141016E0134850F82400134909884843C0F30D
:200FA0000F31A81C20F814100E4850F824000F4909884843C0F30F3105F10C0020F814108A
:200FC000641C2878A0423FF64DAF40460CB0BDE8F0810000340001203D0001203C00012076
:200FE0002008012034080120380001203A00012038B5456804460146284615F057F9002881
:201000002BD02068304A11280DD006DC0B2825D00E2833D00F2852D112E0282849D0B0F520
:20102000107F4CD108E09268002A16D02146284601B0BDE830401047526821462846F7E7B3
:20104000284606F0C5FB0090406E0468684606F015FC002C01D02846A04738BD284606F062
:20106000B7FB0090683006F00DFB009803216C3006F010FB684606F001FC20E0E068D0E99D
:2010800000100D2902D0202913D105E0002810DD28461EF0CEF806E0002804DD2846BDE8CD
:2010A00038401EF0C6B82846BDE8384002211EF0D6B8E06818B90021284600F074F9204677
:2010C000BDE8384015F0B4BB6004012070B586B00024DDE90A560494CDE90245CDE90046C4
:2010E00000F002F806B070BDF0B585B00C46DFF858C0DDE90D51DDE90A674C31CDE902C1B7
:20110000CDE90067214615F0E3FA040018D006F05FFB10222946049015F04EFA04983022BD
:201120000A493430FFF76CF8084D04990C3D2868486604A806F0A2FB286841682046884778
:2011400005B02046F0BD0000F10F01086C040120F0B504468B4A89B0D4E90101002852F8FF
:2011600021507DD0052804D006287AD0122879D1AEE0E869F0B395E80E008DE80F0004F12E
:2011800010010FC909F022F85FF0000655F8260008F034F9E869A269D4E90413121A0144C5
:2011A000981907F091F8D4E90623E8692169121A0144981B07F088F8E869D4E90431E26914
:2011C000121A0144981907F003F9E869E269D4E90513121A0144981B07F0FAF8761C022EBA
:2011E000D4DBA86808F00AF9E96920696669E369421800E012E05B1A801C521E314407F026
:201200002FF9D4E90623E9696669501A5B1A401C921E314407F024F9EE6912E05FF000068D
:2012200055F8260008F0EAF804F110000FC89B1B921B3144304407F08DF8761C022EEFDB31
:201240000226D5E90301CDE9000104F110000FC80B44921B5B10891C304407F001F802E0BF
:2012600089E012E08AE0D5E90501CDE90001D4E90405D4E906230121921BEC189B1E01EB0A
:201280006401304406F0ECFF78E0206806F0A0FA0490206816F0ACFB40B1A06808B1002089
:2012A00008E00498006F28B1012003E00498406F00B10220049901EB8000C56E04A806F062
:2012C000DDFA002321681A46284606F09FFD55E0206806F07DFA0490866EEEB3A168B0F926
:2012E0005C40D1B3032942D05FF0000100EB8101406D0F6C08F090F8384608F07FF805A891
:2013000007F0AEF9BDF81410A88B0144ADF81410BDF81810081AADF81800BDF81600801CF2
:20132000ADF81600BDF81A00801EADF81A000498B0F96020B0F95E1005A807F079FE04A823
:2013400006F09CFA022008F0C7F8304606F040FA05A92246079001E00BE006E006F058FED7
:201360000DF11C0006F08AFA08E00121BEE70221BCE704A8F6E7206816F04CF809B0002030
:20138000F0BD00002C05060838B54FF0000440B106F01EFA0090408EC0F30024684606F059
:2013A0006DFA204638BD00294FF4807101D015F015B814F05FBF2DE9FF4105000E464FF05B
:2013C00001041DD006F004FA0190876E01A8009706F054FA3146684609F02CFA80B1009810
:2013E0004FF00004B84208D0284606F0F1F900990190816601A806F041FA284615F00BFE23
:2014000004B02046BDE8F08110B59248006800F00100002873D090480078052870D2DFE8B3
:2014200000F003D60D4E930000208C4908608948006820F0010087490860F5E00AF034FB18
:2014400087490968884239D984480068A8B90AF02BFB84490968884230D90122102182488B
:201460000AF01CFB0AF020FB64307D4908607B480068401C7949086020E078480068012882
:201480001CD10022102178480AF008FB0020734908607648007828B90AF006FB64307049AC
:2014A00008600BE00AF000FB7049097801EB4102C2EBC11100EB81006A490860B4E00AF0E7
:2014C000F3FA6749096888423DD964480068C0B90AF0EAFA63490968884234D9012210216B
:2014E00061480AF0DBFA0AF0DFFA00F5FA705C4908605A480068401C5849086023E094E04F
:201500008BE05648006801281DD10022102156480AF0C4FA0020514908605448007830B97B
:201520000AF0C2FA00F5FA704D4908600BE00AF0BBFA4E49097801EB4102C2EBC11100EB4D
:201540008100484908606FE00AF0AEFA4449096888423BD941480068B0B90AF0A5FA4149C7
:201560000968884232D9012210213F480AF096FA3A480068401C394908600AF095FA00F512
:201580007A703749086021E03448006801281DD10022102134480AF081FA00202F49086039
:2015A0003248007830B90AF07FFA00F57A702C4908600BE00AF078FA2C49097801EB4102A5
:2015C000C2EBC11100EB8100264908602CE02348006878B90122102123480AF05FFA0AF02D
:2015E00063FA14301E4908601C480068401C1B49086011E01948006801280DD10AF054FA7E
:2016000017490968884207D90022102116480AF045FA00201049087006E00E48006820F0C0
:2016200001000C49086000BF12E000200D4908600B4908600748006820F001000549086023
:201640000020064908600022102107480AF026FA10BD000098020120A4020120D0020120B5
:20166000CC020120C8020120000C0240A5020120014600BF080900EB8000420001F00F00B6
:201680001044C0B2704710B512F02EFF10BD000010B55748006820F0050055490860002005
:2016A000091D08605348091D08605348091D086005204F49086000BFBFF34F8FBFF36F8F26
:2016C00000204E490860BFF34F8FBFF36F8F00BF47488038006840F48020454980390860BA
:2016E000BFF34F8F00BF0846006800F4003000B117E0BFF34F8FBFF36F8F00203F490860C9
:20170000BFF34F8FBFF36F8F39488038006840F40030374980390860BFF34F8FBFF36F8FA3
:2017200000BF00BF0023324C103C2360BFF34F8F231F1868C0F34E3100BF00BFC0F3C9023B
:2017400000BF43F6E07303EA41134FF0404404EA82742343294C1034236000BF00BF131E05
:20176000A2F10102EDD10B1EA1F10101E6D1BFF34F8FBFF36F8F00BF00BF1D4B803B1B683D
:2017800003F4803303B132E00023194C103C2360BFF34F8F231F1868C0F34E3100BFC0F38C
:2017A000C90200BF43F6E07303EA41134FF0404404EA82742343114C1034236000BF00BF23
:2017C000131EA2F10102EDD10B1EA1F10101E6D1BFF34F8F064B803B1B6843F48033044CB7
:2017E000803C2360BFF34F8FBFF36F8F00BF10BD94ED00E0100001203D00020350EF00E0EB
:20180000F8B5446805460146204614F04FFD002837D028680B283AD00E2805D00F2822D0F7
:20182000B0F5107F3DD12DE0204605F0D1FF009090F8746090F87570684606F01FF82046B4
:2018400016F0D6F810B3E8684168002929DD0068202826D17F1CB7FBF6F006FB1071204607
:2018600000F012F91DE02546204605F0B1FF0090006F0468684606F001F8002C01D0284687
:20188000A047F8BD294620461DF05AFE09E0204605F09EFF0090783005F0F4FE684605F0CF
:2018A000EDFF2846BDE8F84014F0C2BFF0B585B00AAC94E8E00000240494CDE90246CDE910
:2018C000005700F003F805B0F0BD00002DE9F04F85B0284C16001D468A468346DDE90E97E9
:2018E000DDF8488001D035B10AE020688068006880470646F7E720688068006880470546F7
:201900001C486FF07041001DC068884201D147F00107194A08F154002B465146CDE900972E
:20192000CDE902203246584614F0D2FE05001CD005F04EFF11991022049014F03DFE0D49AD
:201940003C220498091D3430FEF75AFC0498022123680F22036780F87410C26704A805F00D
:201960008DFF206841682846884705B02846BDE8F08F00009C040120011801082DE9FF47E7
:201980000446006810B116F033F868B10022314960680A2851F8221041D007DCF0B30628B4
:2019A0000DD0072854D106E00122F0E712280AD019284DD137E0204617F0C6FE48E02046CD
:2019C00019F0C0FC44E0206805F002FF0290B0F9548090F85650476C466B02A805F04EFF13
:2019E000206800F039F88146684615F007F8BDF8001009EB05000844ADF80000246A304612
:201A000007F00AFD022007F067FD384607F0F6FC42466946204606F0FBFA19E007E0204616
:201A20001AF0BBF814E0886904B0BDE8F087206815F0F0FC206805F0CBFE0390B0F9061023
:201A4000B0F90220891A491CC16703A805F016FF0020E9E7A405060838B505F0B9FE009006
:201A6000C46F684605F00AFF204638BD38B54FF0000438B105F0ACFE009090F875406846F9
:201A800005F0FCFE204638BD38B505000C4612D005F09EFE009090F87410A1420CD980F869
:201AA0007540684605F0EAFE284615F0B4FA0521284615F023FB38BD684605F0DFFE38BDA4
:201AC000FEB504000D461ED0002D1CD005F080FE0190866F01A8009605F0D0FE29466846DD
:201AE00008F0A8FE00280ED00098B04208D0204605F06EFE00990190816701A805F0BEFEAD
:201B0000204615F088FAFEBD38B505000C460CD005F05EFE0090416CA14203D044642846A3
:201B200015F079FA684605F0A9FE38BD00B589B024216846FEF78CFB192001900348006814
:201B4000806841686846884709B000BD9C0401207CB5224C05462168488CB1F84C20104490
:201B60004884888CB1F8502010448884284606F067FD2168498CADF800104618284608F06D
:201B8000C9FC3044401EADF8040006F08FFD2168898CADF802100844401EADF8060068462B
:201BA00015F0CAFD04E0284605F012FB15F086FD0028F8D10A2D04D02168BDF80400401CE3
:201BC00048842068418CB0F84C20891A4184818CB0F85020891A81847CBD00004C030120F2
:201BE000024603E012F8010B044B1860081EA1F10101F7D101480068704700000030024081
:201C000030B503460C46002100BF0BE04800401C34F810004D0034F8155040EA05401D68C7
:201C20002860491CB1EB520FF0D302F0010020B1480034F810001D6828801868006830BDAD
:201C400030B504460B46002100BF13E013F8210005068800401C185C45EA00458800801C0A
:201C6000185C45EA00208D00ED1C5D5D284325682860491CB1EB920FE8D302F0030030B39C
:201C800002F00300012803D113F821002568287002F00300022808D18800401C185C13F8A6
:201CA000215040EA05202568288002F0030003280DD18800401C185C13F8215040EA05200E
:201CC000256828808800801C185C256828702068006830BD012001498860704700300240B9
:201CE00010B52148006820F008001F4908600846006820F0040008600846006820F010005E
:201D000008601A48006820F40020184908601848006814F0C1FD1748006814F0BDFD164827
:201D2000006814F0B9FD1548006814F0B5FD1448006814F0B1FD1348006814F0ADFD1248C5
:201D4000006814F0A9FD1148006814F0A5FD1048006814F0A1FD0F48006814F09DFD0E48F5
:201D6000006814F099FD10BD7C02012024020120E0000120E8000120F0000120F40001207E
:201D8000F8000120FC00012048010120080101200C010120040101200001012010B52048D6
:201DA000006814F079FD1F48006814F075FD1E48006814F071FD1D48006814F06DFD1C481D
:201DC000006814F069FD1B48006814F065FD1A48006814F061FD1948006814F05DFD18484D
:201DE000006814F059FD1748006814F055FD1648006814F051FD1548006814F04DFD14487D
:201E0000006814F049FD1348006814F045FD1248006814F041FD1148006814F03DFD10BD37
:201E2000E0000120E800012010010120140101204001012044010120180101201C010120F0
:201E4000200101202C0101203001012034010120380101203C010120240101202801012002
:201E600010B50446012C0AD11348007838B901201149087009F018FE104908601AE0012C9D
:201E800010D10D48007801280CD109F00DFE0B490968401AB0F5875F0CD900200649087014
:201EA000012010BD34B904480078012802D10020014908700020F4E772020120740201207E
:201EC00010B506F047FC094807F0F0F8012015F003F907F049FC00200549087005480068DB
:201EE00040F480300349086010BD0000913002082C0201202402012000B5A1B07C202090CA
:201F000080220021684621F002FC20AA8021684604F09EFE002007F057FA6FF07F4007F01B
:201F20006BFA05F06AFE012007F04EFA05F065FE00231A460421684607F0F0F80849086039
:201F4000012006F0A3FF282232210548006807F0B5F9012007F00CF8002021B000BD000007
:201F60004C01012010B51748008800F40040A0B11448008800F4005078B11348007800F0AE
:201F8000200020B91048007800F0100028B10D48006840F001000B4908600A48006820F427
:201FA0000040084908600846006820F48040086009F07AFD054908600548007800F00AF859
:201FC00010BD000024020120280201205002012035020120052801D2052002E0502800D97F
:201FE000502000EB80014900014A12685163704740730120704700221FF0C6BF70477047DD
:20200000F8490500E79E6853300920310000010800B585B0CE48006840F00400CC4908608E
:20202000CC48006840F40020CA490860002007F0CBF905F0E2FD012007F0C6F94FF07F40D1
:2020400007F0DAF905F0D9FD012006F01FFF6FF07F4007F0D3F9C04807F0DEF90C2007F0DC
:2020600031FA04210A2006F06DFBBCA005F044FFBE2205210C2006F027F928200F2140F6FE
:202080002A020223CDE90132CDE90310002028236E22142100900A2012F0DCFBB349086016
:2020A0000221B248006812F0FEFCB1480178AF48006812F022FD1E21822006F043FBADA04B
:2020C00005F01AFF2A21822006F03CFBACA005F013FF3621822006F035FBACA005F00CFF1A
:2020E00028200F2140F62B020223CDE90132CDE90310002028236E22502100900A2012F006
:20210000A9FBA54908600221A348006812F0CBFCA2480178A048006812F0EFFC50218220D3
:2021200006F010FB9EA005F0E7FE5C21822006F009FB93A005F0E0FE6821822006F002FB49
:2021400092A005F0D9FE8C210A2006F0FBFA97A005F0D2FEBE220521962006F0B5F86420E0
:20216000414240F621020223CDE90132CDE90310002028236E22A02100900A2012F06AFBCF
:202180008E49086002218D48006812F08CFC8C4890F900108948006812F0AFFCAA21822056
:2021A00006F0D0FA87A005F0A7FEB621822006F0C9FA86A005F0A0FEC221822006F0C2FA7C
:2021C00084A005F099FE0421D22006F0BBFA85A005F092FE4FF4EB72CD210C2006F074F8C7
:2021E00010204FF4066100220223CDE9013228230092CDE903106E221421D22004F0BBFACF
:202200008349086083498248006804F001FC022040F60A0128233222CDE900105021D22070
:20222000FEF754FF7C4908607CA17B480068FFF7C2F8022040F6090128233222CDE900106A
:2022400050214FF48770FEF741FF7549086075A173480068FFF7AFF88C21D22006F072FAA1
:2022600071A005F049FE4FF4AF72CD21962006F02BF80920012140F625020223CDE901323A
:20228000CDE90310002028236E22A0210090D22012F0E0FA6A49086002216948006812F002
:2022A00002FC684801786648006812F026FC022040F6070128236422CDE9001014214FF44E
:2022C000B970FEF703FF6049086060A15E480068FFF771F8022040F6080128236422CDE977
:2022E000001050214FF4B970FEF7F0FE5B4908605BA15A480068FFF75EF8022040F6050152
:2023000028236422CDE90010A0214FF4B970FEF7DDFE5649086056A154480068FFF74BF8EE
:20232000022040F6030128236422CDE90010DC214FF4B970FEF7CAFE4F4908604FA14E48FE
:202340000068FFF738F8012006F012FE05B000BD7C02012024020120F46E040853455450C6
:202360004F494E54204C494D49545300080101203F0201204D41582E205553455200000032
:20238000534554504F494E540000000054454D502E2078312A4300000C0101203E0201209E
:2023A0004D494E2E2055534552000000524F4F4D204E5443204F4646534554000001012061
:2023C0003A02012053454E534F5200004F4646534554000054454D502E2078302E312A4307
:2023E000000000004144442F52454D4F564520524144494F2053454E534F5220544F204368
:202400004F4E46494755524154494F4E0000000048010120E0820408FC000120444E2D0073
:20242000F800012055502B004F4E455749524520494E5445524641434520414444522E0080
:20244000040101208F000120F000012044454C4554452053454E534F52000000F4000120D3
:202460004144442053454E534F520000E80001204E45585400000000E00001204F4B0000B6
:2024800010B586B0002006F09FFF05F0B6FB012006F09AFF4FF07F4006F0AEFF05F0ADFBF9
:2024A000012006F0F3FC0122FD49FE480CF0E8F90122FD49FB480CF0BDF95A20012140F65A
:2024C0002E020223CDE90132CDE9031000201E235A22142100900A2012F0BCF9F3490860CE
:2024E0000221F248006812F0DEFAF1480178EF48006812F002FB5A20012140F62F020223C5
:20250000CDE90132CDE9031000201E235A223C2100900A2012F09EF9E64908600221E54895
:20252000006812F0C0FAE4480178E248006812F0E4FAF02001214FF403620223CDE9013278
:20254000CDE9031000201E235A22822100900A2012F080F9D94908600221D848006812F0C6
:20256000A2FAD7480178D548006812F0C6FA1720002140F631020223CDE90221CDE9001358
:2025800004901E235A22AA210A2012F063F9CD4908600221CB48006812F085FACA4801786F
:2025A000C848006812F0A9FA1720002140F632020223CDE90221CDE9001304901E235A2224
:2025C000D2210A2012F046F9C04908600221BF48006812F068FABE480178BC48006812F049
:2025E0008CFA1720002140F635020223CDE90221CDE9001304901E235A221421BE2012F063
:2026000029F9B44908600221B248006812F04BFAA3490878FFF72CF804462146AD480068D3
:2026200012F06BFA3B20002140F636020223CDE90221CDE9001304901E235A223C21BE20F6
:2026400012F008F9A44908600221A348006812F02AFA93494878FFF70BF8044621469E485A
:20266000006812F04AFA1F20012140F687020223CDE90132CDE9031000201E235A22822135
:202680000090BE2012F0E6F89449086002219348006812F008FA84498878FEF7E9FF044649
:2026A00021468E48006812F028FA0C20012140F638020223CDE90132CDE9031000201E235B
:2026C0005A22AA210090BE2012F0C4F88449086002218348006812F0E6F973494878FEF7AA
:2026E000C7FF044621467E48006812F006FA40F633004FF4FA61821D0223CDE90132CDE9C9
:20270000031000201E235A22D2210090BE2012F0A1F87449086002217248006812F0C3F9A5
:202720006149C878FEF7A4FF00F5FA6421466D48006812F0E2F91C20012140F63302022375
:20274000CDE90132CDE9031000201E235A22142100904FF4AA7012F07DF86349086002211A
:202760006148006812F09FF9604801785E48006812F0C3F91C20012140F634020223CDE91C
:202780000132CDE9031000201E235A223C2100904FF4AA7012F05EF85549086002215448F9
:2027A000006812F080F9534801785148006812F0A4F9022040F6540100221423CDE90021A5
:2027C00002905A226E214FF4AA70FFF76FF84A4908604FF47F4148480068FFF795F947A140
:2027E00045480068FFF76CF94748007800F0100028B1012140480068FFF746F904E000215D
:202800003D480068FFF740F9022040F6550100221423CDE9002102905A228C214FF4AA70A6
:20282000FFF744F8394908604FF47F4137480068FFF76AF936A135480068FFF741F93248D3
:20284000007800F0200028B1012130480068FFF71BF904E000212D480068FFF715F9022003
:2028600040F605011E235022CDE90010B4214FF4C370FEF72BFC2949086029A127480068C1
:20288000FEF799FD022040F603011E235022CDE90010E6214FF4C370FEF718FC224945E0C2
:2028A0009C720120B47201209402012010010120350201201401012034020120180101209A
:2028C000310201201C0101202F02012020010120300201202C010120300101203401012089
:2028E000380101203C010120240101203202012028010120330201204001012046554C4C50
:2029000020434C4F434B000028020120440101204C4F474F20434C4F434B0000E8000120B4
:202920004E45585400000000E0000120086075A175480068FEF73FFD7449754A127851F834
:20294000220006F05BFD3B234FF4D77233214FF4AA7005F085FD6D496E4A127851F8220092
:2029600006F04CFD63234FF4D7725B214FF4AA7005F076FD6FF07F4006F040FD664806F0D0
:202980004BFD0C2006F09EFDA02205210F2005F09BFC05210A2005F0D5FE60A005F0ACFADC
:2029A00023216E2005F0CEFE61A005F0A5FA4B216E2005F0C7FE60A005F09EFA4FF4A07259
:2029C000B9210F2005F080FC0521BE2005F0BAFE5AA005F091FA23214FF4917005F0B2FE25
:2029E00059A005F089FA4B214FF4917005F0AAFE57A005F081FA40F2DB1240F24F110F20D2
:202A000005F062FC05214FF4AA7005F09BFE52A005F072FA1A214FF4DC7005F093FE51A0BE
:202A200005F06AFA26214FF4DC7005F08BFE4FA005F062FA42214FF4DC7005F083FE4DA054
:202A400005F05AFA4E214FF4DC7005F07BFE47A005F052FAA02205217D2005F035FC73215A
:202A60000A2005F06FFE45A005F046FA91216E2005F068FE46A005F03FFAB0216E2005F0AD
:202A800061FE45A005F038FABC216E2005F05AFE2DA005F031FAD8216E2005F053FE40A079
:202AA00005F02AFAE4216E2005F04CFE26A005F023FA4FF4A072B9217D2005F005FC7321FD
:202AC000BE2005F03FFE38A005F016FA9121480005F038FE37A005F00FFAB9214FF49170F1
:202AE00005F030FE34A005F007FAE1214FF4917005F028FE32A005F0FFF9012006F038FA80
:202B000006B010BD4F4B0000E0000120B40101203202012033020120F46E04084449535078
:202B20004C4159204241434B4C4947485400000048494748000000004C4F570053455420E8
:202B400054494D4500000000484F5552000000004D494E555445000053455420434F4C4FFD
:202B60005200000046554C4C00000000434C4F434B0000004C4F474F000000005343524506
:202B8000454E5341564552204F5054494F4E000054494D454F555400454E41424C4500005A
:202BA00044495341424C4500534554204441544500000000444159004D4F4E544800000093
:202BC00059454152000000007FB5044696214FF4C87005F0B7FDFF2006F010FCF74806F015
:202BE0001BFC022006F078FC0E2006F06BFC10220021684620F08BFD0222F14968460CF006
:202C000001FF3A208DF802000222ED49491C0DF103000CF0F7FE684605F06EF9B9214FF4FB
:202C2000C87005F08FFD6FF07F4006F0E7FBE54806F0F2FB022006F04FFC0E2006F042FC10
:202C4000E148007810B90720DF490870DE480078012803D1DDA005F04FF92EE0DA48007846
:202C6000022803D1DBA005F047F926E0D6480078032803D1DAA005F03FF91EE0D2480078D4
:202C8000042803D1D9A005F037F916E0CE480078052803D1D8A005F02FF90EE0CA48007804
:202CA000062803D1D6A005F027F906E0C6480078072802D1D5A005F01FF9D7214FF4C87024
:202CC00005F040FDFF2006F099FBD24806F0A4FB022006F001FC0E2006F0F4FB10220021EF
:202CE000684620F014FD0222B749891C68460CF089FE2E208DF80200B348407801280AD17F
:202D0000C5A00168CDF803108188ADF8071080798DF8090082E0AC484078022807D1C0A051
:202D20000168CDF803104068CDF8070076E0A6484078032807D1BDA00168CDF803100079C8
:202D40008DF807006AE0A0484078042807D1B9A00168CDF8031000798DF807005EE09A483A
:202D60004078052807D1B5A00188ADF8031080788DF8050052E094484078062804D1B0A065
:202D80000068CDF8030049E08F484078072804D1ADA00068CDF8030040E08B4840780828EF
:202DA00007D1ABA00168CDF803108088ADF8070034E08548407809280AD1A7A00168CDF8E1
:202DC00003104168CDF80710007A8DF80B0025E07D48407810280AD1A2A00168CDF8031039
:202DE0008188ADF8071080798DF8090016E076484078112807D19DA00168CDF803104068E4
:202E0000CDF807000AE070484078122806D19AA00168CDF803104068CDF80700684605F0E9
:202E20006BF8F5214FF4C87005F08CFC6FF07F4006F0E4FA934806F0EFFA022006F04CFB16
:202E40000E2006F03FFB10220021684620F05FFC32208DF8000030208DF8010002225A4934
:202E6000C91C0DF102000CF0CDFD684605F044F80A21142005F066FC6FF07F4006F0BEFA46
:202E80004E4806F0C9FA022006F026FB0C2006F019FB7DA005F030F83221142005F052FC70
:202EA0007D4806F0B9FA10220021684620F02FFC241D94F90000002806DA14F9011B002247
:202EC00068460DF081F809E02B208DF8000014F9011B00220DF101000DF076F86846FDF7BE
:202EE000C2F906460DEB06006CA10A88028089788170684605F000F83221782005F022FC21
:202F00006FF07F4006F07AFA634806F085FA022006F0E2FA0C2006F0D5FA14F9010B0828DB
:202F20004BD2DFE800F0F7040E18222C36405CA004F0E2FF00224FF4A0715C4805F018F9E7
:202F4000ECE05BA004F0D8FF00224FF4A0715B4805F00EF9E2E05AA004F0CEFF00224FF4E8
:202F6000A0715C4805F004F9D8E05BA004F0C4FF00224FF4A0715A4805F0FAF8CEE059A09A
:202F800004F0BAFF00224FF4A071594805F0F0F8C4E058A004F0B0FF00224FF4A07159483A
:202FA00005F0E6F8BAE058A004F0A6FF00224FF4A071574805F0DCF8B0E0ABE0E813050812
:202FC0009C72012070C20408940201204D6F6E646179000054756573746461790000000012
:202FE0005765646E6573646179000000546875727374646179000000467269646179000006
:2030000053617475726461790000000053756E6461790000D8AE04084A616E756172790083
:203020004665627275617279000000004D61726368000000417072696C0000004D61790046
:203040004A756E65000000004A756C7900000000417567757374000053657074656D62658C
:20306000720000004F63746F626572004E6F76656D62657200000000446563656D626572BB
:203080000000000008D60408536172616A65766F20546F646179000038F40408C2B04300FD
:2030A000436C65617220536B79000000B0FB030846657720436C6F756473000078D4030819
:2030C00053636174746572656420436C6F75647300000000D05E03085261696E0000000004
:2030E000204A040853686F776572205261696E0040AD03085468756E64657273746F726D31
:203100000000000008860308536E6F7700000000E82204081FA004F0EFFE00BF00BF002516
:2031200034E005EB8501204A5554204800782844401C05EB85011144487005EB85001146FB
:2031400008444078072808D905EB850008444078C01F05EB85011144487014F8010B05EB78
:203160008501114A1144C87014F8010B05EB85011144087114F8010B05EB850111448870AA
:2031800005EB8501881800F0CBFC6D1C052DC8D37FBD00004461746120556E617661696C66
:2031A00061626C6500000000500101209402012000B589B0F948008800F4806008B909B04D
:2031C00000BD0122F649F7480BF05AFB0122F649F4480BF02FFBF5480078F5490978884240
:2031E0002EDBEF490878FEF743FAF0490978884206DBEA48006840F40050E84908604CE094
:20320000E7490878FEF734FAE9490978884206DAE248006840F40050E04908603DE0DF4893
:20322000008800F4005038B3DC48006820F40050DA4908600846006840F0010008602CE001
:20324000DA480078DA490978884226DAD4490878FEF70EFAD649097888420EDAD0490878E1
:20326000FEF706FAD1490978884206DBCB48006840F40050C94908600FE0C848008800F41F
:20328000005050B1C548006820F40050C34908600846006840F001000860C048008800F4BD
:2032A000004000287ED0BD48008800F400500028F8D0C048007800F0020050B9BD4800789F
:2032C00000F0080028B9BB48007800F00400002872D0B848007800F0200000286CD0AF4859
:2032E000008800F4804028BBAC48006840F48040AA490860002006F067F804F07EFC002001
:2033000006F07CF850234FF4A5720021084605F0A7F8012006F058F84FF07F4006F06CF8B4
:203320004FF487736422DC21002004F075FC00209B498870A049A14A127851F8220006F08D
:203340005DF89F4806F068F8012006F0BBF8012005F09CFD6423BE220021962004F05CFCD8
:203360008F48807800F0010028B1002296213A2004F07AFD1CE08A488078C8B950234FF419
:20338000A5720021084604F047FC8549087802230022822104F07DFD002006F093F8804960
:2033A000487800E008E002230022BE2104F071FD012005F0DDFDFFE17848008800F40040B1
:2033C00000287DD07548008800F400500028F8D07848007800F00200002871D17548007836
:2033E00000F008000028F8D17248007800F004000028F2D16F48007800F010000028E0D0CC
:203400006648008800F4804028B1674800786D49097888421AD06148006840F480405F492A
:203420000860002005F0D0FF04F0E7FB012005F0CBFF4FF07F4005F0DFFF04F0DEFB3C2090
:2034400061490870584800785E4908700222544901A80CF0D7FA5248807800F0010018B190
:203460003A208DF8060002E020208DF8060002224B49491C0DF107000CF0C4FA8821F02025
:2034800005F060F94C49514A127851F8220005F0B5FF4B4805F0C0FF0E2006F013F8012079
:2034A00005F0F4FCC0234FF4F0725021002004F0B3FB01A804F020FD3B48007820B900E0FE
:2034C00040E107203849087037480078012805D10A223FA101A8FCF793FE3AE03248007870
:2034E000022805D10A223DA101A8FCF789FE30E02D480078032805D10A223BA101A8FCF7FD
:203500007FFE26E028480078042805D10A2239A101A8FCF775FE1CE023480078052805D147
:203520000A2237A101A8FCF76BFE12E01E480078062805D10A2235A101A8FCF761FE08E0C9
:2035400019480078072804D10A2233A101A8FCF757FE02221449891C0DF10E000CF052FA23
:2035600011484078012805D10A222EA104A8FCF747FEC2E00C484078022805D10A222CA1B5
:2035800004A8FCF73DFEB8E00748407803285BD10A222AA104A8FCF733FEAEE024020120BF
:2035A0009C720120B4720120940201202F0201203002012028020120B401012033020120C2
:2035C000F845050871020120700201203202012020204D6F6E6461792020000020547565EF
:2035E00073746461792000005765646E6573646179200000546875727374646179200000DA
:20360000202046726964617920200000205361747572646179200000202053756E6461798A
:20362000202000002E204A616E756172792000002E20466562727561727900002E20204DB9
:2036400061726368202000005C484078042805D10A225BA104A8FCF7D3FD4EE05748407812
:20366000052805D10A2259A104A8FCF7C9FD44E052484078062805D10A2257A104A8FCF77F
:20368000BFFD3AE04D484078072805D10A2255A104A8FCF7B5FD30E048484078082805D131
:2036A0000A2253A104A8FCF7ABFD26E043484078092805D10A2251A104A8FCF7A1FD1CE0FC
:2036C0003E484078102805D10A224FA104A8FCF797FD12E039484078112805D10A224DA1FB
:2036E00004A8FCF78DFD08E034484078122804D10A224BA104A8FCF783FD4CA00188ADF825
:203700001A1080788DF81C0002222C49C91C0DF11D000CF077F92E208DF81F0000208DF84A
:203720002000434805F078FECE21F02005F00AF80E2005F0C7FE01A804F0DEFB012005F009
:2037400017FC39E03B4840783B490978884233D038484078384908700222364901A80CF0B7
:2037600051F93A208DF8060002223249491C0DF107000CF047F9314805F04EFE6FF07F40FD
:2037800005F03CFE022005F0A7FE0C2005F09AFEF521052004F0D6FF012005F077FB4FF4B6
:2037A00087736422DC21002004F036FA01A804F0A3FB012005F0DCFB00BF00E594020120C5
:2037C0002E2020417072696C202000002E2020204D617920202000002E2020204A756E650E
:2037E000202000002E2020204A756C79202000002E20417567757374202000002E536570BA
:2038000074656D62657200002E204F6B746F6265722000002E204E6F76656D626572000059
:203820002E20446563656D62657200002032300008D604089C7201207002012038F40408BD
:2038400010B50446002005F0BFFD04F0D6F9002005F01CFB2CB900221146944804F0A6F8CD
:20386000F8E0012C05D100221146914804F09EF8F0E0022C05D1002211468E4804F096F8EC
:20388000E8E0032C05D1002211468B4804F08EF8E0E0042C05D100221146884804F086F814
:2038A000D8E0052C05D100221146854804F07EF8D0E00A2C05D100221146824804F076F838
:2038C000C8E00B2C05D1002211467F4804F06EF8C0E00C2C05D1002211467C4804F066F85C
:2038E000B8E00D2C05D100221146794804F05EF8B0E00E2C05D100221146764804F056F884
:20390000A8E00F2C05D100221146734804F04EF8A0E0142CA4D0152C05D1002211466F4825
:2039200004F044F896E0162C05D1002211466C4804F03CF88EE0172C05D1002211466948C3
:2039400004F034F886E0182C05D100221146664804F02CF87EE0192C05D1002211466348EB
:2039600004F024F876E01E2C74D01F2C72D0202C70D0212C6ED0222C6CD0232C6AD0282C48
:2039800068D0292C66D02A2C64D02B2C62D02C2C60D02D2C5ED0322C5CD0332C5AD0342CCF
:2039A00058D0352C56D0362C54D0372C52D03C2C50D03D2C05D1002211464D4803F0F6FF90
:2039C00048E03E2C05D1002211464A4803F0EEFF40E03F2C05D100221146474803F0E6FF53
:2039E00038E0402C05D100221146444803F0DEFF30E0412C05D100221146414803F0D6FF7B
:203A000028E0462C26D0472C05D1002211463D4803F0CCFF1EE0482C05D1002211463A48EE
:203A200003F0C4FF16E0492C05D100221146374803F0BCFF0EE04A2C05D1002211463448BA
:203A400003F0B4FF06E04B2C04D100221146314803F0ACFF002005F08BFA012005F0B4FC9E
:203A60004FF07F4005F0C8FC04F0C7F8012005F00DFA0A20B4FBF0F100FB114028B1CD22F1
:203A80004FF49671244804F073FB0A20B4FBF0F100FB1140012804D1D22219211F4804F081
:203AA00067FB012005F064FA10BD0000D8210F90141C159050161B908C102190C80A27900F
:203AC00004052D9040FF32907CF93890B8F33E90F4ED449030E84A906CE25090A8DC56902A
:203AE000E4D65C9020D162905CCB689098C56E90D4BF749010BA7A904CB4809088AE8690FC
:203B0000C4A88C9000A392903C9D989078979E90B491A490F08BAA9020370308AC3703089C
:203B2000FEB50446B04805F069FC0A2000902678AE4F07EBC606B6F90660731E267807EBED
:203B4000C606B6F90460721E267807EBC606B6F90260711C267837F93660701C04F0AEFC6E
:203B60006FF07F4005F04AFCA14805F055FC022005F0B2FC2078394601EBC0004088401D10
:203B800000B221783A4602EBC101488022783B4603EBC2016278974B53F82200022204F0D6
:203BA00037FA2078394601EBC0004088401F00B221783A4602EBC1014880A078082875D219
:203BC000DFE800F074041424344454642078874B03EBC000B0F9020000F11E02207833F9B6
:203BE0003000811C844804F0C3FA5FE020787F4B03EBC000B0F9020000F11E02207833F9AC
:203C00003000811C7D4804F0B3FA4FE02078774B03EBC000B0F9020000F11E02207833F9BA
:203C20003000811C764804F0A3FA3FE020786F4B03EBC000B0F9020000F11E02207833F9C9
:203C40003000811C6F4804F093FA2FE02078674B03EBC000B0F9020000F11E02207833F9D8
:203C60003000811C684804F083FA1FE020785F4B03EBC000B0F9020000F11E02207833F9E7
:203C80003000811C614804F073FA0FE02078574B03EBC000B0F9020000F11E02207833F9F6
:203CA0003000811C5A4804F063FA00BF00BFFF2005F0A4FB574805F0AFFB022005F00CFCB6
:203CC0000E2005F0FFFB2278484B03EBC202B2F904202378454E36F93330D21A237836F9A3
:203CE000333003EB52002278334603EBC202B2F9022002F15A0104F025FD0822002101A837
:203D00001FF005FD94F90300002806DA94F90310002201A80CF058F909E02B208DF8040085
:203D200094F9031000220DF105000CF04DF901A8FCF799FA054601A8284437A10A88028001
:203D40008978817001A804F0D7F8344805F056FB304805F061FB022005F0BEFB0E2005F087
:203D6000B1FB2278214B03EBC202B2F9042023781E4E36F93330D21A237836F9333003EB70
:203D800052002278334603EBC202B2F9022002F1780104F0D7FC0822002101A81FF0B7FC56
:203DA00094F90400002806DA94F90410002201A80CF00AF909E02B208DF8040094F90410A1
:203DC00000220DF105000CF0FFF801A8FCF74BFA054601A8284410A10A88028089788170D3
:203DE00001A804F089F8FEBD404040626A01012008D6040894010120C4FB03088CD4030867
:203E0000E45E0308344A040854AD03081C860308FC2204084C9E0408C2B043008080FF003E
:203E200030B58BB005467D48008800F4806010B901200BB030BD002107A810F0A9FA1523B9
:203E400001AA4021A02002F01DFF08B10120F0E79DF804004FF07F4101EA00609DF9051049
:203E60004FF47F0202EA014108439DF90610121202EA012108439DF8071040EA01040CB144
:203E8000601C08B90120D4E765490A980844A04201D20120CDE7624921440A98884201D98D
:203EA0000120C6E79DF9080010F13C0F03DB9DF908003C2801DD0120BBE79DF90900012801
:203EC00003DB9DF90900072801DD0120B1E79DF90A0010F13C0F03DB9DF90A003C2801DDF3
:203EE0000120A6E79DF90B0010F13C0F03DB9DF90B003C2801DD01209BE79DF90C000128F8
:203F000003DB9DF90C00072801DD012091E79DF90D0010F13C0F03DB9DF90D003C2801DDC9
:203F2000012086E79DF90E0010F13C0F03DB9DF90E003C2801DD01207BE79DF90F000128EE
:203F400003DB9DF90F00072801DD012071E79DF9100010F13C0F03DB9DF910003C2801DDA0
:203F6000012066E79DF9110010F13C0F03DB9DF911003C2801DD01205BE79DF912000128E5
:203F800003DB9DF91200072801DD012051E79DF9130010F13C0F03DB9DF913003C2801DD77
:203FA000012046E79DF9140010F13C0F03DB9DF914003C2801DD01203BE79DF915000128DC
:203FC00003DB9DF91500072801DD012031E79DF9160010F13C0F03DB9DF916003C2801DD4E
:203FE000012026E79DF9170010F13C0F03DB9DF917003C2801DD01201BE79DF918000128D3
:2040000003DB9DF91800072801DD012011E7152201A92846FCF7F4F800200AE72402012068
:20402000805101002DE9FC47044660784FF47F4101EA0021A0780F18E0784FF47F4101EA9F
:204040000021207901EB000860794FF47F4101EA0021A07901EB0009E0794FF47F4101EA75
:204060000021207A01EB000A2078192802D91520BDE8FC87B7F5F07F01D91520F8E7B8F5C8
:20408000887F01D91520F3E7B9F5F07F01D91520EEE7BAF5887F01D91520E9E7607A19287F
:2040A00001DD1520E4E7A07A0C2801DD1520DFE7E07A042801DD1520DAE7207B042801DDFC
:2040C0001520D5E704F10D0006F028FD08B91520CEE7022005F000FA207820B94FF47F00E3
:2040E00005F08CF9BCE02078012804D14FF47F4005F084F9B4E02078022803D1FF2005F062
:204100007DF9ADE02078032803D1F74805F076F9A6E02078042804D14FF0FF1005F06EF999
:204120009EE02078052804D14FF6FF7005F066F996E02078062803D1EC4805F05FF98FE05F
:204140002078072803D1EA4805F058F988E02078082803D1E74805F051F981E020780928B0
:2041600004D1E148803005F049F979E020780A2804D1DE487F3005F041F971E020780B2842
:2041800004D1DB487F3005F039F969E020780C2804D14FF4000005F031F961E020780D28F7
:2041A00004D14FF4004005F029F959E020780E2803D1802005F022F952E020780F2804D12F
:2041C000CC48FF3805F01AF94AE02078102804D14FF0801005F012F942E02078112804D126
:2041E00048F2800005F00AF93AE02078122804D16FF07F4005F002F932E02078132803D185
:20420000BD4805F0FBF82BE02078142804D1B9487F3805F0F3F823E02078152803D1B748BA
:2042200005F0ECF81CE02078162803D1002005F0E5F815E02078172803D1B14805F0DEF8A9
:204240000EE02078182804D14AF2FF5005F0D6F806E02078192803D14FF07F4005F0CEF829
:2042600038B2ADF800000FFA88F0ADF802000FFA89F0ADF804000FFA8AF0ADF80600684680
:2042800004F012F9607A20B94FF47F0005F0B6F8BCE0607A012804D14FF47F4005F0AEF8F6
:2042A000B4E0607A022803D1FF2005F0A7F8ADE0607A032803D18C4805F0A0F8A6E0607AB8
:2042C000042804D14FF0FF1005F098F89EE0607A052804D14FF6FF7005F090F896E0607A2F
:2042E000062803D1814805F089F88FE0607A072803D17F4805F082F888E0607A082803D1B5
:204300007C4805F07BF881E0607A092804D17648803005F073F879E0607A0A2804D173486D
:204320007F3005F06BF871E0607A0B2804D170487F3005F063F869E0607A0C2804D14FF41D
:20434000000005F05BF861E0607A0D2804D14FF4004005F053F859E0607A0E2803D1802070
:2043600005F04CF852E0607A0F2804D16148FF3805F044F84AE0607A102804D14FF08010FB
:2043800005F03CF842E0607A112804D148F2800005F034F83AE0607A122804D16FF07F40EE
:2043A00005F02CF832E0607A132803D1524805F025F82BE0607A142804D14E487F3805F005
:2043C0001DF823E0607A152803D14C4805F016F81CE0607A162803D1002005F00FF815E04A
:2043E000607A172803D1464805F008F80EE0607A182804D14AF2FF5005F000F806E0607A38
:20440000192803D14FF07F4004F0F8FFA07A18B93C4805F001F84BE0A07A012803D13A487D
:2044200004F0FAFF44E0A07A022803D1374804F0F3FF3DE0A07A032803D1354804F0ECFF5C
:2044400036E0A07A042803D1324804F0E5FF2FE0A07A052803D1304804F0DEFF28E0A07A45
:20446000062803D12D4804F0D7FF21E0A07A072803D12B4804F0D0FF1AE0A07A082803D18F
:20448000284804F0C9FF13E0A07A092803D1264804F0C2FF0CE0A07A0A2803D1234804F050
:2044A000BBFF05E0A07A0B2802D1214804F0B4FFE07A08B9002512E0E07A012801D103257E
:2044C0000DE0E07A022801D1012508E0E07A032801D1022503E0E07A042800D10225207B11
:2044E00008B9002639E025E000FFFF008080FF0080FF8000FF808000D3D3D3004040400083
:20450000A52A2A00645F040888660408F46E0408A0770408E0820408C08D04084C9E04088B
:20452000D8AE040870C2040808D6040838F40408E8130508207B012801D10C260DE0207B31
:20454000022801D1042608E0207B032801D1082603E0207B042800D10C2645EA060201237F
:20456000694604F10D0003F079FD062080E5000070B506460C4600255348007800F00400A7
:2045800000285AD05048007800F00800002839D04D48006820F008004B4908604B484C4957
:2045A000097820F811604A4805780CE0681EC5B2464830F81500B04205D100204349444A2C
:2045C000127821F81200002DF0D140484049097830F8110058B13C48006840F010003A49B5
:2045E00008603C48006840F400203A49086037483749097830F8110028B937A139480068CD
:2046000002F04AFA5FE0212C0CD130483049097830F8110040F400402C492D4A127821F84D
:20462000120050E0102C01D0112C4CD12948006840F400202749086045E000253DE0C6F3AC
:204640000E00224931F81510C1F30E01884232D10825102C0CD12448006840F00800224946
:2046600008602248006840F002002049086024E0112C0CD11C48006820F008001A49086030
:204680001A48006840F002001849086015E0212C13D11748006840F00400154908600D4819
:2046A000006840F020000B4908600846006840F04000086001E0681CC5B2044830F8150093
:2046C00008B1082DBBD370BD7C0201204C6A01204002012024020120494E434C55444544C9
:2046E000000000004801012098020120940001202802012010B58CB06424AC48008828B1B7
:20470000AA4800884FF6FF71884205D108220021A6481EF0FCFF6BE0A448408828B1A348C5
:2047200040884FF6FF71884206D1072200219F48801C1EF0ECFF5BE09C48808828B19B48B2
:2047400080884FF6FF71884206D1062200219748001D1EF0DCFF4BE09448C08828B19348CA
:20476000C0884FF6FF71884206D1052200218F48801D1EF0CCFF3BE08C48008928B18B48E2
:2047800000894FF6FF71884206D104220021874808301EF0BCFF2BE08448408928B18348DF
:2047A00040894FF6FF71884206D1032200217F480A301EF0ACFF1BE07C48808928B17B4876
:2047C00080894FF6FF71884206D10222002177480C301EF09CFF0BE07448C08928B173480D
:2047E000C0894FF6FF71884202D100206F49C881D1E06E48008800128DF820006B4800782C
:204800008DF821006948408800128DF82200674880788DF823006548808800128DF8240001
:20482000624800798DF825006048C08800128DF826005E4880798DF827005C480089001274
:204840008DF828005948007A8DF829005748408900128DF82A005548807A8DF82B005348D7
:20486000808900128DF82C005048007B8DF82D004E48C08900128DF82E004C48807B8DF8EF
:204880002F004FF47A70102108AA0223CDE9002102902022A021464807F01AFB4FF47A737E
:2048A00040F6B832A021424807F088F91022002104A81EF02CFF4FF47A70102104AA0223AC
:2048C000CDE9002102902022A021394807F022FA9DF820009DF8101088425AD19DF82100C3
:2048E0009DF81110884254D19DF822009DF8121088424ED19DF823009DF81310884248D169
:204900009DF824009DF81410884242D19DF825009DF8151088423CD19DF826009DF8161087
:20492000884236D19DF827009DF81710884230D19DF828009DF8181088422AD19DF8290066
:204940009DF81910884224D19DF82A009DF81A1088421ED19DF82B009DF81B10884218D170
:204960009DF82C009DF81C10884212D19DF82D009DF81D1088420CD19DF82E009DF81E1057
:20498000884206D19DF82F009DF81F10884200D104E0601EC4B2002C7FF42BAF00BF1CB96E
:2049A0009121A52002F0A4F90CB010BD4C6A01208073012010B586B0642454E04D480068C9
:2049C000000E8DF814004B480068000C8DF8150048480088000A8DF81600464800788DF847
:2049E00017004FF47A70042105AA0223CDE9002102900022A021404807F06AFA4FF47A731B
:204A000040F6B832A0213C4807F0D8F80422002104A81EF07CFE4FF47A70042104AA0223CA
:204A2000CDE9002102900022A021334807F072F99DF814009DF81010884212D19DF8150098
:204A40009DF8111088420CD19DF816009DF81210884206D19DF817009DF81310884200D1F7
:204A600003E0601EC4B2002CA8D100BF24B99121A52002F03DF900E0642431E01F48007827
:204A80008DF814004FF47A70012105AA0223CDE9002102900622A021174807F019FA4FF45C
:204AA0007A7340F6B832A021134807F087F800208DF810004FF47A70012104AA0223CDE9CA
:204AC000002102900622A0210B4807F023F99DF814009DF81010884200D103E0601EC4B204
:204AE000002CCBD100BF1CB99121A52002F000F906B010BD28020120807301203B020120B8
:204B000010B58EB06424E0E075480068000E8DF8240073480068000C8DF825007048008855
:204B2000000A8DF826006E4800788DF827006D4800788DF828006C4800788DF829006B487F
:204B400000788DF82A006A4800788DF82B00694800788DF82C00684800788DF82D006748F1
:204B600000788DF82E00664800788DF82F00654800788DF83000644800788DF831006348D1
:204B800000788DF83200624800788DF83300614800788DF83400604800788DF835004FF415
:204BA0007A70122109AA0223CDE9002102900022A0215A4807F08CF94FF47A7340F6B83246
:204BC000A021564806F0FAFF1222002104A81EF09EFD4FF47A70122104AA0223CDE90021D3
:204BE00002900022A0214D4807F094F89DF824009DF81010884266D19DF825009DF8111049
:204C0000884260D19DF826009DF8121088425AD19DF827009DF81310884254D19DF8280012
:204C20009DF8141088424ED19DF829009DF81510884248D19DF82A009DF81610884242D120
:204C40009DF82B009DF8171088423CD19DF82C009DF81810884236D19DF82D009DF8191032
:204C6000884230D19DF82E009DF81A1088422AD19DF82F009DF81B10884224D19DF830001A
:204C80009DF81C1088421ED19DF831009DF81D10884218D19DF832009DF81E10884212D128
:204CA0009DF833009DF81F1088420CD19DF834009DF82010884206D19DF835009DF8211002
:204CC000884200D104E0601EC4B2002C7FF41CAF00BF1CB99121A52002F00AF80EB010BD6D
:204CE000280201203E0201203F0201203B0201203A0201208E0001208F0001203402012035
:204D000035020120310201202F0201203002012032020120330201209C02012080730120C4
:204D20007FB504467948008800F4806010B9012004B070BD002168460FF02AFB20784FF043
:204D40007F4101EA006094F901104FF47F0202EA0141084394F90210121202EA0121084351
:204D6000E17840EA01050DB1681C08B90120DFE7674903980844A84201D20120D8E76449DF
:204D800029440398884201D90120D1E794F9040010F13C0F03DB94F904003C2801DD0120DF
:204DA000C6E794F90500012803DB94F90500072801DD0120BCE794F9060010F13C0F03DB8D
:204DC00094F906003C2801DD0120B1E794F9070010F13C0F03DB94F907003C2801DD012090
:204DE000A6E794F90800012803DB94F90800072801DD01209CE794F9090010F13C0F03DB84
:204E000094F909003C2801DD012091E794F90A0010F13C0F03DB94F90A003C2801DD012066
:204E200086E794F90B00012803DB94F90B00072801DD01207CE794F90C0010F13C0F03DB7A
:204E400094F90C003C2801DD012071E794F90D0010F13C0F03DB94F90D003C2801DD01203D
:204E600066E794F90E00012803DB94F90E00072801DD01205CE794F90F0010F13C0F03DB71
:204E800094F90F003C2801DD012051E794F9100010F13C0F03DB94F910003C2801DD012014
:204EA00046E794F91100012803DB94F91100072801DD01203CE794F9120010F13C0F03DB68
:204EC00094F912003C2801DD012031E794F9130010F13C0F03DB94F913003C2801DD0120EB
:204EE00026E794F91400012803DB94F91400072801DD01201CE7152322464021A02001F079
:204F0000E3FE08B1012013E7002011E724020120805101001FB506F0C7FDFE490968401A0B
:204F200064280BD3FC4800686430FB49086006F0BBFDF849086003F06BFA00E01FBDF74871
:204F4000006800F0080030B1F548006840F00400F349086010BBF348007800F00100E8B983
:204F6000F048006840F00100EE490860EE48006840F00200EC4908600846006840F001006D
:204F800008600A20E9490870E94908700020E9490870E9490870E94908707BE0DF48006823
:204FA00000F0080040B3DE48006840F00400DC49086008B3DB48007800F00100E0B1D948BE
:204FC000007800F0FE00D7490860D748006840F00400D54908600846006840F00100086053
:204FE0000020D2490870D2490870D2490870D2490870D24908704DE0D148007800F0800084
:2050000008B3C848007800F00200E0B9C548006840F00200C3490860C348006840F0040000
:20502000C14908600846006840F0010008600020BE490870BE490870BE490870BE49087093
:20504000BE49087026E0BE48007800F0800008BBB448007800F00200E0B1B248007800F0C1
:20506000FD00B0490860B048006840F00200AE4908600846006840F0010008600A20AB4974
:205080000870AB4908700020AA490870AA490870AA490870A448008800F40060D0B1A24898
:2050A000006820F40060A0490860A648FFF738FE60BB9D48008800F4805038BB9A48006820
:2050C00040F48050984908600846006840F0200008602CE0904800689B49884227D90020FB
:2050E0008D4908609748FEF79BFE80B98E48008800F4805050B98C48006840F480508A498E
:2051000008600846006840F0200008600FE08648008800F4805050B18348006820F4805098
:20512000814908600846006840F0200008607E48008800F40040C8BB06F0B6FC83490968E5
:20514000401A8349097840F2712211FB02F1B0EB011F0FD37448006840F40040724908608C
:205160000846006820F4804008607A480078FCF731FF2AE078480078FCF772FE012824D11D
:205180001E206B49087000206A4908706A4908706A4908706448006840F0010062490860AC
:2051A0000846006840F4803008600EE0FFE76B48007850B95C48007800F0200028B15A483E
:2051C000006840F00100584908605748007800F00100002875D061480078042871DA524886
:2051E000006820F0010050490860FCF7BBFE4E48007800F0040020B94B48007800F00200B1
:20520000D0B14948006820F00200474908600846006820F0040008600846007800F0100012
:2052200020B90846007800F0080028B13C48006840F002003A4908603D480078FEF700FB08
:2052400006F032FC4649086006F02EFC454908603A48007828B13148006840F001002F49C0
:2052600008603348007848B900203C4908702E48006840F480302C49086022E02C48007828
:205280000A2806D10320354908700A202749087017E027480078142806D101202F490870D8
:2052A0002848FDF791FC0CE0214800781E2805D104202A490870FCF7ABFE02E002202749F5
:2052C00008702648007800287DD11748006800F4803090B11448006820F480301249086003
:2052E000002012490870FDF763FF0F48006840F020000D49086001F08BF806F0D5FB1949FC
:205300000968401A40F2A62188427CD31648007860B32CE05C0201206C02012098020120F2
:205320009400012058020120240201202E0201202C0201202D020120A5020120A402012077
:2053400028020120346A012080EE36005002012031020120340201204102012054020120A6
:205360006402012068020120440201202CE0FE48007848BB0120FC490870FC48007800F05D
:20538000020058B9F948006840F00200F74908600846006820F00800086005E0F3480068B9
:2053A00020F00200F1490860F148006840F00200EF490860EF48006840F02000ED49086039
:2053C0000846006801E086E103E040F04000086008E0E948007828B9E348007810B100201E
:2053E000E1490870E548007880B3E548007868BB0120E3490870DD48007800F0080068B9F0
:20540000DA48006800E074E040F00800D74908600846006820F00200086005E0D348006876
:2054200020F00800D1490860D148006840F00200CF490860CF48006840F02000CD49086052
:205440000846006840F04000086009E0FFE7CB48007828B9CA48007810B10020C84908708F
:20546000C248007800F0040008B3C6480078F0B1BE48006820F00400BC490860BD48006878
:2054800040F02000BB490860B948006840F00200B7490860B748006840F04000B549086010
:2054A000B948006820F00100B749086021E0B148008800F48050E0B1B2480078C8B1002028
:2054C00003F082FF002003F097FF02F096FB012003F07AFF4FF07F4003F08EFF02F08DFBA7
:2054E0001420AA490870A348006840F00100A1490860A748007830B3A648007818BB012093
:20550000A4490870A4480078A4490978884223DAA1480078401CA04908709548006840F0FA
:205520000200934908609348006840F04000914908609548006840F0010093490860012055
:205540009749087008E09248007828B99148007810B100208F4908709248007830B3924847
:20556000007818BB0120904908708B4800788F490978884223DD88480078401E8649087013
:205580007B48006840F00200794908607948006840F04000774908607B48006840F0010067
:2055A0007949086001207E49087008E07D48007828B97D48007810B100207B4908706D484C
:2055C000007800F0400048B16A48006820F040006849086000F01CFFFFF7ECF9654800789C
:2055E00000F02000E8B36348006820F020006149086006F059FA6E4908605C48007800F037
:20560000040048B16048006840F001005E49086002206349087008E05B48006840F00100D3
:205620005949086001205E4908705048007800F0020030B100224FF4A5715E4802F098FD95
:2056400005E000224FF4A5715B4802F091FD4748007800F0080040B15A224FF4A571574863
:2056600000E029E002F084FD05E05A224FF4A571534802F07DFD3D48007800F0040030B13B
:20568000B4224FF4AF714F4802F072FD14E03948008800F4805030B1B4224FF4A5714A4876
:2056A00002F066FD08E04FF487734FF4F072B4214FF4A57002F0B0FA06F0F6F94349096820
:2056C000401AB0F57A7F05D306F0EEF93F490860FDF76EFD91E13E48007801281FD106F04F
:2056E000E3F93C490968401A42F23D218842F1D32048006840F004001E49086008460068D5
:2057000040F0010008600020334908701F490870324908703249087021490870DAE72C48FF
:20572000007802281FD106F0BFF921490968401A40F2A62188427DD32A48007890B1264848
:2057400000780A285AD10B48006840F00200094908600846006840F0010008600A201E49ED
:20576000087041E07CE01BE1450201202802012094000120240201204402012047020120B8
:205780004802012046020120980201202C020120490201204A0201203B0201203F02012092
:2057A000A40201204B0201204C0201203E02012068020120483703083437030870370308A7
:2057C0005C37030898370308843703086002012054020120640201202E0201202D02012069
:2057E000A502012042020120FE4908700020FE490870FE490870FE49087015E0FD480068BE
:2058000040F00400FB4908600846006840F0010008600020F8490870F2490870F24908701A
:20582000F2490870F2490870F448006840F00100F24900E055E008600120ED490870ED4871
:20584000006840F01000EB4908600846006840F400100860EA48006840F00200E84908603D
:20586000E8480078E8B3E44800780A2817D1E148006840F00200DF4908600846006840F0EE
:20588000010008600A20DC490870D64908700020D5490870D5490870D549087015E0D5484D
:2058A000006840F00400D34908600846006840F0010008600020D0490870CA490870CA492A
:2058C0000870CA490870CA490870CC48006840F00100CA4908600120C5490870C5480068F6
:2058E00000E009E040F00800C2490860C448006840F00200C2490860BB48007800287CD02C
:2059000006F0D2F8C0490968401AB749097840F2537211FB02F1B0EB011F6ED3B64800780A
:205920000A2817D1B348006840F00200B14908600846006840F0010008600A20AE4908706E
:20594000A84908700020A8490870A8490870A849087015E0A748006840F00400A5490860AD
:205960000846006840F0010008600020A24908709C4908709C4908709C4908709C490870E1
:205980009E48006840F001009C4908600120984908709848006820F400109649086099E68F
:2059A0009A480078032829D18F4800780028F6D006F07AF894490968401A8B49097840F294
:2059C000537211FB02F1B0EB011FE8D38948006840F00400874908600846006840F0010001
:2059E00008600020844908707E4908707E4908707E4908707E4908706CE669E283480078FE
:205A0000042878D1824800680FF03CF881490870814800680FF036F880490870804800689B
:205A20000FF030F840B27F4908707F4800680FF029F87E490978884207D07B4800680FF0AB
:205A400021F87A4908700CF05BFA79480068FBF79BFC08B37748007800F00400E0B97548B3
:205A6000006840F00400734908606248006840F40020604908607048007807281CD26F49EA
:205A80006D480078401C31F81000A8B16A480078401C694908700FE065480068FBF774FCD5
:205AA00050B96448007800F0040028B16148007800F0FB005F49086061480068FBF764FC6D
:205AC000D0B15C48007800F00800A8B95948006840F00800574908604648006840F400203D
:205AE0004449086054480078B0B153480078401E5149087010E02DE251480068FBF744FC87
:205B000050B94C48007800F0080028B14948007800F0F700474908604A480068FBF734FC9B
:205B2000F0B34448007800F01000C8BB4148006840F010003F49086040483F49097830F861
:205B4000110070B33C480078072811D23A4B1B78C3F107035A00394C374B1B785B1C04EBD3
:205B600043012346344C247803EB4400FAF748FB00203249C88134A13548006800F08CFFDD
:205B80004FF4FA7002F058F91A48006840F40020184908602F48006840F010002D4901E0B8
:205BA00002E011E008600FE026480068FBF7ECFB50B92048007800F0100028B11D4800786D
:205BC00000F0EF001B49086023480068FBF7DCFB30B11848007800F0200008B915483DE07A
:205BE00067E000002C0201202D020120A5020120A4020120240201202E02012098020120DD
:205C000094000120430201206402012054020120080101203F0201200C0101203E02012050
:205C2000000101203A020120040101208F000120F800012058020120400201204C6A012041
:205C4000FC000120F000012044454C4554454400480101207C020120F4000120006840F069
:205C60002000FE49086004E0FD480078401CFC490870FC48FA49097830F8110018B1F84851
:205C800000780828F0D3F6480078082805D3F6A1F848006800F000FF1BE0F7A1F548006875
:205CA00000F0FAFEF748006840F00800F54908600FE0F5480068FBF767FB50B9E7480078DF
:205CC00000F0200028B1E548007800F0DF00E3490860EC48007800F0100038B1E9480068A5
:205CE00020F01000E7490860FEF704FDE748006800F40020A0B3E548006820F40020E34903
:205D000008601022002168461DF001FDD548D449097830F8110018B3D248D149097830F873
:205D2000110000F4004028B10722D9A168461DF0E1FC04E00722D8A168461DF0DBFCC948E1
:205D4000C74A127830F81200C0F30E0100220DF107000AF039F96946C648006800F09CFEAA
:205D6000CA48008800F4007010BBC848008800F48070E8BBC548006840F48070C34908602E
:205D80006E23C822DC210A2001F046FFF021142002F0D8FC4FF6FF7003F030FBC04803F053
:205DA0003BFB0C2003F08EFBBEA002F0A5F82BE0B648007800F08000D0B1B448006820F032
:205DC0008000B24908600846006820F4807008604FF48273C822DC210A2001F01DFFF02157
:205DE000142002F0AFFC4FF6FF7003F007FB00E00AE0AB4803F010FB0C2003F063FBAB48FE
:205E0000B0F9000000F0F6FAA9480068FBF7BCFAC8B3FEF775FEFBF763FF0020A54908703B
:205E2000A54800780A2817D19848006840F00200964908600846006840F0010008600A20A9
:205E40009D4908709D49087000209D4908709D4908709D49087031E08C48006840F00400CB
:205E60008A4908600846006840F00100086000209149087091490870914908709149087030
:205E8000914908701AE0FFE790480068FBF77CFAA0B11E20894908707C48006820F480701F
:205EA0007A4908600846006840F080000860FBF717FFFCF7E5FA05207E4908708448006877
:205EC00084490968884204D0824800688049086062E205F0E9FD7E490968401A4EF27861B9
:205EE0008842F5D3FBF7FCFE002072490870724800780A2817D16548006840F00200634992
:205F000008600846006840F0010008600A206A4908706A49087000206949087069490870D6
:205F20006949087038E25948006840F00400574908600846006840F00100086000205E49C2
:205F400008705E4908705E4908705E4908705E49087021E2574800780528B9D15E4800686E
:205F60000EF090FD5D4908705D4800680EF08AFD5C4908705C4800680EF084FD5B49087022
:205F80005B4800680EF07EFD5A4908705A4800680EF078FD5949087059480068FBF766FD6D
:205FA000012806D15748006840F010005549086005E05448006820F01000524908605248EE
:205FC0000068FBF753FD012806D14E48006840F020004C49086005E04A48006820F02000BD
:205FE00048490860494800680EF04CFDC4B2204600F0B3FA46490978884213D0434800683F
:206000000EF040FDC4B2204600F0A7FA404908700122404808F05CFD1C48006840F48060FB
:206020001A4908603C4800680EF02CFDC4B2204600F093FA36494978884275D036480068F4
:206040000EF020FDC4B2204600F087FA304948700122304808F03CFD0C4860E058020120CC
:20606000400201204C6A01204C4953542046554C4C000000480101205741495420455645B8
:206080004E5400007C020120F4000120240201204E4F2F534F532000535749544348200090
:2060A00070C204084552524F5200000036020120E0000120540201202E0201202C020120A7
:2060C0002D020120A5020120A4020120E80001206402012050020120100101203502012054
:2060E000140101203402012018010120310201201C0101202F020120200101203002012060
:206100004001012028020120440101202C0101209C720120B47201203001012004E000680A
:2061200040F480609E4908609E4800680EF0AAFCC4B2204600F011FA9B498978884213D0A1
:20614000984800680EF09EFCC4B2204600F005FA954988700122954808F030FC904800685A
:2061600040F480608E490860914800680EF08AFCC4B2204600F0F1F98B494978884213D00F
:206180008B4800680EF07EFCC4B2204600F0E5F9854948700122854808F010FC80480068F8
:2061A00040F480607E490860824800680EF06AFCA0F5FA60C4B2204600F0CFF97A49C9787F
:2061C000884215D07B4800680EF05CFCA0F5FA60C4B2204600F0C1F97349C8700122734848
:2061E00008F0ECFB6E48006840F480606C490860714800680EF046FC70490978884214D028
:206200006D4800680EF03EFC6C4908706C496B4A127851F8220003F0F1F83B234FF4D772D7
:2062200033214FF4AA7002F01BF9664800680EF029FC65490978884214D0624800680EF081
:2062400021FC614908705E495F4A127851F8220003F0D4F863234FF4D7725B214FF4AA7010
:2062600002F0FEF859480068FBF78EF8C8B3FEF747FCFBF793FD0020554908705548007835
:206280000A2817D14648006840F00200444908600846006840F0010008600A204D49087040
:2062A0004D49087000204D4908704D4908704D49087026E03A48006840F004003849086079
:2062C0000846006840F0010008600020414908704149087041490870414908704149087045
:2062E0000FE0FFE740480068FBF74EF848B11E2039490870FBF752FDFBF78AFE0420344914
:2063000008703A4800683A490968884204D038480068364908603FE005F0C6FB33490968F8
:20632000401A4EF27861884236D3FBF737FD002027490870274800780A2817D11848006820
:2063400040F00200164908600846006840F0010008600A201F4908701F49087000201F4983
:2063600008701F4908701F49087015E00C48006840F004000A4908600846006840F001005E
:2063800008600020134908701349087013490870134908701349087000BFFEF7CFBD000011
:2063A000240201203401012094020120B4720120380101203C0101202401012032020120EF
:2063C000B40101202801012033020120E0000120540201202E0201202C0201202D020120DF
:2063E000A5020120A4020120E8000120640201205002012010B5044601220521204601F05C
:2064000065FD02A001F078FD10BD0000C2B0430010B5012002F03AFDEB234FF4A07291216C
:20642000C32001F0F9FB6FF07F4002F0E7FF0B4802F0F2FF002003F04FF8012003F042F8C0
:206440009621C82002F07EF902210548007801F013FD012002F08CFD10BD00003022050883
:206460003B02012010B5034804F091FE02200249886010BD6076012000B002400146087859
:2064800010381823B0FBF3F20848805CC865032A05D908686FF30900001D886503E008684D
:2064A0006FF309008865886D70470000604A0408014600208A6A8B69CBB932B1012A0DD064
:2064C000022A03D0032A10D10EE000BFCB6A03F08073B3F1807F00D1012007E0CB6AB3F192
:2064E000C07F00D1012001E000E000BF34E08B69B3F5005F1AD132B1012A07D0022A03D00D
:20650000032A11D10AE000BF01200EE0CB6A03F08073B3F1807F00D1012006E0CB6AB3F145
:20652000C07F00D1012000E000BF15E032B1012A05D0022A04D0032A0CD103E000BF00BF48
:20654000012008E0CB6A03F08073B3F1807F00D1012000E000BF00BF70470146002204E020
:20656000501CC2B2A1F10A00C1B20A29F8DA100741EA106070472DE9FC475FEA00090E46BF
:2065800078D001F025F9009090F85470D0F85880456BC46C684601F071F9B8F1000F04D0B3
:2065A000424631464846904761E0122E18D006DC082E43D0102E3CD0112E06D112E0132E50
:2065C00021D01D2E43D01E2E3DD0202E4FDB17B1484612F0B2FEB1B2484617F091FF60B3F8
:2065E000611C27E04DB3284601F0F2F805462146019003F0F3F84419204603F0A9F8012233
:206600000146234610E0C5B1284601F0E1F805462146019003F0E2F84419204603F098F8D6
:20662000014623464FF0FF32484612F095F801A81BE0611E484600F0BFFA18E0BCB1611EDF
:20664000484600F0B9FA484612F077FE0FE0484601F0BEF8012F00900ED0012180F8541044
:206660002146484600F0A8FA684601F007F9484610F0D1FCBDE8FC87002180F85410F3E79A
:206680007CB545680446284611F0B2F90646214628460FF00BFE002845D020680F283ED085
:2066A00004DC0B2840D00E2861D148E0A0F58070133804D0A0F580702D3858D11EE0284604
:2066C00010F0DEFD284601F083F8009090F8561081F0040180F85610684601F0CFF80021AC
:2066E000284618F0CBFF284601F072F800900021D0F8840010F0AAFD68461DE0E06860B1E9
:20670000017A29B10168284600F0CDF8012100E00221284610F0F2FC29E00321F9E70121E8
:20672000284618F0ABFF7CBD284601F051F80190343000F0A7FF01A801F0A0F817E0B6B13D
:20674000E0684168002912DD01681B290FD006DC09290CD00A290AD00D2904D107E021296B
:2067600005D0222903D02846FFF705FF7CBD204610F05EF87CBDF0B587B00DF1300E9EE8F2
:20678000F0104FF0000E8DE8F05000F003F807B0F0BD0000F0B585B00C46DFF884E0DDE97B
:2067A0000AC10F9FDDE90D6541F480516037CDE900C1CDE902E721460FF08AFF04002BD087
:2067C00001F006F81022314604900FF0F5FE0498242214496030F9F713FD049A681C4FF06B
:2067E000010182F8551000D0012082F88800002D00DC082529B21187002050874D1C506309
:2068000004A801F03BF82946204617F06BFA18B9204610F041F8002405B02046F0BD00000B
:2068200081660108DC0401200148806870470000DC04012038B5002807D000F0C9FF00904A
:20684000846E684601F01AF8204638BD38B54FF0000430B100F0BCFF0090846C684601F05F
:206860000DF8204638BDF8B5060015460C460ED000F0AEFF009038B1032C05D200EB8400EF
:206880008567304610F0C7FB684600F0F7FFF8BD10B5040006D000F08FF92046BDE8104019
:2068A00010F0B9BB10BD2DE9F04106000C4686B050D000F08DFF0090406B98B300F088FF29
:2068C00003900098806E02F0A7FD8046304610F0E3F80746039801F0F8FE0546009890F8B8
:2068E000601001F00301012916D002290DD0C16A406E09680844241A641E039803F0EEFD4C
:20690000002C01460FDA002115E0781B401C00EBD070A4EB6004F0E7406E791B081A241A7F
