:020000040800F2
:103000006037002001310008093100080B31000849
:103010000D3100080F3100081131000800000000D8
:10302000000000000000000000000000F14F000858
:103030001531000800000000EF4F00080984000867
:103040001B310008317200081B3100081B310008D9
:103050001B3100081B3100081B3100081B31000820
:103060001B3100081B3100081B3100081B31000810
:103070001B3100081B3100081B3100081B31000800
:103080001B3100081B3100081B3100081B310008F0
:103090001B3100081B3100081B3100081B310008E0
:1030A0001B3100081B3100081B3100081B310008D0
:1030B0001B3100081B3100081B3100081B310008C0
:1030C0001B3100081B3100081B3100081B310008B0
:1030D0001B3100085B910008679100081B31000854
:1030E0001B3100081B3100081B310008DFF80CD031
:1030F00000F020F800480047999100086037002050
:103100000648804706480047FEE7FEE7FEE7FEE781
:10311000FEE7FEE7FEE7FEE7FEE7FEE79988000828
:10312000ED300008421C10F8011B0029FBD1801A69
:1031300070470000064C074D06E0E06840F00103D0
:1031400094E8070098471034AC42F6D3FFF7D2FF5B
:1031500038EE000858EE0008D2B201E000F8012B6A
:10316000491EFBD270470022F6E710B513460A4607
:1031700004461946FFF7F0FF204610BDB0B540F2F7
:10318000A41043F2000141F20C04C2F20000C4F2A8
:103190000201C4F202040068884203D1A06820F052
:1031A0004000A06040F2AC1042F60005C2F2000000
:1031B000C4F20005006805F53051884209D1206944
:1031C0004FF4407120F40010206105F5644001F0D7
:1031D0004FFA40F20820C2F200000068A84205D170
:1031E00040F23C400021C4F24220016040F21C2029
:1031F000C2F20000006801F0E5FE40F27420C2F265
:10320000000002F031FC40F2B420C2F2000002F0F3
:103210002BFC40F2F420C2F2000002F025FC40F248
:103220003430C2F2000002F0CFFF40F27430C2F23C
:10323000000002F0C9FF4FF0FF3000212060616004
:103240002060216001F0BCFE80B582B08DF80700DF
:103250000DF107015020012201F0C0FD18B1A0209E
:10326000912100F08FFF0DF106015120012201F0A4
:1032700033FC18B1A020912100F084FF9DF80600D6
:1032800002B080BD80B582B08DF806008DF80710C1
:103290000DF106015020022201F0A0FD18B1A0207E
:1032A000912100F06FFF02B080BD000081B00022CC
:1032B0000092009A072A0FD8009A21FA02F2D20748
:1032C0004FF0310208BF302200F8012B009A013282
:1032D0000092009A082AEFD301B07047F0B581B090
:1032E00007462A201C4615460E4600F064FC384668
:1032F00000F041FC284600F03EFC2B2000F05BFC77
:10330000304600F038FC204601B0BDE8F04000F047
:1033100032BC0000F0B581B040F28C1640F2881744
:1033200040F610440025C2F20006C2F20007C4F2C3
:103330000104308839880138013982B28BB200200B
:103340000021FFF7CBFF2C2000F035FC4FF480600C
:1033500020604FF00060206038883188414340F29F
:103360001C20C2F200004900006800BF826892077A
:10337000FCD5057382689207FCD50029A1F10101F3
:103380000573F3D181680906FCD44FF40061002075
:10339000216001B0BDE8F04000F00DBC2DE9F04F18
:1033A000ADF5006D81B0002200EB40010C28CFF696
:1033B000FD7202EB014408D1002000211F221F23CF
:1033C000FFF78CFF4FF4006713E040F28C1040F2DF
:1033D0008811C2F20000C2F2000100880988013899
:1033E000013982B28BB200200021FFF777FF4FF442
:1033F000163740F610482C20C4F2010800F0DBFB21
:103400004FF480604FF400690DF1040B4FF0006A37
:10341000C8F800004FF40065B7F5006F2046594624
:1034200038BF3D46AEB2324600F066FF58463146E0
:103430006422C8F800A002F0C3F918B1A5209021B9
:1034400000F0A0FE7F1B2C44C8F80090E2D10DF5DF
:10345000006D01B0BDE8F08F2DE9F04F85B040F26E
:10346000A116C2F200063478A4F1010E5FFA8EFCB8
:10347000BCF1020F00F2C28004234FFA8EFE0CEB67
:103480004C0C40F2FC4AA2F1200840F6104903EB34
:1034900084045CA3C2F2000AC4F2010953F82E505E
:1034A0004FF47C130219BAF8007003EB0C43013A95
:1034B00001934B1992B2013B9BB2FFF70FFF2C20F7
:1034C00000F079FB40F25C1B05FB08F0039540F22D
:1034D000087531780026C2F20005C2F2000B029096
:1034E000029801290496304428D1019964220844A5
:1034F0004FF08051C9F800100321E8702970010CC9
:103500006970010A0020A97028712846042102F080
:1035100057F918B1A820902100F034FE281D012190
:1035200001F0EEFF18B1A820902100F02BFE4FF41F
:103530008050C9F8000095F804902AE001996422AF
:1035400001EB40004FF08051C9F800100321E870F2
:103550002970010C6970010A0020A970A880284612
:10356000042102F02DF918B1A820902100F00AFEE4
:10357000281D022101F0C4FF18B1A820902100F0FD
:1035800001FE4FF48050C9F800002879697941EABA
:10359000002940F2A1154FF00008C2F20005297879
:1035A000BBF800000129AAF8000013D129FA08F19C
:1035B000C90702D03846AAF8007000F0DCFA297872
:1035C00008F10108481E18BF0120444509FA00F916
:1035D000E6D103E05FEA0941ECD4EEE7049E0398EC
:1035E00040F6104940F20875C4F20109C2F2000524
:1035F000013686427FF474AFAAF8007005B0BDE8CA
:10360000F08F00BF10000000140000001A0000003E
:103610002DE9F04F8DB040F28A1140F25C1640F275
:10362000FC45002040F2404BD224C8A2C2F2000167
:10363000C2F20006C2F20005C2F2000B0978308027
:103640004FF0FF30288011F001004FF0020008BF5A
:10365000012008BF82249BF8021052F8212040F27A
:10366000A111C2F2000108700020DC2100F0F6F97F
:103670009BF8020000229BF80010002806BF48F2C9
:103680003042CFF6FF724FF0FF3032802880B2A276
:10369000002052F82120002100F0E0F90DF1220075
:1036A0004EF6500A4FF020080025C11CC0F6000A53
:1036B0000191811D029100F109010E30049004F185
:1036C0005A000391069004F13200059004F128009D
:1036D000079000BF9BF804109BF802209BF80000A5
:1036E000691AB2FA82F218BF01215209114348F255
:1036F000304218BF002232804942042840F2FC4286
:10370000C2F20002118005EB85014FF0280202EBA6
:10371000810711D1BEB2002094A2314600F09EF97B
:1037200005F13100314640F25C16C2B22046C2F2C9
:103730000006FFF791FE05E05AF82020B9B20020FC
:1037400000F08CF90BEB0500017A092936D0082925
:1037500071D1072D03D19BF80000022876D007987D
:103760000BEB0802B9B200F079F99BF806000128CA
:1037700061D14CF21860002104239BF80520282712
:10378000308040F2FC40C2F20000018040F2A11102
:103790009BF80400C2F20001097803EB8101079B4A
:1037A00001FB023300EB80010BEBC000104407EB80
:1037B000810190F8202098B23BE000BF9BF80410F4
:1037C0008D420BD19BF8021041B102294FF000014C
:1037D00014BF48F230424CF2186202E000224FF669
:1037E000FF71007C328067A21FFA87F952F820200F
:1037F00040F2FC40C2F2000001802046494600F041
:103800002DF9042D17D19BF80000022813D140F2A6
:10381000C640C2F20000007868B140F28A11303030
:10382000C2F20001C2B20978C9070CBF0598069818
:103830004946FFF711FE013508F108080AF1100AA0
:10384000082D7FF447AF0DB0BDE8F08F0BF15805A0
:103850000DF1220602223046294602F0CBFD3A2025
:103860000BF1590102228DF82400019802F0C2FDEB
:1038700020200BF15A0102228DF82700029802F055
:10388000B9FD2E200BF15B0102228DF82A0003986E
:1038900002F0B0FD43F22E200BF15C010222ADF8E4
:1038A0002D0030208DF82F00049802F0A3FD40F287
:1038B0008A10324640F25C16B421C2F20000C2F215
:1038C00000060078C0076FF0590008BF6FF03100A4
:1038D0000444A0B200F0C2F89BF804000728B2D15B
:1038E0009BF806000128AED140F2FC414CF2186072
:1038F000042230800020C2F20001088040F2A111B1
:103900009BF80500C2F200010978042802EB81014E
:1039100000FB01F202EB420202EB040308BF03EBDF
:103920004103285C5C18B421000900F1300298B210
:10393000FFF792FD9BF80500B4212A5C032060F399
:103940001F12A0B2FFF788FD7DE700BFFBED000866
:10395000A2ED0008BDED00086CED000887ED000841
:1039600030EC00084BEC00082DED00085045524D9E
:103970004954544544204144445245535320203A2D
:1039800000000000FBEC00081BED0008D3EB000872
:10399000E0EC000824ED000804ED0008FAEB000854
:1039A000F1EB0008F2EC00082DE9F04F83B0074678
:1039B00040F2A1104CF6CD498A4604211C4690469F
:1039C00000264FF0000BC2F20000CCF6CC49007884
:1039D00001EB8005581E0190F043204401064FF092
:1039E000010100BF029107D002990138020601EBE4
:1039F00081014FEA4101F5E70298BBF1000FB8FBE6
:103A0000F0F0A0FB09124FEAD20101EB8101A0EB1B
:103A1000410009D101998E4203D290B14FF0010BC0
:103A200002E04FF0000B00BF06FB057140F03002D2
:103A3000D2B288B25146FFF70FFD0136A642CBD174
:103A400009E006FB05705146202280B2FFF704FD15
:103A50004FF0000BF1E703B0BDE8F08F2DE9F04F18
:103A600081B00C4640F2A1114FF01008C2F20001E3
:103A70000978022908BF4FF014081378032908BFFA
:103A80004FF01A0853B340F28C1940F2881A0546D9
:103A90000420561C00EB810BC2F20009C2F2000A9E
:103AA000B9F80000A9B2A0EB0B00884238BF44442B
:103AB000BAF80020A7B2A2EB0802BA423CBF002429
:103AC0000025DAB2884238BF0025A1B2A8B2FFF7BC
:103AD000C3FC16F8013B5D44002BE1D101B0BDE809
:103AE000F08FB0B5362000F066F840F28A10C2F2CE
:103AF0000000007801280AD003280DD002284FF4D6
:103B0000A0744FF0F00514BF4820882008E0F0248E
:103B10004FF4A075282003E0F0244FF4A075E820AE
:103B200000F00BF840F28C10C2F20000058040F269
:103B30008810C2F200000480B0BD10B582B040F61B
:103B400010448DF807004FF4806001216422C4F214
:103B5000010420604FF0006020600DF1070001F0CB
:103B60002FFE18B1A520902100F00CFB4FF400604F
:103B7000206002B010BD10B540F610444FF48061D3
:103B8000020AC4F20104216040F20071C2F2000195
:103B900048704FF000600A706422206008460221DD
:103BA00001F00EFE18B1A520902100F0EBFA4FF4C1
:103BB0000060206010BD10B582B040F610448DF852
:103BC00007004FF0806001216422C4F201042060EC
:103BD0004FF0006020600DF1070001F0F1FD18B119
:103BE000A520902100F0CEFA4FF40060206002B0D2
:103BF00010BD70B584B040F29810C2F20000C079D8
:103C000002282BD004284ED0052840F0B28040F284
:103C1000601040F27424C2F20000C2F20004017885
:103C200094F83D000A2962D140F60004C4F2010470
:103C300080B140F27420C2F2000001F015FF4FF491
:103C40008070694600900120019002200390204678
:103C500000F08EFD4FF08070206151E040F2601660
:103C600040F2742540F60004C2F20006C2F20005DC
:103C7000C4F20104307895F83D100A2848D1002993
:103C800079D040F27420C2F2000001F0EDFE4FF452
:103C90008070694600900120019002200390204628
:103CA00000F066FD37E040F2601640F2742540F601
:103CB0000004C2F20006C2F20005C4F2010430782A
:103CC00095F83D100A2828D169B340F27420C2F259
:103CD000000001F0C9FE4FF4807069460090012099
:103CE000019002200390204600F042FD18E038B910
:103CF00002F0E8FF204601F08AFF206800214163BE
:103D000040F29010C2F20000016821F080012FE023
:103D100091BB02F0D7FF30782EE041B902F0D2FF1C
:103D200030780A2803D14FF48070206119E02968A7
:103D300004F5105248639142086A20F001000862BD
:103D4000086A40F00100086207D142F64440C4F21C
:103D50000100026842F400420260086840F001007D
:103D6000086040F29010C2F20000016841F080014A
:103D7000016004B070BD0A2040F29011C2F200014F
:103D80000968090604D40A2808D14FF0807003E0BE
:103D90000A280AD14FF480702061EAE7284601F032
:103DA00036FF286800214163E3E7296804F51052D3
:103DB00048639142086A20F001000862086A40F0F6
:103DC0000100086207D142F64440C4F201000268D3
:103DD00042F400420260086840F001000860C8E751
:103DE00010B540F2981040F61004C2F20000C4F280
:103DF00001040178022919D004290BD0052924D106
:103E00001021216040F29011C2F200010A6842F0D4
:103E1000010209E04FF48011216040F29011C2F2DA
:103E200000010A6822F001020A600EE040F29011DF
:103E3000C2F200010A68D20704D10968C90704D197
:103E4000102101E04FF4801121604178022919D03E
:103E500004290CD0052924D14FF40011216040F22F
:103E60009011C2F200010A6822F0020208E020214B
:103E7000216040F29011C2F200010A6842F0020291
:103E80000A600EE040F29011C2F200010A68920747
:103E900005D40968890704D44FF4001100E02021FB
:103EA00021608178022919D004290CD0052924D158
:103EB0004FF40001216040F29011C2F200010A6843
:103EC00002F0F30208E08021216040F29011C2F27A
:103ED00000010A6842F00C020A600EE040F2901104
:103EE000C2F200010A68520705D40968490704D4E0
:103EF0004FF4000100E080212160C178022919D02F
:103F000004290CD0052924D14FF40001216040F28E
:103F10009011C2F200010A6802F0F30208E0802169
:103F2000216040F29011C2F200010A6842F00C02D6
:103F30000A600EE040F29011C2F200010A68120716
:103F400005D40968090704D44FF4000100E080217A
:103F500021600179022924D0042911D005293AD100
:103F600040F2A311C2F200010A7802F0EF020A70D7
:103F700040F29011C2F200010A6822F010020EE035
:103F800040F2A311C2F200010A7842F010020A7056
:103F900040F29011C2F200010A6842F010020A6079
:103FA00019E040F29011C2F200010A68D2060AD468
:103FB0000968C9060FD440F2A311C2F200010A78C1
:103FC00002F0EF0206E040F2A311C2F200010A780B
:103FD00042F010020A704079022824D0042811D03F
:103FE00005283AD140F2A310C2F20000017801F096
:103FF000DF01017040F29010C2F20000016821F070
:1040000020010EE040F2A310C2F20000017841F05E
:104010002001017040F29010C2F20000016841F0EE
:104020002001016019E040F29010C2F20000016826
:1040300089060AD4006880060FD440F2A310C2F2A9
:104040000000017801F0DF0106E040F2A310C2F2A7
:104050000000017841F02001017040F2A31001211D
:104060000A22C2F2000001F0ABFB18B1A720902198
:1040700000F088F84FF0805020604FF480502060AE
:1040800010BD00002DE9F04F81B0804600F03F00E8
:1040900089461646C0F1400B40F2087098FA98F134
:1040A000934588BF9346C2F20000BBF1000F018028
:1040B00008D0023059464A4612F8013B013900F84F
:1040C000013BF9D140F208740BF10200C2F2000486
:1040D00082B2A020214600F081FE00F04BFC18B116
:1040E000A820912100F04EF8A6EB0B0A5FEA0A40E7
:1040F00045D006EB0800B70909EB0B060BEB0805EA
:1041000000F03F00009000BF28BA4FEA1040208026
:10411000DFB100202118325C013040288A70F9D1CB
:10412000A0202146422200F059FE00F023FC18B1E5
:10413000A820912100F026F8AAF1400A4035403627
:10414000013F5FEA0A40DFD119E00098821C00209D
:104150002118335C013082428B70F9D140F2087132
:10416000A020C2F2000100F039FE00F003FC30B1E3
:10417000A820912101B0BDE8F04F00F003B801B0D4
:10418000BDE8F08F70B540F280060C460546C2F2DD
:10419000000632788A4214BF3470FEF7EFFFA4F1B4
:1041A0009000062800F28280DFE800F004224051EF
:1041B0006780830040F21C2142F60000C2F2000139
:1041C000C4F20000096800F5805291420DD141F21D
:1041D000140100F56440C4F202018A6822F48042AE
:1041E0008A604FF4604100F043FA02F047FD76E048
:1041F00040F2AC1142F60000C2F20001C4F200002D
:10420000096800F5305291420DD141F2140100F5D8
:104210006440C4F202018A6822F400128A604FF4FA
:10422000407100F025FA02F031FB58E040F23430E2
:10423000C2F2000001F0C8FF40F27430C2F2000088
:1042400001F0C2FF02F04CFE02F084FE47E040F2B3
:10425000082042F60001C2F20000C4F2000100682A
:10426000884205D140F23C400021C4F24220016066
:1042700004F080F902F016FC31E040F27420C2F242
:10428000000001F0F1FB40F2B420C2F2000001F0A6
:10429000EBFB40F2F420C2F2000001F0E5FB02F07B
:1042A00011FD02F06FFD02F0C1FD18E0FEF766FFA0
:1042B00015E040F2A41043F20001C2F20000C4F283
:1042C000020102688A4207D141F21402C4F20202DA
:1042D000136823F040031360016000F0A7F940F277
:1042E0008400AE21C2F2000001708570447002F0BB
:1042F00048FA0020307070BD70B540F610460D468B
:104300004FF0805114460322C4F20106316040F29E
:104310000871C2F200010A70020CC8704A70020AE9
:1043200008468A700421642201F04AFA18B1A820D4
:104330009021FFF727FF2846214601F0E1F818B148
:10434000A8209021FFF71EFF4FF48050306070BD11
:1043500042F20C0C40F25C71C2F20001C4F2020C99
:104360000A68DCF80030DB070CD04CF2503300BF99
:104370000868801A984284BF03207047DCF8000068
:10438000C007F5D1DCF80000800644BF2020CCF83F
:104390000000DCF80000C00609D4DCF81000C007FB
:1043A00005D1DCF8000040075CBF00207047DCF856
:1043B000000040F2C841C2F20001C00601D4002250
:1043C00004E0C869102240F00200C861DCF8000077
:1043D000400705D5C86942F0040240F00100C861F9
:1043E000DCF81000C00709D0C86940F00400C861BB
:1043F000DCF8100020F00100CCF810000120CCF80F
:10440000002070472DE9F04F81B040F25C780446FF
:10441000C2F20008D8F80070D8F80010C81BA042FB
:1044200035D240F2087540F610494FF4805A4AF6EA
:10443000AA2BC2F20005C4F201096E1C4FF0805095
:1044400001216422C9F8000005202880284601F0D7
:10445000B7F918B1A8209021FFF794FE304601214A
:1044600001F04EF818B1A8209021FFF78BFEC9F893
:1044700000A06878C0070CD043F20000C4F200002E
:10448000C0F800B0D8F80000C01BA042D6D300206E
:1044900000E0012001B0BDE8F08F10B540F61044F7
:1044A0004FF0805006216422C4F20104206040F2E3
:1044B0000870C2F200000170012101F081F918B109
:1044C000A8209021FFF75EFE4FF48050206010BDC1
:1044D000F0B581B040F6104714460D460646C4F2CA
:1044E0000107FFF7DAFF4FF08050022164223860A5
:1044F00040F20870C2F200000170310CC6704170C9
:10450000310A8170042101F05BF918B1A8209021D3
:10451000FFF738FE28462146642201F051F918B110
:10452000A8209021FFF72EFE4FF48050386001B094
:10453000F0BD00002DE9F04F81B0002973D040F6A6
:10454000104740F208760C4683464FF4805A0546E1
:10455000C4F20107C2F20006FFF79FFF4FF0805040
:1045600002216422386001203080304601F028F9B1
:1045700018B1A8209021FFF705FE6420C7F800A01D
:10458000FFF740FF18B9A3209021FFF7FBFDFFF7CD
:1045900084FF4FF080504FEA15494FEA1528042157
:1045A00064223860392086F8019086F8028086F807
:1045B00003B03070304601F003F918B1A820902103
:1045C000FFF7E0FD6420C7F800A0FFF71BFF18B954
:1045D000A3209021FFF7D6FDFFF75FFF4FF080503B
:1045E000042164223860D82086F8019086F8028081
:1045F00086F803B03070304601F0E2F818B1A82018
:104600009021FFF7BFFD4FF4FA60C7F800A0FFF755
:10461000F9FE18B9A3209021FFF7B4FD013C05F580
:104620008035200698D101B0BDE8F08F81B040F20E
:10463000A410C2F200004179A9B943F20003026854
:104640000021C4F2020301719A420CD141F214011B
:10465000C4F202010A6842F040020A60096801F0EF
:104660004001009100990121417101B070470000A3
:104670002DE9F04F81B041F200424FF0000B0127CD
:10468000C4F2010290424FF0040208BF03220092DC
:104690007C1E0122A24012EA010A5FD05D46064656
:1046A000BAF5807F4FF00F0C4FEA94090BF00C0E17
:1046B00024BF203D043633680CFA05F20CFA0EFCD8
:1046C00023EA02020423AB401A4340F6000332609F
:1046D000C4F20103C268984222EA0A02C26040F2B0
:1046E0000042C4F20102A2F57E7858F8292002EABD
:1046F0000C0210D040F60043C4F20103984208D0E7
:1047000041F20003009CC4F20103984208BF022456
:1047100002E0012400E0002404FA0EF39A421DD1C5
:1047200058F829206FEA0A0322EA0C0248F82920E7
:1047300040F20042C4F20102164612681A4032608A
:1047400072681A407260B2681A40B26040F20C425D
:10475000C4F20102164612681A40326031FA07F2BA
:1047600007F101070BF1040B92D101B0BDE8F08F06
:104770002DE9F04F82B040F2004E41F200424FF678
:10478000FF77042300244FF0010C4FF00F0B4FF084
:10479000000A4FF00009C4F20102C4F2010EC1F296
:1047A0001007904208BF0323009300BF0A680CFA69
:1047B0000AF812EA080F00F0D2804E68BE4209DC07
:1047C000032E35D8DFE806F029023F43D1F80C90DC
:1047D00044E000BF4FF6FF72C1F2210296420DDCA9
:1047E0000022C1F21102964217D00022C1F2120239
:1047F000964212D00022C1F221020CE00022C1F246
:104800002202964209D00022C1F23102964204D01F
:104810000022C1F23202964220D18A6882B1012A76
:1048200014BFC0F81480C0F810804FF0080915E0DC
:10483000112E0FD0122E11D1CA6802F10C090DE011
:104840004FF004090AE0CA6802F1080906E04FF0D7
:10485000000903E0CA6802F1040900BF22460346CA
:10486000BAF1080F24BF203A04331D680BFA02F690
:1048700009FA02F2B5432A431A60CA79D2066ED504
:1048800041F218024FEA9A0C40F6000604F00C07B9
:10489000C4F20202C4F201060BFA07F513461268CD
:1048A000B04242F001021A601A6802F0010201925D
:1048B000019AAEF57E7252F82C3023EA050510D02D
:1048C00040F60043C4F20103984208D041F20003CD
:1048D000C4F201039842009B08BF022302E00123B7
:1048E00000E00023BB404FF6FF772B43C1F21007D7
:1048F00042F82C304FF0010CD1F804B05FEACB3213
:10490000DEF8002054BF22EA080242EA0802CEF88C
:1049100000205FEA8B33DEF8042054BF22EA08024D
:1049200042EA0802CEF804205FEACB23DEF8082032
:1049300054BF22EA080242EA0802CEF808205FEAE1
:104940008B234FF00F0B40F20C42C4F201021346CE
:10495000126854BF22EA080242EA08021A600AF109
:10496000010A0434BAF1100F7FF420AF02B0BDE8A1
:10497000F08F00002DE9F04782B040F25C7540F204
:10498000AC14C2F20005C2F20004296894F83D009C
:10499000202816D1226800BF906980070DD52868AD
:1049A000401A1A28F8D300202021206384F83D10F3
:1049B00084F83E0084F83C0003E094F83C000128B1
:1049C00003D1022002B0BDE8F087012084F83C004A
:1049D0001068C00703D1106840F001001060106833
:1049E00001264FF0A00A4FF020086FF4806920F4F0
:1049F00000601060242084F83D0000202064002026
:104A0000CFF6FF70E062106840F4807010604FF0E5
:104A1000011001F01FFD00285BD12268C2F810A030
:104A2000296800BF5069536994F83D70A02F0DD0DC
:104A30009B0A43EA500010F0010007D12868401A91
:104A4000652828BF84F83DA0ECE700BF84F83D80CE
:104A50005069136843F400738007136018D4C2F8D8
:104A600014909069800708D5226800BF2868401A12
:104A7000192825D890698007F8D40136652EC2D14F
:104A8000202084F83D00002084F83C00012099E7B4
:104A9000002001905369019393690193019B9269EE
:104AA000920707D522682B685B1A192B08D89369DF
:104AB0009B07F8D4202184F83D1084F83C0081E75E
:104AC00000202021206384F83D1084F83E0084F803
:104AD0003C00032076E700002DE9F04182B040F26F
:104AE0005C7340F2AC17C2F20003C2F200071C680C
:104AF00097F83D60202E16D1064638688569AD07C7
:104B00000DD51D682D1B1A2DF8D3002020213863E8
:104B100087F83D1087F83E0087F83C0003E097F8DF
:104B20003C30012B03D1022002B0BDE8F08101230B
:104B300087F83C300368DB0703D1036843F00103C7
:104B4000036003680225C0F2010523F400630360DB
:104B5000222387F83D30102387F83E3000233B6442
:104B60007962A5F102117A85F962798D3985F96A40
:104B7000026842F4806211F5803F026018BF01298B
:104B800029D1016841F4807101604FF00110214684
:104B900001F060FCD0BB3869B0F5804F21D146F000
:104BA0000100C0B2396808612846214601F084FC42
:104BB00058BB398D012948D000295CD100200190D3
:104BC000386841690191816901910199016841F455
:104BD0000071016071E00429D3D0396B1129D0D064
:104BE000D3E7062000EAD618386808F1F001016121
:104BF000A81D214601F060FC38B93868F1B20161A6
:104C00002846214601F058FC48B1386C396C002028
:104C100087F83C000320042908BF012084E7002016
:104C20000190386841690191816901910199016898
:104C300041F4807101604FF00110214601F00AFC3F
:104C40000028E3D148F0F100ACE73868016821F4AE
:104C500080610160EFF3108072B600200190386827
:104C600041690191816901910199016841F40071E3
:104C7000016062B621E038680229026813D142F46B
:104C800000610160EFF3108072B600200190386877
:104C900041690191816901910199016821F4806163
:104CA000016062B609E042F4806101600021019177
:104CB00041690191806901900198388D002800F0C8
:104CC0007C80023586B2032E07D8012E1DD12046E6
:104CD00001F030FC002861D078E0204601F02AFC89
:104CE000002873D13868796A00694A1C7A620870B2
:104CF000388D01383885798D0139798539684A6967
:104D0000520757D50869796A4BE02846214601F0D9
:104D1000A1FB022E16D100285ED1EFF3108072B6EF
:104D2000796A3868026842F4007202604A1C0069BD
:104D30007A620870388D01383885788D0138788529
:104D400062B62BE0002847D13868016821F4806101
:104D50000160EFF3108072B6796A38684A1C006906
:104D60007A6208702146388D01383885788D01388F
:104D70007885284601F06EFB70BB3868796A026856
:104D800042F4007202604A1C00697A620870388D31
:104D900001383885788D0138788562B63868796A47
:104DA00000694A1C7A620870388D01383885798D1F
:104DB0000139798501047FF485AF202087F83D0013
:104DC000002087F83E0087F83C00ADE6396C0120F2
:104DD000202908BF0320A7E60320A5E62DE9F0411E
:104DE00082B040F25C7640F2AC17C2F20006C2F22A
:104DF0000007346897F83D30202B16D105463868F7
:104E000083699B070DD533681B1B1A2BF8D3002031
:104E10002021386387F83D1087F83E0087F83C0072
:104E200003E097F83C30012B03D1022002B0BDE82B
:104E3000F081012387F83C300368DB0703D1036866
:104E400043F001030360036840F20208C0F2010866
:104E500023F400630360212387F83D30102387F893
:104E60003E3000233B647962A8F102117A85F96231
:104E7000798D3985F96A11F5803F18BF01290FD165
:104E8000016841F4807101604FF00110214601F08A
:104E9000E1FA08BB3869B0F5804F07D1FE2012E077
:104EA0000429EDD0396B1229EAD0EDE706203968E4
:104EB00000EAD510F030086108F10600214601F043
:104EC000FBFA40B9FF203968284008614046214676
:104ED00001F0F2FA48B1386C396C002087F83C00D8
:104EE0000320042908BF0120A0E7002001903868B2
:104EF00041690191816901910199B7F828C05FEA80
:104F00000C4250D04269120607D4426952052FD490
:104F10003268121B642AF5D92FE07B6A5A1C7A6228
:104F20001A7802617A8D013A7A85ACF101023A85EC
:104F30001104456918BF15F0040109D0991CACF1A2
:104F40000202796259780161798D013979853A8552
:104F5000416994464907D2D44169490508D431686A
:104F6000091B642909D841694907F5D59446C6E764
:104F70006FF480614161042102E0396C41F020014D
:104F8000396400212022396387F83D2087F83C10DE
:104F9000396C042905D1016841F4007101600120D8
:104FA00044E7032042E7016841F4007101602020DA
:104FB00087F83D00002087F83E0087F83C0035E781
:104FC00004F0D8F843F60001C4F20001884218BF8B
:104FD000704741F21C02C4F20202106820F48043C0
:104FE00001F554404FF460411360FFF741BB704737
:104FF0007047406A0021C185C18400F038BE704707
:105000000000000000000000071020210030000810
:1050100040F2040044F6D351C2F20000C1F2620132
:105020000068A0FB01014FF0FF3000EB9111002060
:10503000B0EB116F18BF70474EF21002F023CEF2A2
:10504000000251604EF60C51CEF20001CB750723E1
:10505000906013600A68C875704700002DE9F0473A
:10506000002869D040F2082804468A46C2F20008A7
:10507000D8F80000416849075ED48169C369826934
:1050800048F68906C8F6880682EA01073F041CBF75
:10509000C36911469AB242EA01414BF2C532C9F2E4
:1050A000A212A1FB0227FA0A4FF2F017CFF6FF7700
:1050B00002FB07339FB2A7FB067677096770A7EB61
:1050C000071703EB870345F28017C0F20107A370AF
:1050D000B94234D344F20753CCF22E23A1FB033759
:1050E0004AF6AB233F0CCAF6AA23A2FB03363309C8
:1050F00003EB4303A2EBC3022270026A406A80B250
:1051000040EA0240451A98BF4FF0FF35421C4AF66C
:10511000806208BF0546CFF6FE7207FB02163046D6
:1051200003F0B8F840B9681C14BFA8194FF0FF305D
:1051300003F07EF8002847D00120BDE8F0872270F8
:10514000BAF1000F3DD021784CF6CD40CCF6CC40E2
:105150000A290CD30A39CAB2A2FB0023DA0802EBEF
:105160008203A1EB4301102303EB021300E00023B1
:105170006278194321700A2A0DD3A2F10A01CAB23A
:10518000A2FB0023DB0803EB8302A1EB4202102108
:1051900001EB031300E00023A1781A4362700A298F
:1051A0000CD30A39CAB2A2FB0002D00800EB80027D
:1051B000A1EB4201102202EB001000E000200843A6
:1051C000A0700020BDE8F08745F6294E45F6284935
:1051D0004DF20B7C98F80D3098F80E6098F80F009F
:1051E000012141F2AA52CCF28F2EC0F28F29C0F2D7
:1051F000A30C00BF0C2B14D801FA03F5154207D0FD
:105200001E2E0AD90C2B0AD10130012308E000BF61
:1052100015F4256F08D01D2E01D8013601E00133A9
:105220000126013FE6D12CE0022BFAD11B2E01D83A
:10523000013607E01D2E07D01C2E03D1830706D0B0
:10524000002314E00223ECE701260323E9E783B2FD
:1052500003FB0EF34FEAB3054D4501D9012306E0E8
:105260004FEA331363454FF0000338BF0123002B8F
:105270004FF002034FF01D0608BF032308BF0126AD
:10528000CFE7D9B2F2B288F80F0088F80D3088F86D
:105290000E6002F095FF88F80C0051E7B0B540F2BF
:1052A0000825C2F20005287C012808BFB0BD0120F6
:1052B00040F2245428740220C2F200046874E17899
:1052C0006078A2780B0901F00F0103EB830301EB77
:1052D0004301030900F00F0003EB8303E97300EBC4
:1052E0004303100902F00F0200EB80006B7302EB26
:1052F0004002C8B2D9B2AA73D2B202F061FF2A68E2
:10530000287320709169D069936983EA01042404A9
:105310001CBFD069194680B240EA014045F6907141
:10532000C0F20101884223D344F20751CCF22E216E
:10533000A0FB0112110C40F2A3225143A0EBC114B7
:10534000204602F0A7FF08B1042012E02868016A95
:10535000406A80B240EA0140411C09D0A04207D215
:1053600000F5803000F5A34002F062FF0028EBD189
:105370000120687400202874B0BDB0B540F2082543
:10538000C2F20005287C012808BFB0BD01202874A6
:105390000220687440F25560C2F200008278017801
:1053A0004078130902F00F0203EB830302EB430280
:1053B000030900F00F0003EB830300EB43000B092C
:1053C00001F00F0103EB8303C0B201EB43014FF483
:1053D0006163C0EB0010C9B2594301EB8000D1B248
:1053E0004418204602F056FF08B1042016E0286851
:1053F000416821F005014160016A406A80B240EADB
:105400000140411C09D0A04207D200F5803000F5D0
:10541000A34002F00DFF0028E7D1012068740020AE
:105420002874B0BD70B5C0B3002605464FF0000C1F
:10543000866290F8510020B9286800F031F8D5F85C
:1054400028C0022185F8511095E80E00E8681A433B
:105450000C68104324F040040C602B691843D5E914
:105460000523104303F400721043D5E907241043C9
:10547000204340EA0C00086004206A6A00EA1340F6
:1054800010434860E86A0861C86920F40060C86198
:1054900001206E6585F8510000E00126304670BDA0
:1054A000B0B584B040F60044C4F20104A4F5544100
:1054B000884222D141F21C006D46C4F2020001680C
:1054C00041F4804101602946006800F4804000906A
:1054D00000984FF420400090022001900320039098
:1054E0002046FFF745F94FF4804029460090002000
:1054F000CDE901002046FFF73BF904B0B0BD000044
:1055000070B582B040F21C25C2F200056C68B4F59B
:10551000827F72D1AA68002A6FD1042285F85120B7
:1055200095F85020012A6CD040F25C7E012285F86B
:105530005020C2F2000EDEF8004095F85120042AF7
:1055400002D0012A40F0B18000284FF0010200F0A3
:10555000FA80002900F0F78095F851200023012AF5
:1055600004BF052285F851206B65A863E987A987E8
:105570002863E986A9862B646B642A68116849064A
:1055800003D4116841F040011160EB68E98EB3F576
:10559000006F40F08C800129844606D184463CF897
:1055A000021BD160E98E0139E9862A68012100BF1A
:1055B000EB8E1BB9EB8F002B00F0BD8051B1EB8E51
:1055C0004BB193689B0706D53CF8021BD160E98E6E
:1055D0000139E9860021EB8F4BB19368DB0706D0D8
:1055E000D16820F8021BE98F0139E9870121DEF833
:1055F00000301B1B642BDBD3A4E095F85020012A5C
:1056000001D10222BEE040F25C7E4FF0010C85F831
:1056100050C0C2F2000EDEF8003095F85120012A89
:1056200041D100284FF0010200F0A780002900F0CE
:10563000A480042285F8512000226A65A863A98706
:10564000E9872A63AA86EA862A646A64A968B1F5AA
:10565000004F296803D10A6822F480420A600A6870
:10566000520603D40A6842F040020A60EE68EA8FEC
:10567000002E4CD0002A6DD02A6800BF8E68F60735
:1056800006D1DEF80010C91A632907D95FE000BF10
:10569000C96820F8021BE98F0139E987E98F0029E1
:1056A0001146EBD156E0022267E002224BE00129CD
:1056B000844606D184461CF8011B1173E98E01391A
:1056C000E9860122E98E09B9E98FA1B35AB1E98EC1
:1056D00051B129688B689B0706D51CF8012B0A730A
:1056E000E98E0139E9860022E98F51B129688B687A
:1056F000DB0706D0C968012200F8011BE98F0139D8
:10570000E987DEF80010091B6429DBD31AE00AB32D
:105710008A68D20705D1DEF80010C91A632906D9B4
:1057200015E0097B00F8011BE98F0139E987E98F52
:1057300079B12968ECE7022001216422234602F0B6
:10574000DBFD10B30322012085F8510017E003228E
:1057500013E06C68B4F5827F0BD1A868B0F5004FF8
:1057600002D0B0F5806F04D12868016821F04001B3
:1057700001606A6D002A18BF012285F851C000201F
:1057800085F85000104602B070BD802000216422D0
:10579000234602F0B1FD38B1686D012240F02000CF
:1057A000686520206865CEE7A86800220028CAD175
:1057B00001922868C1680191806801900198C2E750
:1057C0002DE9F04182B040F21C261446C2F20006D8
:1057D00096F85020012A01D102228BE040F25C7C35
:1057E0004FF0010886F85080C2F2000CDCF800503F
:1057F00096F85120012A4CD100284FF0010274D0B4
:10580000002972D0032286F851200022726530638D
:10581000B186F186B263B287F28732647264B1688E
:10582000B1F5004F316803D10A6842F480420A6042
:105830000A68520603D40A6842F040020A60F76818
:105840007268B7F5006F26D112B1F28E012A05D128
:1058500030F8022BCA60F28E013AF286F28EE2B381
:105860003268671C8B689B0708D46FB1E4B3DCF81F
:105870000010491BA14207D336E000BF30F8023BBD
:10588000CB60F18E0139F186F18E00291146E9D104
:1058900023E0022229E012B1F28E012A05D110F88C
:1058A000012B0A73F28E013AF286F28EAAB1621CC3
:1058B0008B689B0708D46AB1B4B1DCF800305B1B7D
:1058C000A34207D310E000BF10F8013B0B73F38E27
:1058D000013BF386F38E002BEAD102200121224600
:1058E0002B4602F009FD48B10322002086F85180C2
:1058F00086F85000104602B0BDE8F08180200021FB
:1059000022462B4602F0F8FC38B1706D012240F0BF
:105910002000706520207065E7E7B06838B9002086
:1059200001903068C1680191806801900198726DA2
:10593000002A18BF0122D8E790F83C30012B4FF025
:1059400002031FD080F83D30D0F800C0DCF80430EE
:1059500023F07003CCF80430DCF804301943002342
:10596000CCF80410DCF8081021F08001CCF8081005
:10597000DCF808101143CCF80810012180F83D1024
:1059800080F83C301846704780B584B00068B0F1AC
:10599000804F0ED040F20041C4F2000188420AD08C
:1059A00042F60041C4F20101884210D14FF48070E8
:1059B00002E0012000E040200090022069460190B2
:1059C000039040F60000C4F20100FEF7D1FE04B0DF
:1059D00080BDF0B590F83C20012A4FF0020241D082
:1059E0004FF0010C80F83CC080F83D200268136A3B
:1059F00023F001031362146A566893690D688F6877
:105A000023F0730343EA050E24F0020342F6004438
:105A1000C4F20104A24247EA03040CD124F00C03AF
:105A2000CC68D1E9055724F004041C4326F44073E4
:105A30002B4343EA07065660C2F818E04B68096931
:105A400053631462936943F008039361936923F0ED
:105A500004039361936919439161002280F83DC06A
:105A600080F83C201046F0BD022141F2111380F86D
:105A70003D1001680A6A1A4208D10A6A40F244439A
:105A80001A4203D10A6822F001020A60B1F1804F84
:105A900014D040F20042C4F20002914216D042F605
:105AA0000042C4F20102914218D141F21801C4F23D
:105AB00002010A6822F400620A600FE041F2180154
:105AC000C4F202014A6822F0010206E041F2180124
:105AD000C4F202014A6822F002024A60002180F802
:105AE0003D1080F83C107047D0B110B583B090F8ED
:105AF0003D1000294ED00168022240F2FF7E42F69E
:105B0000004C80F83D20C4F2000EC4F2010C0B687A
:105B1000714507DCB1F1804F0CD040F2004205E046
:105B200001207047614505D040F60002C4F2000232
:105B3000914203D1826823F070031343714505DC61
:105B4000B1F1804F0AD040F2004203E0614505D038
:105B500040F60002C4F20002914203D1026923F42C
:105B60004073134323F080028369D0F804E0C468D3
:105B7000614542EA03020A60CC62C1F828E002D122
:105B80004269CCF8302001224A6180F83D20002093
:105B900003B010BD0168002280F83C20B1F1804FB5
:105BA00019D040F20042C4F20002914221D042F6E4
:105BB0000042C4F2010291429ED141F21802C4F2A5
:105BC0000202136843F400631360126802F4006277
:105BD0000292029A90E741F21802C4F2020253685C
:105BE00043F001035360526802F001020192019AEE
:105BF00082E741F21802C4F20202536843F0020342
:105C00005360526802F002020092009A74E7016841
:105C100042F6004CC4F2010C0B6A614523F001030B
:105C20000B620B6A0B6210D1DCF8203041F21112CA
:105C300013420AD10A6A40F244431A4205D1DCF801
:105C4000442022F40042CCF844200A6A41F21113A5
:105C50001A4208D10A6A40F244431A4203D10A6840
:105C600022F001020A60012180F83D10704781B0E6
:105C700040F2343200210091C2F20002126813682F
:105C8000009353680093009B00911368009353683E
:105C90000093009B00911368009353680093009B4E
:105CA00000911368009353680093009B0091136860
:105CB000009353680093009B5268C16340F23050D8
:105CC000C2F20000016001B07047B0B5054600683F
:105CD0000168C268436901F02F04202C07D112F03B
:105CE000200404D02846BDE8B04002F0FFBD5FEAC2
:105CF000017C1EBF03F0010302F4907414EB030453
:105D000022D111400A060AD4490640F19880C168A0
:105D100021F04001C160202085F83900B0BD95F820
:105D20003910212940F08B80AA68296AB2F5805F7A
:105D30007CD10A886FF35F2242602A69002A14BF6F
:105D400001310231296275E0CC0718BF12F480746A
:105D500003D0EC6B44F00104EC634C0704D51BB199
:105D6000EC6B44F00204EC638C0704D51BB1EC6BC4
:105D700044F00404EC63BCF1000F04D51BB1EB6BE1
:105D800043F00803EB63EB6B002B58D011408906FE
:105D900003D5284602F0AAFD28684169EA6B01F0A4
:105DA000400102F00802891858D0C16821F49071AE
:105DB000C160416921F001014161202185F83A105B
:105DC000416949063CD5416921F040014161686B58
:105DD000B0B390F8211044F6F372C0F60002022925
:105DE000426341D10268116821F00E0111602F2138
:105DF0001368C4F202018A4240F20401C4F20201B3
:105E000023F00103136032DD3023C4F202039A420F
:105E100039D04423C4F202039A4237D05823C4F243
:105E200002039A4237D14FF480333CE04A1C2A6285
:105E300009784160E98C01390A04E98405D0B0BDD4
:105E40002846BDE8B040FFF712BFC16821F08001CD
:105E5000C160C16841F04001C160B0BD2846FFF794
:105E600006FF0020E863B0BD042181631FE0082322
:105E7000C4F202039A420CD01C23C4F202039A42D9
:105E800009D110230FE04FF480730CE04FF48053DE
:105E900009E0012307E001F168054FF08073AA4291
:105EA00008BF4FF480130B604FF480710184BDE88C
:105EB000B040FFF79EB8002800F08C802DE9F04735
:105EC00084B0044690F8390041F2040940F6000518
:105ED000C4F20209C4F2010500287DD0242048F252
:105EE0001F5884F83900C5F2EB182068D4E9021273
:105EF000C36823F40053C360036923F440531A4377
:105F00000261D4E904231143C268194341F20C63CE
:105F10009A431143C1604169A26921F44071114360
:105F200040F204024161C2F2000205F540511268DC
:105F3000D9F80030884200F0A980C3F302216768D5
:105F4000D9F800304EF6480C4FF0190EC0F6000C90
:105F5000C3F30223BD00D9F800701CF801101CF82F
:105F60000330C7F3022722FA01F11CF8077001FB86
:105F70000EF1B1FBF5F122FA07F707FB0EF7B7FBBD
:105F8000F5F7A7FB0876A1FB081722FA03F17309BE
:105F9000642601FB0EF1B1FBF5F103FB1611D9F8F4
:105FA0000060322303EB0111C6F30226A1FB0813A4
:105FB0001CF806606FF00F0101EA570AF02707EAA4
:105FC000531722FA06F3D9F8006003FB0EF3C6F369
:105FD0000226A7E00120704744F200412068002615
:105FE000C4F2000184F83860884200F0CD8043F6A6
:105FF0000001C4F2010188427FF470AFD9F81400A7
:106000006E46314640F48040C9F81400D9F81400B7
:1060100000F48040009000984FF40070009002203F
:106020000190032003902846FEF7A2FB4FF4806006
:10603000314600900020CDE901002846FEF798FB8C
:106040004EF60C504FF0FF32CEF200000068C0F365
:10605000022080F00701042928BF0421033802FA36
:1060600001F14FF0010238BF002022EA010101FADC
:1060700000F04EF225410001CEF2000108704EF210
:1060800004102021CEF20000016027E74EF6480CF4
:10609000C3F3C2264FF0190EC0F6000C1CF80660C0
:1060A00022FA06F505FB0EF76568D9F80030C3F350
:1060B000C223D9F80060AD001CF80330B7FBF5F738
:1060C000C6F3C2261CF8066022FA03F303FB0EF3A4
:1060D00022FA06F6B3FBF5F306FB0EF6B6FBF5F671
:1060E000A6FB0861A7FB08674909642601FB163176
:1060F000D9F80060322303EB0111C6F3C226A1FBDD
:1061000008131CF806606FF00F0101EA570AF02728
:1061100007EA531722FA06F3D9F8006003FB0EF3DF
:10612000C6F3C2261CF80660B3FBF5F1F24002FB91
:106130000EF2B2FBF5F307EB0A02CF1AA3FB081627
:106140007109642601FB16313223394403EB011136
:10615000A1FB0813C3F3431111438160016921F4CA
:1061600090410161416921F02A014161C16841F416
:106170000051C16000202021E06384F8391084F8C8
:106180003A1004B0BDE8F087D9F81800E846414657
:1061900040F40030C9F81800D9F8180000F40030B5
:1061A00000900098042000900220019003200390AA
:1061B0002846FEF7DDFA08204146CDE900062846CC
:1061C0000296FEF7D5FA89E610B544F20041006860
:1061D000C4F20001884212D043F60001C4F201016A
:1061E000884218BF10BD41F218002024C4F20200FA
:1061F000016821F4804101604FF4C06109E041F27F
:1062000018004024C4F20200416821F400314160CA
:106210000C2140F60000C4F20100FEF729FA4EF20C
:106220008410CEF200000460BFF34F8FBFF36F8F76
:1062300010BD00002DE9F04381B040F27435914665
:10624000C2F2000595F83A20202A08D107464FF0FF
:10625000010428B121B195F83800012804D10224A5
:10626000204601B0BDE8F0830120002485F8380005
:106270002220EC6385F83A0040F25C70C2F2000024
:10628000D0F80080A985E985E88D20B3E88D20212C
:1062900042464B460138E8852846AE6802F02AFFA0
:1062A000B6F5805F08D1E0B928682969406869B10E
:1062B000C0B227F8010BE7E798B928682969406858
:1062C00009B100F07F0007F8010BDDE76FF35F20F5
:1062D00027F8020BD8E7202085F83A0085F83840E7
:1062E000BEE70324BCE740F23431C2F2000191F86A
:1062F000382091F83A0020284FF002001ED1012AE0
:1063000008BF704740F228502222C2F20000886283
:1063100001208885C8850020C86381F83A2081F86B
:1063200038000A68D16841F48071D160516941F048
:1063300001015161D16841F02001D1607047000036
:106340002DE9F041044690F8390020280AD10E4684
:1063500000294FF001004BD0002A49D094F83800B2
:10636000012802D10220BDE8F08101201D4684F8F9
:1063700038000020E063212084F8390040F25C708E
:10638000C2F20000D0F80080A284E284E08CF8B170
:10639000E08C802142462B460138E0842046A768E5
:1063A00002F0A8FEB7F5805F0CD1C0B93088216932
:1063B00022686FF35F200029506014BF0136023657
:1063C000E4E700BF58B916F8010B21684860DDE723
:1063D0002046402142462B4602F08CFE10B103209D
:1063E000BDE8F081202084F83900002084F83800CE
:1063F000BDE8F08110B581B04FF0000E01304FF0D4
:10640000370CCDF800E000BF009C0B7874B103F0AE
:106410000F03013103F13004092B88BF03F1370466
:1064200000F8014CCDF800E00CE000BF1C099F2BE8
:1064300004F1300488BF0CEB131400F8014C009BEE
:1064400001330093013A00F801EB1304DCD101B0F1
:1064500010BD000010B540F2AC1C00F47F0E1822F5
:1064600080B2C2F2000CBEF5803FDCF8004008BFED
:10647000142254F802E00EEA000383420DD040F2E9
:106480005C7EC2F2000E00BFDEF800305B1A652BA6
:1064900005D2A35803408342F6D1002010BD00204E
:1064A0002021CCF830008CF83D108CF83E008CF8A0
:1064B0003C00032010BD000010B540F2AC1C40F2BF
:1064C0005C7E00F47F0380B2C2F2000CC2F2000EC8
:1064D000DCF80020B3F5803F0CBF54699469044098
:1064E000844211D05469640510D4DEF80040641A67
:1064F000652CEFD300202021CCF830008CF83D1023
:106500008CF83C00032010BD002010BD1068202135
:1065100040F4007010606FF4806050610420CCF88B
:1065200040000020CCF830008CF83D108CF83C0086
:10653000012010BD40F2AC1C40F25C73C2F2000CB2
:10654000C2F20003DCF800205169490644BF002074
:1065500070475169C9060BD41968091A6529F3D324
:10656000DCF8400040F02000CCF84000032008E0B8
:106570006FF0100050610020CCF84000CCF83000E3
:10658000012020218CF83D1000218CF83C10704730
:106590002DE9F04187B04CF600240023B1F1FF3F14
:1065A000C3F69A3402930193009403DC019C4942A0
:1065B000013401940393039B092B3BD84CF6CD4C3B
:1065C00004AB4FF02D0E4FF00108CCF6CC4C00BFC1
:1065D000009D039EB1FBF5F505F130059D55009D2D
:1065E000009FB1FBF5F6A7FB0C744FEAD40406FB41
:1065F0001511009442B9039C1C5D029D4455029CF8
:106600004CB1029C01340294039C01340394039C1A
:106610000A2CDDD30EE0039C1C5D302CF4D0019CD1
:10662000002CEED080F800E0039C1C5D4470CDF897
:106630000880E6E7DAB100210291019B002B1346A6
:1066400004D0012302932D230370531CC15404A9C9
:10665000039B7BB1039B013AD6B2013B002E03930F
:10666000039BCB5C029F3744C355F1D102E00299F2
:106670000022425407B0BDE8F081B0B586B040F2C8
:106680003844C2F200042088F0B340F23A450020BA
:106690004FF6F071C2F2000505900490039002904D
:1066A000288801441038090A8DF807008DF8061073
:1066B000FEF760F918B1A6209121FDF763FD0DF1F9
:1066C0000601A0201222FEF789FB18B1A620912115
:1066D000FDF758FDFEF74EF918B1A6209121FDF700
:1066E00051FD2888218810384A1E288040F24A70BF
:1066F00013042280C2F20000017804BF01F0FE0101
:10670000017001F0FD01017006B0B0BD80B582B02E
:1067100040F23840C2F20000008878B340F23A40BC
:106720004FF6F071C2F20000008801441038090AE7
:106730008DF807008DF80610FEF71CF918B1A62099
:106740009121FDF71FFD0DF10601A0200222FEF7A9
:1067500045FB18B1A6209121FDF714FD40F24050F1
:106760001022C2F20000C11DA020FEF7B5F918B139
:10677000A6209121FDF706FD002000E0022002B0D6
:1067800080BD70B586B040F23A4540F24A7443F697
:10679000F071C2F20005C2F200042888884203D3D7
:1067A000207840F002006EE040F23C46010A8DF88D
:1067B0000700C2F200068DF80610318808BA000CF6
:1067C000ADF8080040F28400C2F200000178B0F891
:1067D00001208DF80A10D0F80310ADF80B20C27913
:1067E000CDF80D1040F224518DF81120C2F20001B5
:1067F0004A788B78C9788DF8141040F255618DF87D
:1068000013208DF81230C2F200010A78B1F801109D
:10681000ADF8161000218DF81520C0E90011816037
:106820008181FEF7A7F818B1A6209121FDF7AAFCF7
:106830000DF10601A0201222FEF7D0FA18B1A62011
:106840009121FDF79FFCFEF795F818B1A620912144
:10685000FDF798FC40F238412888C2F200010A880E
:106860001030288080B201320A80318843F6F072FD
:106870009042207801F10101318024BF40F00200F4
:10688000207040F00100207006B070BD70B586B079
:1068900040F2AC14C2F2000494F83D00002840F02D
:1068A000FE8045F2004041F6802100254FF48042F1
:1068B00041F21006C4F20000C0F20601C4F2020662
:1068C00084E82300C4E90352C4E90555C4E9075527
:1068D00094F83D20002A42D184F83C50B06840F042
:1068E0000800B060B06800F0080002900298B0683C
:1068F00040F00100B060B06800F001000290029822
:106900000420C4F20100016841F0E06141F002019D
:1069100001604FF4407002A902901220CDE90305F6
:106920000320059040F60040C4F20100FDF720FF6F
:10693000F06840F40010F060F06800F4001001907E
:10694000019800BFF0688002FCD5306840F4001068
:106950003060306820F400103060D4E90001242257
:1069600084F83D20026822F00102026040F2040235
:10697000C2F20002126856F80C3C4EF64806C0F609
:106980000006C3F30223F35C40F60016C0F23D0696
:10699000DA4048F28043C0F21E039A424FF00003EF
:1069A00038BF0123B24248F2A16638BF0125C0F2C8
:1069B0000106B14238BF1D4635B1A420912106B071
:1069C000BDE87040FDF7DEBB4DF68363C4F21B33B8
:1069D000A2FB0336B30C48F2A066C0F20106436086
:1069E000B1420CD8013A49000133B2FBF1F1036224
:1069F00001316FF31F31042998BF042136E04FF4B1
:106A00009676013A734344F6D356C1F26206A3FB6D
:106A10000636012303EB96130362A36843B11926DC
:106A200004254E43B2FBF6F6013665F31F3606E049
:106A300001EB4106B2FBF6F601366FF31F36360561
:106A400009D053B119235943B2FBF1F104220131AA
:106A500062F31F3108E0012108E001EB4101B2FBC4
:106A6000F1F101316FF31F3141F40041C16104F1D3
:106A70000C06D4E90712114301604ECE1143816028
:106A800046EA0301C160016841F001010160002094
:106A90002021206484F83D10206384F83E0006B075
:106AA00070BD000070B582B042F6040040F20824C8
:106AB00000214FF0FF33C4F20000C2F20004021FB5
:106AC000C4E90023A160627CBAB9217420210122AB
:106AD000C4F20E210A6041F21C01C4F202010B68EB
:106AE00043F000630B60096801F0006101910199B6
:106AF00040F23C41C4F242210A60022140F25C763D
:106B000046F604456174C2F20006C4F2000501684D
:106B100021F0080101603268036831681B070AD45C
:106B2000891AB1F57A7FF7D942E000BF3268521A6C
:106B3000B2F57A7F3CD802689206F7D5016841F039
:106B400010010160016821F007010160A16819B11D
:106B5000EA6A22F00102EA62AA6A22F46072114330
:106B6000A96261684A1C0CD141F21C0140F2023357
:106B7000C4F202014A681340B3F5817F69D147F638
:106B8000FF71426822F00F0242EA114242608268BD
:106B900061F30F028260016821F010010160316829
:106BA000026892064DD43268521AB2F57A7FF7D94C
:106BB000042060744AF2A553286882B240F238502B
:106BC000C2F200009A4201680FD141F04001016019
:106BD00040F224516868C2F200018870A8684870C9
:106BE000E86808702869C87015E021F0400101606C
:106BF00040F255601221C2F2000001800021817034
:106C000040F2245040F20111C2F20000C2F2010130
:106C10000160FEF7B2FBFEF741FB2068416821F0FE
:106C200008014160316800BF4268120704D432682D
:106C3000521AB2F57A7FF7D94AF2A550286002B00D
:106C400070BD0020E07340F20110A4F80D00012097
:106C5000AFE702F44072B2F5407F08D0B2F5007F92
:106C6000A6D189688907A3D549F63F4189E751F83C
:106C70001C1C89039CD54FF2234182E780B540F26A
:106C80001C2043F600014FF4827200234FF4007C75
:106C9000C2F20000C4F2000180E80E000721C0E942
:106CA0000333C0E9053CC361C0E90833C0E90A31D8
:106CB000FEF7B8FB28B1A4209021BDE88040FDF785
:106CC00061BA80BD10B588B040F2742442F600402D
:106CD0004FF4817100226423C2F20004C4F2010067
:106CE00084E80F002046C4E90422A261FEF7FCFEFE
:106CF00018B1A4209421FDF745FA94F83C0001282E
:106D000004D1A4209421FDF73DFA12E002204FF6B1
:106D1000777284F83D0020688168914381608168C2
:106D200021F007018160012084F83D00002084F8F3
:106D30003C0040F2742000210022C2F20000FEF765
:106D4000FBFD18B1A4209421FDF71CFA602001ACD2
:106D500018210190201DFCF706FA40F2742021460C
:106D6000C2F20000FEF735FE18B1A4209421FDF711
:106D700009FA40F27420C2F2000008B0BDE81040E9
:106D8000FEF702BEB0B588B040F2B4204FF08041AB
:106D9000002347224FF47A75C2F2000080E82E00EB
:106DA00003618361FEF7A0FE18B1A4209421FDF7D2
:106DB000E9F940F2B420002100220024C2F20000D0
:106DC000FEF7BAFD18B1A4209421FDF7DBF960208D
:106DD00001A901906420CDE90204059440F2B42495
:106DE000C2F200042046FEF7F4FD18B1A42094215D
:106DF000FDF7C8F942F600452046C4F20105FEF74A
:106E0000C3FD2068016AA84221F001010162016A04
:106E100041F00101016203D1696C41F400416964F0
:106E2000016841F00101016008B0B0BDB0B588B0A3
:106E300040F2004540F2F42040F2CF2100226423CA
:106E4000C2F20000C4F20005C0E90051C0E902230B
:106E500002618261FEF748FE18B1A4209421FDF77B
:106E600091F940F2F420002100220024C2F2000037
:106E7000FEF762FD18B1A4209421FDF783F960208C
:106E800001A9CDE901040394059440F2F424C2F26F
:106E900000042046FEF79DFD18B1A4209421FDF7C3
:106EA00071F92046FEF770FD206805F59432016AFD
:106EB000904221F001010162016A41F00101016289
:106EC00007D142F64441C4F201010A6842F400428B
:106ED0000A60016841F00101016008B0B0BD000026
:106EE00080B540F23C5211A140F2343043F6000E1E
:106EF0004FF00C0C0023C2F20002C2F20000C4F2F8
:106F0000010E127851F82210C0E900E1C0E9023305
:106F1000C0E9043CC0E90633FEF7CDFF28B1A42048
:106F20009221BDE88040FDF72DB980BD60090000C9
:106F3000C012000080250000004B000000960000F9
:106F400000E1000000C20100008403000008070007
:106F500000100E0080B540F2743044F2004E4FF441
:106F600016524FF00C0C00234FF48051C2F2000077
:106F7000C4F2000EC0E900E2C0E90213C0E9043C1B
:106F8000C0E90633FEF797FF28B1A4209221BDE89F
:106F90008040FDF7F7B880BD2DE9F04F85B043F292
:106FA000000B012040F240520221C4F2020BC2F257
:106FB0000002CBF808004FF481701170ADF8120098
:106FC00040F2C740C2F2000000789070D0780132E1
:106FD00001920330C9B2CBF8001018B112F8011BAE
:106FE0000138F7E740F24051DBF8000040F2743717
:106FF00040F25C794FF0050802ADC2F20001C2F226
:107000000007C2F200090A46C9781144087100BF9E
:10701000002000F0D9F838460DF1120101220423B6
:10702000FFF78EF98246012000F0CEF840F2405082
:1070300048F2B511C2F20000C1F64E310446C078E4
:10704000021D42F210705043A0FB0101032000EB2F
:10705000912301993846FFF773F9627801461B20A6
:10706000A2F10A031E2B0DD840F201442E463D46E4
:10707000012707FA03F3C4F200042F4635462342E2
:1070800040F086807F2A00F0838001EB0A00396897
:107090004FF4E472C6B2486807210020CDE902002F
:1070A0002846FFF7C7F84042C0B2864264D19DF837
:1070B0000800022860D140F240519DF80900C2F258
:1070C00000018978884257D140F240509DF80A105B
:1070D000C2F20000407881424ED19DF80B00022898
:1070E0004AD34FF00101CBF808100BD19DF80E00E8
:1070F00002220121D2B20629CBF8002036D06A5CE8
:107100000131F7E740F240539DF80D109DF80E2035
:10711000C2F200035871023803F108061970DA71DF
:107120004FF4E47281B23046FFF784F8002000BFCC
:10713000295C01300728CBF80010F9D1DBF80000FA
:1071400040F24050C2F200004179084403394079CE
:1071500006D000BF16F8012B0139CBF80020F9D179
:10716000DBF80010C9B2884206D114E0DBF8001049
:10717000C9B288421BD000BFD9F80000D9F800106E
:10718000091A0429FAD3B8F101087FF441AF152098
:1071900005B0BDE8F08F40F240500022C2F200007E
:1071A0000146407901449DF80C004A71F0E740F235
:1071B00040510120C2F2000148710A469DF80D10AD
:1071C0009DF80C001170E3E7B0B540F2743444F25E
:1071D00000414FF41652C2F20004C4F200012160D3
:1071E000626018B1012804D1002001E04FF4805002
:1071F000A06000250C20C4E90355C4E9050524203E
:10720000E56184F839002046FEF7DEFF2046E5639D
:1072100084F8395084F83A5084F83850FEF74BFE21
:1072200028B1A2209221BDE8B040FCF7ABBFB0BDB1
:1072300040F21440C4F201000168C90344BF4FF496
:1072400080310160704780B5142000F0DCF88007C1
:1072500018BF80BD142000F0D6F840F003011420C0
:10726000BDE8804000F09FB910B582B004460D2003
:10727000002100F098F942F293000DF1060C21462E
:107280000222234620800C20CDF800C000F0FEF83A
:1072900070B914F8011B0020002200BFC9B2484099
:1072A000A15C0132042AF9D1401A18BF0120400024
:1072B00002B010BD80B586B060218DF80B000DF1D5
:1072C000160C8DF80A1040F2A041CDF800C0C2F2B1
:1072D00000010A68888840F26411C2F2000109685E
:1072E0000392ADF810000E200C22CDF812100DF113
:1072F0000A010B4600F0CAF820B9082000F083F814
:10730000000701D4022000E0002006B080BD00008C
:1073100070B50646052014460D4600F074F800F0DE
:10732000FB01052000F03FF90A2000F06CF840F066
:1073300080010A2000F037F916F8011B092000F03F
:1073400032F9013DF8D10120032100F02CF96FF052
:10735000FD0500BF052000F056F825B110F004002F
:1073600005F10105F6D0222000F04DF82070212013
:1073700000F049F8607070BD10B584B050200DF178
:107380000A040221ADF80A00A21C2046FFF7C0FF44
:107390000DF10E0C0C20214604222346CDF800C02E
:1073A00000F074F8082000F02EF800F0F701082033
:1073B00004B0BDE8104000F0F6B8F0B585B00C465A
:1073C00030210DF10A058DF80B0002278DF80A1007
:1073D000AA1C28460221FFF79BFF0DF112060C2084
:1073E000294604222346009600F050F8BDF81210FA
:1073F00090294FF0020108BF0146002818BF394606
:10740000084605B0F0BD80B582B08DF807000020B9
:107410000DF1070101228DF806007E20FDF7DEFC4C
:1074200018B1A1209121FCF7ADFE0DF106017F20DE
:107430000122FDF751FB18B1A1209121FCF7A2FE1A
:107440009DF8060002B080BD10B582B004460D2044
:10745000072100F0A8F826200DF1060C2146012294
:10746000234620700C20CDF800C000F00FF8BDF8C6
:107470000610022210294FF0020108BF0146002821
:1074800018BF1146084602B010BD00002DE9F047B4
:107490009A46164605460C280F4605D00E2D07D1F4
:1074A0004FF01209112406E04FF07709312402E071
:1074B0004FF000090124DDF8208009F1800102204D
:1074C00000F071F80420FFF79EFF00F07F01042018
:1074D00000F069F80A20FFF796FF40F080010A20CB
:1074E00000F061F80120002100F05DF817F8011BA1
:1074F000092000F058F8013EF8D10120294600F09B
:1075000052F80C2D07D10D20FFF77DFF40F08001D0
:107510000D2000F048F86FF0C60000BF07460420B9
:10752000FFF771FF064627B114EA060007F10100D4
:10753000F4D00D20FFF767FF00F07F010D2000F071
:1075400032F82FB10620FFF75EFF10F01B0F03D0BB
:1075500002252846BDE8F08709EA06000C2D00F058
:107560000105F6D10A20FFF74EFF06460C20FFF773
:107570004AFF10F007004FF000040EBFF00040EA91
:10758000C6000838A8F80000002E08BF0126102EFB
:1075900028BF10260920FFF736FF0AF8040001343F
:1075A000B442F7D3D5E780B582B08DF806008DF8E8
:1075B00007100DF106017E200222FDF70FFC18B125
:1075C000A1209121FCF7DEFD02B080BD80B540F224
:1075D00028500021C2F20000017040F22C50C2F28B
:1075E0000000016040F23050C2F20000016040F241
:1075F000E840C2F20000016040F20900C2F200005F
:10760000017040F25060C2F20000016040F2405050
:107610004FF48071C2F20000FBF7A5FD40F61000A8
:107620004FF00061C4F20100016040F23430C2F258
:10763000000090F83A10222909D10168CA6822F0A6
:107640002002CA60202180F83A1080F83910FEF735
:107650004AFE18B1A3209221FCF794FD40F2A0103D
:107660000121C2F20000017080BD000010B540F29F
:10767000405E40F2466440F24C6CC2F2000EC2F230
:107680000004C2F2000C9EF8002024888EF8051039
:107690008EF80620AEF80340DCF800408EF8024079
:1076A000DCF8004001F1060C8EF800004FEA1424CB
:1076B0008EF8014061B1BCF1070F0AD00EF107044A
:1076C000481E00BF14F8013B01381A44FAD100E00B
:1076D0000022100A0EF80C0001EB0E0004210172CA
:1076E00040F25C71C27140F25860C2F20001C2F215
:1076F000000000BF0A680368D21A032AFAD340F6D2
:10770000100400212D230160C4F201044FF4006035
:10771000714620609EF8050000F1090240F2343005
:10772000C2F20000FEF70CFE18B1A3209221FCF774
:1077300029FD4FF00060206010BD00002DE9F04FE2
:10774000ADF5026D83B040F24068C2F20008D8F88F
:107750000000C0071DD040F25C7040F23011C2F250
:107760000000C2F2000100680968401A41F22E616F
:1077700088420ED3D8F8000020F00100C8F80000BD
:1077800040F24A70C2F20000017801F0F3010831C2
:10779000017040F2A010C2F200000078022840F010
:1077A000998443F200004AF6AA21C4F20000016065
:1077B00040F2E840C2F200000168012965D140F2C0
:1077C0004054C2F200042178A1F16400182800F2AC
:1077D000F98040F2241200200123C2F2000210605E
:1077E00040F22010C2F20000036040F244106378BF
:1077F000A778C2F20000017047EA032040F22C1380
:1078000040F20817C2F20003C2F20007186040F20B
:107810002813D4F80300C2F2000300BA1860D4F8A9
:10782000070000BA386040F21C17D4F80B00C2F20F
:10783000000700BA386040F23417D4F80F0040F265
:107840004A74C2F20007C2F2000400BA3860A1F123
:1078500077072078022F80F01981002301EB410285
:1078600000F07F007729CFF6D463207003EB02424B
:1078700040F21813C2F200031A6000F02B8178293D
:1078800040F02E814FF4701026E10068022840F08D
:107890000E8440F2201740F24056C2F20007C2F2B6
:1078A000000638683178727842EA0121884240F057
:1078B000EB8040F2181AC2F2000ADAF80000002841
:1078C00000F0E280386843F2000540F24869B41CD9
:1078D000C4F20205C2F20009012804BF0120A86019
:1078E000DAF80000D9F8001002398AB22146FCF714
:1078F000EFFD6420FCF786FD18B9A8209021FCF765
:1079000041FCD9F80000023805D000BF14F8011B73
:1079100001382960FAD140F204102968C2F200004F
:107920000160D9F80010DAF80020114440F22C125E
:107930000239C2F20002CAF8001039681268914296
:1079400040F0E28040F20811006840F2441440F236
:107950002419C2F20001C2F20004C2F2000909684F
:10796000884240F0E8802078772840F0D0824FF4B9
:1079700004500622ADF8140040F22810C2F20000B4
:107980000168090E8DF816100168090C8DF81710A2
:107990000168090A8DF8181005A900688DF819000A
:1079A000A020FDF71BFA18B1A3209121FCF7EAFBF8
:1079B000FCF7E0FF002800F01483A3209121FCF7DE
:1079C000E1FB0EE3A1F1BC001F2800F2A28001261A
:1079D00006250127DFE810F020005F035F035F0347
:1079E0006E035F03B2005F035F035F03A3015F03E6
:1079F0005F035F035F035F035F035F035F035F0377
:107A00005F03C101DE0112025F0315025C026A021C
:107A10007A025F0383028F02572005A901228DF8A5
:107A200014002520FCF72EFB4FF4960001214FF4A3
:107A30009604FCF77FFD43F200074FF000080BAD02
:107A4000C0F60007002600BFB85DA8550136B6F5A0
:107A5000807FF9D1204629464FF4807208F580785E
:107A6000FCF736FD6420FCF7CDFC374418B9A320A1
:107A70009021FCF787FBB8F5504F04F58074E1D3F3
:107A800001260625012715E31525C9E240F218173E
:107A900000F0BF0001EB41012070C2F200074FF47B
:107AA000900038606327176040F21412C2F200029F
:107AB00010600022CFF6D46202EB014140F20C12BA
:107AC000C2F20002116040F210121968C2F2000204
:107AD000116001E04FF464100321FCF72BFD2078C6
:107AE00040F25C7140F2301200F0F700C2F2000187
:107AF000C2F20002096811602070D8F8000040F05E
:107B00000100C8F80000D2E238680625013038606C
:107B10007CE2A32900F0F381E92940F0BC82FFF761
:107B20003BFA1B2840F0AC8240F209000221C2F26D
:107B300000000170CCE21525082054E240F25C7090
:107B400040F2301142F21006C2F20000C2F200010F
:107B5000C4F2020600680860D8F8000040F0010096
:107B6000C8F80000306800060CD540F22310C4F2BB
:107B7000675046F80C0C48F6AB10CCF6EF5046F8C0
:107B80000C0C306840F2C848C2F2000898F818009F
:107B9000012800F05B82012088F81800FCF7D8FB70
:107BA000002840F0508243F200054FF000640027A7
:107BB000C0F60005C8F81C70306840F00200306064
:107BC0007460306840F040003060FCF7C1FB316801
:107BD000002821F00201316040F0358204F5806414
:107BE000AC42E7D300204FF6FD794FF000674FF429
:107BF00070154FF440540DF12C0A4FF0010B88F82A
:107C00001800C0F60009306840F08000306020465F
:107C1000B4F5006F514628BF4FF40060039082B264
:107C20002846FCF769FB306800060CD540F22310AB
:107C3000C4F2675046F80C0C48F6AB10CCF6EF5087
:107C400046F80C0C30684F455AD2039880080290D1
:107C500056D098F8180000220497CDE90054012866
:107C600000F0F48155465AF822A0144688F818B05E
:107C7000FCF76EFB002840F0E681DDF810B04FF015
:107C80000009B9F120012AFA09F04FF00001C8F803
:107C90001C10316858BF002041F001013160ABF881
:107CA0000000FCF755FB3168002821F0010131602C
:107CB00040F0C98109F110090BF1020BB9F1200F55
:107CC000DFD1002055F8241088F8180004980068C7
:107CD000884240F0BB81224602984FF6FD79AA46C1
:107CE0004FF0010B621CDDE90054C0F6000982422E
:107CF00006D204980430049048454FF00000AED3FB
:107D0000306840F08000306003980744241A05442E
:107D10007FF47DAF062510200121D1229AE140F2A7
:107D200074110020C2F2000122185278A2F133032C
:107D3000032B4FF0020338BFA2F130030B54013084
:107D40000828F1D1FCF716FE002840F0A48140F28B
:107D500074119020C2F20001A6E140F2466134F8AD
:107D6000010F0722C2F20001088040F244616088DE
:107D7000C2F20001088040F23E51A088C2F2000128
:107D8000088040F23C51A079C2F20001087028201E
:107D900021468AE140F2981140F29410002201231A
:107DA000C2F20001C2F20000A7187E78A6F13207E5
:107DB000042F02F1010701D2303E10E0312E07D02E
:107DC000302E0BD1066803FA02F5AE43B6B204E0DA
:107DD00003FA02F60568B6B22E43066002268E54F8
:107DE000082F3A46E0D1617A302900F04D813129DF
:107DF00040F04E81016841F4807148E1FEF73DFC9E
:107E000055E1607840F22456A178E278237940F277
:107E10005565C2F20006C2F20005002808BF07201F
:107E20003070B170E1887270F3706079A5F801105C
:107E30002870FDF7A2FAFDF731FA40F23850C2F28D
:107E40000000016841F040010160022040F2C7419A
:107E5000207040F2C540C2F20001B278F378C2F25D
:107E6000000009780078A2712372A17071786070A7
:107E70004DF20850A4F803003078E1716978607120
:107E80002878A1726072A878E072FFF785F80EE199
:107E9000607840F25176C2F20006002800F02B8193
:107EA0002828307040F21B8128201BE16078A178DF
:107EB00041EA002040F23641C2F20001B0F5617F94
:107EC000088040F2B2804FF46170B1E040F24C7132
:107ED000B4F80100C2F2000108803620B1E040F29F
:107EE0005F11607801220126C2F20001087039207A
:107EF000FCF7C8F809E0611C50201022D5E0FEF71D
:107F000005FC0126002808BF12260027D1E0D9F879
:107F10000000632865D140F214104FF6FF71012272
:107F2000C2F20000046840F20C10C2F200000568C2
:107F300040F21010C2F20000D0F8009029EA0101CE
:107F40004FEA1940494538BF02EB1940C1B22846F3
:107F5000FCF7F0FAB9F1000F24D00BAECB46B9F123
:107F6000FF0F20463146B24688BF4FF4807B1FFA90
:107F70008BF73A46FCF7C0F9284631463A46FCF7FB
:107F8000A7FA6420FCF73EFA18B9A3209021FCF769
:107F9000F9F8B9F5807005D0B9F1FF0F5D445C4484
:107FA0008146DBD840F24A7040F2181640F22017A2
:107FB00040F2441440F224190625C2F20000C2F235
:107FC0000006C2F20007C2F20004C2F20009017802
:107FD000B24640F24056C2F2000641F01001017074
:107FE00000E00625042040F24A71C2F200010A783E
:107FF0001043087000202070C9F80000CAF8000083
:10800000D8F8000020F00100C8F8000040F25C70D1
:1080100040F23011C2F20000C2F2000100680860B4
:10802000386830700027012644E0632801D86420B6
:10803000088040F2B421C2F2000109684863611C63
:108040003B20022231E0002088F81800152520206E
:108050000221D22240F2840340F28417C2F20003CC
:10806000C2F200071A7040F24A723E68C2F2000281
:1080700013783143396018431070FEF782FBD1E763
:1080800066790546002715E0016821F480710160DA
:10809000FCF770FC18B10027012615250AE040F214
:1080A00098119820C2F200010822FBF7EBFF00278D
:1080B0000126062540F20900C2F2000000780128DE
:1080C00003D128463146FFF7D1FA0FB1FBF756F836
:1080D000FFF77CFA0DF5026D03B0BDE8F08F0928BB
:1080E00001D80A20307040F2517126200122C2F2DC
:1080F0000001FBF7C7FFA07840F24F75C2F2000500
:1081000040B1092888BF0120287029460122272074
:10811000FBF7B8FFE07840F24E77C2F2000710F0AC
:10812000F00F2FD0C10607D53978C30741F00102FF
:1081300008BF01F0FE023A70810607D5397883073F
:1081400041F0020258BF01F0FD023A70410607D526
:108150003978430741F0040258BF01F0FB023A703E
:10816000010607D53978000741F0080258BF01F031
:10817000F7023A7040F24E713A200122C2F2000139
:10818000FBF780FF40F2C7410220C2F200012070DD
:1081900040F2C540C2F2000009780078A170317841
:1081A000012660704DF20460A4F803006171397813
:1081B00028780027A071E171FEF7EEFE054679E709
:1081C00017230244022901FB03FC48F63963C3F676
:1081D000E303ACFB033C02EB5C0248F21F5C02F2DF
:1081E000D472C5F2EB1C07D800F2CF70A0FB0C31A3
:1081F0008308A3EB511307E000F5FA60A0FB0C1312
:108200008108A1EB53118B1EA0FB0C0103EBD110D5
:1082100044F625111044C2F29241A0FB0112811ACA
:1082200002EB51018A08D200A2EB9101401A70477B
:1082300040F25C7C40F20822C2F2000CC2F2000262
:10824000DCF80030126800BF5168890606D4DCF8FB
:108250000010C91AB1F57A7FF6D918E0516841F0DB
:1082600010015160010C80B211625062506820F020
:1082700010005060DCF800005168890644BF0020FF
:108280007047DCF80010091AB1F57A7FF4D90120A3
:108290007047000040F25C7C40F20822C2F2000C01
:1082A000C2F20002DCF80030126800BF5168890693
:1082B00006D4DCF80010C91AB1F57A7FF6D918E0B7
:1082C000516841F010015160010C80B29161D061A0
:1082D000506820F010005060DCF8000051688906FA
:1082E00044BF00207047DCF80010091AB1F57A7F0E
:1082F000F4D901207047000070B540F21C2CC2F286
:10830000000CDCF800E0DEF808400440241AB4FA5F
:1083100084F464098C4214D040F25C75541CC2F29F
:10832000000500BF24B172B12E68F61A96420AD237
:10833000DEF808600640361AB6FA86F676098E42EE
:10834000F0D1002070BDDEF8040020F0E000CEF88F
:108350000400DCF80400B0F5827F0DD1DCF80800E1
:10836000B0F5004F02D0B0F5806F05D1DEF8000007
:1083700020F04000CEF80000DCF82800B0F5005FE7
:108380000CD1DEF800004DF6FF710840CEF8000079
:10839000DEF8000040F40050CEF8000001208CF818
:1083A000510000208CF85000032070BD83B00022E3
:1083B0000292012201920A22009202782D2A02BF23
:1083C0004FF0FF320192013001B100910178A1F12B
:1083D0003002092A12D80130009A7AB1029A02EBCF
:1083E000820201EB4201303902910099013900917A
:1083F00010F8011BA1F130020A2AEDD3019802996D
:10840000484303B070470000B0B540F25C74C2F25C
:10841000000420680130206040F25060C2F2000089
:10842000016831B1016801390160006808B9FFF7DE
:10843000CDF840F2080EC2F2000E9EF8003073B183
:1084400040F2401240F23C1C2168C2F20002C2F22B
:10845000000C1068DCF80050081AA84200D2B0BD29
:108460002068013B072B106000F27480DFE803F006
:108470000416303B4572506740F29010C2F2000083
:10848000016821F08001016040F238110020C2F241
:1084900000011060CCF8000008605CE040F2901031
:1084A000C2F2000001680268090622F0800340F26F
:1084B000381158BF42F0800303603220C2F200013D
:1084C000CCF800000A68501C0528086042D244E03D
:1084D00040F29010C2F20000016841F0800101609A
:1084E0004FF4FA7034E040F29010C2F200000168DC
:1084F00041F08001016032202AE040F29010C2F287
:108500000000016841F0800101604FF42F701FE00E
:1085100040F20112C2F200021078092802D010784D
:108520000A2817D140F29010C2F2000001680268D8
:10853000090616D442F080010160322016E040F2B4
:108540009010C2F20000016841F0800101600A2031
:10855000CCF8000001208EF80000BDE8B040FBF729
:1085600048BB22F0800101604FF41670CCF8000087
:10857000F3E70000F0B583B041F2040440F2404656
:1085800047F2000740F25C75C4F20204C4F24226CE
:10859000C4F20007C2F20005206800F00C000428B5
:1085A00002D154F8040C18E0206800F00C000828F0
:1085B00002D12068C003F4D454F8040C40F4803095
:1085C00044F8040C286800BF54F8041C890304D440
:1085D0002968091A6429F7D97EE0012030642868E7
:1085E000216A890704D42968091A0229F8D973E095
:1085F00040F2040044F6D351C2F20000C1F262011D
:108600000068A0FB0101480A019000BF00BF01986B
:10861000411E00280191F9D1A069C0000AD4A069C7
:1086200040F08050A061A06900F080500090009858
:10863000012000E000203968C9050DD4396841F4F3
:1086400080713960296800BF3A68D20504D42A686D
:10865000521A642AF8D93FE0E16941F2883241F0C8
:108660000101E161296800BFE3699B0704D42B681D
:108670005B1A9342F8D92FE018B1A06920F080501E
:10868000A061206800F00C00082825D04FF620409B
:108690000021CFF6FF703150296800BF54F8042C38
:1086A000920104D52A68521A022AF7D914E02168E7
:1086B00021F400312160216821F4741101F5E811E1
:1086C000216001213150286854F8041C890107D425
:1086D0002968091A0329F7D3A4209321FBF752FD37
:1086E00042F20000C4F20200016811F0060F09D145
:1086F0000168022262F302010160016801F00701D2
:10870000022920D1216841F4E0612160216841F40F
:1087100060512160216821F0F001216054F8041CAF
:10872000890110D52168022262F3010141F28832E9
:1087300021602968236803F00C03082B56D02B68AE
:108740005B1A9342F6D9A4209321FBF71BFDA06985
:10875000C0000AD4A06940F08050A061A06900F078
:10876000805002900298012000E000203968C9057D
:1087700012D4396841F48071396029683A68D205A9
:108780000AD42A68521A642AF8D9A420932103B083
:10879000BDE8F040FBF7F6BCE16941F4807101F4FB
:1087A0004071B1F5807F0BD1E169012262F30921AB
:1087B000E16118B1A06920F08050A06103B0F0BD64
:1087C000E16901233360002321F44072C90733605B
:1087D000E261E9D0296841F2883200BFE3699B0772
:1087E000E2D42B685B1A9342F8D9CEE7016801F016
:1087F0000701032909D30168022262F30201016023
:10880000006800F0070002289DD12068042161F370
:108810000A202060206820F460502060226802F066
:108820000C00082841F20020C0F27A0013D1C2F3F4
:10883000834110A3D203595C05D440F60010C0F266
:108840003D00484307E022680EA34843C2F340427C
:108850009A5CB0FBF2F021680BA2C1F30311515CEA
:10886000C84040F20401C2F200010860FCF7D0FBEE
:108870006DE700BF02030405060708090A0B0C0D8B
:108880000E0F1010010200000000000000000000A8
:10889000010203040607080941F200000022C4F2A5
:1088A0000200CFF6FF02016841F00101016041685A
:1088B00011404FF6FF724160CFF6F6620168114039
:1088C0000160016821F480210160416821F4FE010A
:1088D00041604FF41F0181604EF6085043F20001E1
:1088E000CEF20000C0F60001016070472DE9F043B0
:1088F00083B090F83A10222922D18168B1F5805FC7
:1089000008D102680369816A52687BB1D2B221F84A
:10891000012B0FE0026901684968002A826A18BFCA
:1089200001F07F01531C8362117004E06FF35F223A
:1089300021F8022B8162C18D01390A04C18502D060
:1089400003B0BDE8F0830168CA6822F02002CA6063
:10895000CA6822F48072CA604A6922F001024A6140
:10896000202180F83A1040F250600321C2F200004A
:10897000016040F23051C2F200010A68531C072A1C
:108980000B6000F29F82DFE802F072047F0497A878
:108990000F0F40F2285040F24051C2F20000C2F2E4
:1089A000000100780870A2E0072240F248660A60E1
:1089B00040F22851C2F20006C2F200010B7840F2E8
:1089C0002C51C2F200010F687A1C0A6040F240523A
:1089D000C2F20002D3550B6837680337BB4240F040
:1089E00086800B68013B0B600023036037683FB152
:1089F00000230027D55D34680137A7422B44F9D105
:108A00000F68174417F8027CB7EB132F40F05A8217
:108A10000F68DBB2174417F8017C9F4240F0528286
:108A20000968515C042940F04D8240F23431C2F2B1
:108A300000010A68D36823F02003D360202281F864
:108A40003A2081F8392040F2A0110222C2F200013E
:108A50000A7041F22E61016040F25C7040F2586190
:108A6000C2F20000C2F200010068086046E040F275
:108A70002850C2F200000078411E012937D840F288
:108A8000E841C2F2000131E040F2405240F2466358
:108A9000C2F20002C2F2000312781F78BA426ED10D
:108AA00040F228575B78C2F200073F789F4266D1B8
:108AB00040F20900012187E040F2405040F2285185
:108AC000C2F20000C2F200010078097841EA0020F9
:108AD00040F24C61C2F2000108E040F2285040F23E
