:020000040800F2
:10000000001000209D110008791100087B110008E4
:1000100000000000000000000000000000000000E0
:100020000000000000000000000000007D1100083A
:1000300000000000000000007F110008811100088E
:10004000ED11000800000000ED110008ED1100089E
:10005000ED110008ED110008ED110008ED11000888
:1000600000000000ED110008ED110008ED1100087E
:10007000ED110008ED110008ED110008000000006E
:10008000ED1100080000000000000000ED11000864
:1000900000000000ED110008ED110008ED1100084E
:1000A00000000000ED1100080000000089110008A8
:1000B0000000000000000000000000000000000040
:1000C00010B5064C2378002B07D1054B002B02D02E
:1000D000044800E000BF0123237010BD1C00002075
:1000E00000000000402E0008044B10B5002B03D088
:1000F0000349044800E000BF10BDC04600000000F6
:1001000020000020402E000802B471464908490032
:10011000095C49008E4402BC7047C0460022430877
:100120008B4274D303098B425FD3030A8B4244D3BF
:10013000030B8B4228D3030C8B420DD3FF22090201
:1001400012BA030C8B4202D31212090265D0030BC0
:100150008B4219D300E0090AC30B8B4201D3CB03B6
:10016000C01A5241830B8B4201D38B03C01A5241F8
:10017000430B8B4201D34B03C01A5241030B8B42FA
:1001800001D30B03C01A5241C30A8B4201D3CB02E5
:10019000C01A5241830A8B4201D38B02C01A5241CA
:1001A000430A8B4201D34B02C01A5241030A8B42CD
:1001B00001D30B02C01A5241CDD2C3098B4201D3E5
:1001C000CB01C01A524183098B4201D38B01C01A63
:1001D000524143098B4201D34B01C01A52410309DA
:1001E0008B4201D30B01C01A5241C3088B4201D389
:1001F000CB00C01A524183088B4201D38B00C01A36
:10020000524143088B4201D34B00C01A5241411A5C
:1002100000D20146524110467047FFE701B5002069
:1002200000F006F802BDC0460029F7D076E7704717
:100230007047C04673B500240F250194002A00D1F1
:1002400073BD019E0B78002E0ED11B09092B09D915
:1002500037330370019B013301930130013A04707D
:1002600092B2EBE73033F4E72B40092B04D9373354
:10027000037001940131F0E73033F9E710B5002A3B
:1002800005D00023CC5CC45401339A42FAD110BD8E
:100290008218017001309042FBD1704730B51024B4
:1002A00095B02C22002109A802F0C1FD22000021F6
:1002B000684602F0BCFD2200002104A802F0B7FD50
:1002C0000A230893C02301250C945B030E3C08A865
:1002D000109412930B950F9501F0D0F90723019418
:1002E00000242900684600930294039401F0FAFB6D
:1002F000054B04A8049380239B000694059301F00A
:1003000085FC15B030BDC0460100010070B588B055
:1003100000F092FFFFF7C2FF1422002103A802F0B1
:1003200086FD8020474BC003596900240143596171
:100330005A690126024080200092009A5969800281
:100340000143596180215A69C902024090200192FB
:10035000019A5A69C0050A435A615B6900220B4041
:1003600002931F21029B01F07DF9002202213648F1
:1003700001F078F9032303A9344803930493059407
:1003800001F04AF890201F2303A9C00503930496A7
:100390000594069401F040F8022303A92A48039328
:1003A00004960594069401F037F82948294B047106
:1003B0000360C4600461866100F0E4FF264D274BB2
:1003C00028002B607F23AB608033EB606C602C6176
:1003D0006C61AC6101F0D4FC214932000C808C705E
:1003E0002800CC600C6101F02BFD1E493200280072
:1003F0000E704E708E70CC7001F098FD1A481B4B39
:100400008460036082235B004360E023DB00C36001
:1004100080239B008361FA3BFF3BC362046144611C
:10042000C4610462446284620463446301F064FE54
:1004300000F0B0FC00F01EF800F0F0FC00F074F8E2
:10044000FAE7C046001002400004004800140048CB
:1004500070020020003002400C0300200028004001
:10046000400000203A0000202C0300200030014012
:100470007047000013B5224C224B2000236002F08D
:10048000E1F8214B0C229B68626101936360802339
:100490005B01A3600023E3602361A361E361236246
:1004A000083363628022802312011B020221200094
:1004B000636302F033FC002801D0FFF7D9FF20006E
:1004C00002F070FC200002F078FA08232268200075
:1004D00091690B4393610D49012202F00BF900F081
:1004E000C7FE0B4B0B4A18600B4B1A6004220B4BD8
:1004F0001A7000230A4A13700A4A138013BDC046BB
:100500008C02002000380140782E000854000020A2
:10051000B00300202E160000A403002039000020A4
:1005200038000020A8030020F7B5AF4D2B78012B31
:100530000DD000F09DFEAD4B1B68C01AAC4B1B6884
:10054000984201D3FFF796FF2B78012B10D1A94BCE
:100550005B6F202B00D144E100F08AFEA64B1B68A4
:10056000C01AA64B1B68984201D302232B70F7BD1B
:10057000032B00D031E1022000F080FE8022A04C4D
:10058000520000212000FFF783FE15230222237171
:100590009C4BE27019796171A82900D1FEE06FD8F7
:1005A000A12900D189E0A72900D1EAE0A02935D10D
:1005B0000423E370944B90201B68012123710023D6
:1005C000C005637101F048F8002803D10123627966
:1005D0001343637190200221C00501F03DF800280B
:1005E00003D1022362791343637190200421C00573
:1005F00001F032F8002803D10423627913436371B8
:1006000090200821C00501F027F8002803D1082315
:100610006279134363710023A371E3717B4B794EBD
:100620001B78012B15D100F0A7FE02232370B378AD
:10063000E1786370737804312000A37000F090FEBD
:10064000E3782100E3181871E2786A48053202F075
:1006500013F80123E4222B70684B52001A6000F05B
:1006600007FE654B18603379C02B00D07FE7BFF3DE
:100670004F8F674B674ADA60BFF34F8FC046FDE785
:10068000D5295AD0DE2900D183E0D029C6D16249CC
:100690006248FFF7F3FD062261496248FFF7EEFD6D
:1006A000062261496148FFF7E9FD1022604961486F
:1006B000FFF7E4FD06232371B0E72C2306265E4FE7
:1006C00056493800E3702671FFF7D8FD32005549CE
:1006D0005A48FFF7D3FD320054495948FFF7CEFD81
:1006E000102254495748FFF7C9FD4322631DDA77AA
:1006F0005323FB772700544B2C371B6853491A0CA4
:100700003A701A0A0A704E4A390020321370019268
:100710004F483200FFF78EFD31234C4A3B700133C6
:100720001370019A01331370230034222F331A708F
:100730002300002230331A7070E75A79454E002AA0
:100740001DD032709A794449B270DA79434F727091
:100750001A7A3800F2705A7A0A709A7A4A70DB7AFA
:1007600001228B7001F06CFB01223100380001F096
:10077000DDFB0423244A11680B4313609AE7072228
:10078000DFE75879364900F0BDFB002800D045E787
:1007900090E75879324900F0D6FBF6E701231A4A70
:1007A0003048116899431123E3702F4B11601A7878
:1007B00022715A7862715A88110AA171E2719B887C
:1007C0002A491A0A227206226372FFF757FD052290
:1007D00027492848FFF752FD20E70222934300D023
:1007E000C5E6FFF747FEC2E639000020B00300204F
:1007F000A40300208C020020940300209803002012
:100800005401002054000020AC03002038000020D8
:1008100000ED00E00400FA05590000205C02002011
:100820005B00002000000020610000200600002086
:10083000670000205E0200205A0100205C010020B9
:100840006201002068010020BC2E00088101002008
:100850007A0100203A000020400000200C03002014
:100860005A0000205E0100200A040020100400202D
:10087000160400206401002073B53F4D2878043829
:1008800005282BD8FFF740FC0342585A5C653B4CC7
:100890003B4B2000236001F0D5FE3A4B0C229B68B5
:1008A0002000019363600023A360E3602361A361E0
:1008B000E36123620833636280231B026261636326
:1008C00002F0FAF9002801D0FFF7D2FD2E4B2F4A93
:1008D0001B88D35C022B17D103332B702B78032B8F
:1008E00011D90322284C238801332380284B1A6016
:1008F00000F0BEFC274B21881860244B0122C91848
:100900001E4801F0F7FE73BD0023E6E71E4B1F4AA9
:100910001B88D25C204B022A06D1013A1A701B7840
:10092000002BF1D00623D8E70A2A01D1083AF5E7CF
:100930007F2AF4D17C3AF1E70723CEE70823CCE7FE
:10094000124BDA78104B1B88033B9A42C6D109231D
:10095000C3E7124B0C4E1A68012391680B4C0B43F2
:1009600093603188200000F0FBFC3388C0B2E35C68
:100970008342C9D10323B0E7390000208C02002054
:1009800000380140782E0008A80300205400002001
:10099000A4030020B00300203800002070020020D3
:1009A00001220221036810B51A62033219621A6229
:1009B0000C321A62083A1A629C6922439A61002337
:1009C000C367014B197010BD3900002073B5902525
:1009D00004000E00ED0528000022102100F042FE68
:1009E000640001A90A23022205484E700C7001F030
:1009F000E1FB28000122102100F034FE73BDC04647
:100A00002C030020F0B59026002285B0F60502AD3B
:100A100003AC0700102130002A80228000F022FE63
:100A200080200A237F004042384328702200009330
:100A30002900083B054801F089FC30000122102103
:100A400000F010FE607805B0F0BDC0462C03002019
:100A500070B50D000400FFF7D5FF2843C1B2200098
:100A6000FFF7B4FF70BD70B50D000400FFF7CAFFBB
:100A7000A843C1B22000FFF7A9FF70BDF0B585B053
:100A800005000E00039202930C2865D00E2867D152
:100A9000102312270193802102203943FFF796FF8C
:100AA00080210420FFF7DFFF80210A20FFF7D0FF1D
:100AB00000210120FFF78AFF3400039AA31B9A420A
:100AC00052D829000120FFF781FF0C2D03D180218E
:100AD0000D20FFF7BDFFC8240420FFF793FF013C62
:100AE0000600002C04D00123019A13430342F3D0E3
:100AF00080210D20FFF7B7FF002C3FD00620FFF725
:100B000081FF1B23184239D11A3B3B401E4076001F
:100B10000C2D1ED10A20FFF775FF04002800FFF7F7
:100B200071FF0723034025D0184AA018C000C01841
:100B30000A9B1880002C23D0102C00D91024029D71
:100B40000920FFF75FFF029B28700135EB1A9C42DA
:100B5000F6D8300005B0F0BD3023772701939AE72F
:100B6000002301931F0096E721780920FFF72EFF4D
:100B70000134A2E70A9AE3001380DBE70126E8E7E5
:100B80000920FFF73FFF029B1870E2E7FFFFFF1FFE
:100B9000F8B506000F00052004211500FFF763FFDC
:100BA00080210A20FFF754FF3400A31B9F4216D870
:100BB00003210120FFF70AFFFF2404260520013C42
:100BC000FFF720FF002C01D03042F7D02220FFF7A2
:100BD00019FF28702120FFF715FF6870F8BD2178F4
:100BE0000920FFF7F3FE0134DFE71FB50E22502383
:100BF00003AC6A44200002212380FFF7C9FF0A23C7
:100C00006B4400930422230021000C20FFF736FFE1
:100C100008210800FFF727FF1FBD000030B5124B69
:100C200087B003AC23800023C15CE21801339170CC
:100C3000052BF9D113220A256A44072120006D44AF
:100C4000FFF7A6FF23000095092221000C20FFF7E3
:100C500015FF0023984203D12A88182A00D123784F
:100C6000180007B030BDC0469370000070B5122266
:100C70000E2530230E0086B004AC60706A44022159
:100C800020006D442370FFF783FF3300009504229A
:100C900021000C20FFF7F2FE0123002804D12B884D
:100CA000903B581E8341DBB2180006B070BD1FB5E3
:100CB000040000210D20FFF789FE93232370733B6E
:100CC0006370123B6B4400930222230021000C202E
:100CD000FFF7D4FE00280BD12300221D1978013321
:100CE00048409342FAD12379181A431E9841C0B262
:100CF00004B010BD602310B586B003AC2370154B53
:100D000060701A780E20A2705A78E2709A78227178
:100D1000DA7862711A795B79A271E3710B780C222F
:100D200023724B7863728B78A372CB782100E372C5
:100D30000A236B4400932300FFF7A0FE0124002840
:100D400004D10830FFF75EFEC0088443200006B0DF
:100D500010BDC0460000002030B5072185B004005A
:100D60000E250D20FFF732FE26236D4423700095DB
:100D70002300012221000C20FFF780FE0123002820
:100D800004D12B88103B581E8341DBB2180005B0FC
:100D900030BD0000902010B501221021C00500F0E8
:100DA00061FC002202211C4800F05CFC0A2000F0DB
:100DB00065FA01220221184800F054FC642000F07A
:100DC0005DFA0F210120FFF701FE8D212A20FFF798
:100DD000FDFD3E212B20FFF7F9FD1E212D20FFF701
:100DE000F5FD00212C20FFF7F1FD70212620FFF7F3
:100DF000EDFD40211520FFF7E9FD3D211120FFF712
:100E0000E5FD1420FFF7FEFD0321084202D1142066
:100E1000FFF71EFE10BDC0460004004870B500F08C
:100E200027FA334C334E2368C01A3368984239D3BB
:100E30003223336000F01CFA2F4D20600522002180
:100E40002800FFF725FA2800FFF786FF041E03D1CC
:100E50002800FFF72CFF0400FFF7C7FE274D002CEA
:100E600021D1FA2390209B0022000121C00533608C
:100E700000F0F8FB902001220221C00500F0F2FBF7
:100E8000902022000421C00500F0ECFB90200122FC
:100E90000821C00500F0E6FB0323194A2C60116805
:100EA0000B43136070BD2B6801330A2B01D82B60F4
:100EB000F8E70023124A2B6011680333994311604D
:100EC00090200122C005110000F0CCFB90200221EF
:100ED000C00500F0CDFB902001220421C00500F0E8
:100EE000C1FB90200821C00500F0C2FBDAE7C04634
:100EF000580200200C0000202C0400205402002086
:100F0000AC0300207FB5050068460E00FFF724FF04
:100F100004006846FFF7CBFE24186846FFF77EFE04
:100F200069462800E4B2FFF7E5FE002806D1002C50
:100F300004D131002800FFF799FE0400FFF755FEA9
:100F4000200004B070BDF0B58DB0060003A80F00FE
:100F5000FFF702FF050003A8FFF7A9FE2D1803A85D
:100F6000FFF75CFE03A93000EDB2FFF7C3FE0028D7
:100F70003AD1002D38D107AC66701E220A26A02374
:100F80006A44022120006E442370FFF701FE0096A0
:100F90002300042221000C20FFF770FD002822D13D
:100FA0003388042B1FD10F22237813400A2B1AD128
:100FB00001007B5C635401311029FAD10BAA200097
:100FC000FFF7E6FD00962300122221000C20FFF718
:100FD00055FD051E07D13388042B04D10F22237839
:100FE00013400A2B00D00125FFF7FFFD28000DB0AC
:100FF000F0BD000001200A4B82B09969014399615C
:1010000080219A69490502400092009ADA690A43F0
:10101000DA61DB690B400193019B02B07047C04667
:1010200000100240074B026882B09A4208D140206B
:10103000054A516901435161536903400193019B82
:1010400002B070470030024000100240054B0268B9
:101050009A4205D18023044A1B02116A0B43136292
:101060007047C046002800400010024010B5040040
:1010700088B01422002103A801F0D9FE114B226888
:101080009A421DD18020104B40019969014399611A
:1010900080219A69890202400192019A5A6990203E
:1010A0000A435A615B69C0050B400293029BE0232F
:1010B0000393DE3B049303A90133069300F0ACF9DC
:1010C00008B010BD003001400010024010B504000F
:1010D00088B01422002103A801F0A9FE174B226852
:1010E0009A4228D18020164BC00199690143996129
:1010F00080219A69890202400192019A5A699020DE
:101100000A435A615B69C0050B400293029BC023EE
:10111000DB000393022304930133069303A9023BEC
:10112000079300F079F900221B20110000F0B8F8B5
:101130001B2000F0DFF808B010BDC04600380140A9
:1011400000100240094B026810B59A420DD1084ABE
:101150000849936990200B40C021C0059361C900E4
:1011600000F00AFA1B2000F0D1F810BD0038014051
:1011700000100240FFBFFFFF7047FEE77047704757
:1011800010B500F069F810BD10B5024801F06CFB15
:1011900010BDC0468C020020704700000D488546F7
:1011A0000D480E490E4A002302E0D458C4500433BF
:1011B000C4188C42F9D30B4A0B4C002301E0136096
:1011C0000432A242FBD3FFF7E7FF01F003FEFFF773
:1011D0009DF8FEE700100020000000201C00002009
:1011E000C82E00081C000020B8040020FEE7000004
:1011F00070B50500FA200D4B80001978FEF78EFFC0
:101200000B4B01001868FEF789FF00F08FF804000F
:101210000120002C09D1032D07D802382200290013
:1012200000F03EF82000034B1D6070BD140000204C
:1012300010000020180000201023064A10B5116885
:1012400000200B431360FFF7D3FFFFF7D3FE00200E
:1012500010BDC04600200240034A044B11681B78B1
:101260005B1813607047C046B404002014000020CF
:10127000014B18687047C046B404002070B50400E4
:10128000FFF7F6FF0500631C02D0044B1B78E4183F
:10129000FFF7EEFF401BA042FAD370BD1400002000
:1012A00030B5FF2503242A00C3B21C40E400A2404D
:1012B00089012940D243A14000280ADBC0240B4BFE
:1012C00080088000C018A40003591A40114301513E
:1012D00030BD0F200340083B05489B089B001B18AE
:1012E000D86902401143D961F2E7C04600E100E04D
:1012F00000ED00E0002805DB1F2318401E3B834063
:10130000014A13607047C04600E100E0002809DB95
:101310001F2318401E3B8340034AD367BFF34F8F00
:10132000BFF36F8F7047C04604E100E0094A431ED7
:10133000012093420DD8C021074A08485360036A30
:1013400009061B021B0A0B4303620020072390605F
:1013500013607047FFFFFF0010E000E000ED00E0C9
:10136000044B4118884201D1186870470278013057
:101370001A60F7E7003002400122014B9A60704783
:101380000030024010B504000120002C1ED0637D07
:10139000DBB2002B03D123752000FFF743FE0223AD
:1013A000227963752368002A11D1013A60211A61FC
:1013B0009A6800208A43E1680A4380219A609A680B
:1013C0008A4321690A439A600123637510BDA268AC
:1013D000ECE770B5841CE37F022B04D00423836305
:1013E000033B180070BD0E210368056C1A688A4320
:1013F0001A6001221968914319601100A940C36B5A
:101400005960E27700248318426BDC771300A24214
:10141000E7D090472300E4E7F0B50B6887B003936B
:1014200000230191039ADA4001D107B0F0BD0122F7
:101430009A4002920299039A0A40009200D18CE0ED
:10144000019A1021526816008E43022E0ED10725F4
:101450001D40AD000139A940DC08A4000419276A29
:101460008F4301990969A9400F43276203245F0054
:10147000BC40E4430568013E2540AC4603251540C9
:10148000BD4061460D430560012E0FD80199866865
:10149000CD682640BD4035438560466802991509F0
:1014A0008E4301210D409D4035434560C56801993B
:1014B0002C408D688021BD4049052C43C4600A4200
:1014C0004BD00121264C0326A5691E400D43A56182
:1014D000A4699D080C400594059C0F242149AD008A
:1014E000B6006D18B4409021AF68C905A743002429
:1014F00088420CD01C490134884208D01B49013471
:10150000884204D01A490334884200D1023CB440D6
:1015100000993C430E00AC60164CCD4327683E4317
:10152000D10301D43E002E4026606768009E3E43F2
:10153000910301D43E002E406660A768009E3E43A2
:10154000D10201D43E002E40A660E668009F3743DA
:10155000920201D42E403700E760013362E7C046B3
:10156000001002400000014000040048000800484C
:10157000000C004800040140F0B50023032785B0AB
:101580000291029ADA4001D105B0F0BD01229A40E1
:1015900002990092114053D02A4C9A081D009200E3
:1015A00012190F243D40AD00AC40966801942640CE
:1015B000039690260024F605B0420FD0224CA44694
:1015C000012460450AD0214CA4460224604505D080
:1015D0001F4CA4463C00604500D00524AC40039D50
:1015E000AC4211D1C9431B4C25680D40256065688C
:1015F0000D406560A5680D40A560E5682940E16083
:101600009168019CA14391603C0059008C40E143EA
:1016100007240F261C40A400A6400268009C0A4034
:101620000260DA0892008218156AB5431562826872
:101630000A4082604268A2434260C2681140C160B1
:1016400001339EE700000140000400480008004804
:10165000000C00480004014000690840411E884118
:10166000C0B27047002A01D0816170478162FCE7F7
:101670004369194200D0090481617047F0B5040044
:1016800085B0002802D1012005B0F0BD0368DB075A
:101690002ED423689B077ED423681B0700D5BAE0AD
:1016A00023685B0700D5DDE02368DB061AD5626995
:1016B000B44D0423012A00D049E1696B02260B4393
:1016C0006B636B6B1A436A63FFF7D2FD07006B6BAA
:1016D000334200D134E1F8216A6BA3698A43DB000D
:1016E00013436B63236A002B00D057E10020CBE744
:1016F0000C21A44D6A680A40042A06D06B680B408E
:10170000082B09D16B68DB0306D52B689B03C0D57A
:101710006368002BBDD1B6E76368012B13D180232A
:101720002A685B0213432B60FFF7A2FD80260700A7
:10173000B6022B683342ACD1FFF79AFDC01B642878
:10174000F7D90320A0E7002B15D12B688E4A8026FD
:1017500013402B602B688D4AB60213402B60FFF7B5
:1017600087FD07002B68334293D0FFF781FDC01B34
:101770006428F7D9E5E7052B05D180232A68DB0229
:1017800013432B60CBE72B687F4A13402B602B68F9
:101790007E4A1340C7E70C227A4D6B68134206D08D
:1017A0006B681340082B11D16B68DB030ED42B68D8
:1017B0009B0703D5E368012B00D064E7F8212A6872
:1017C00023698A43DB0013432B6065E7E26801234A
:1017D000002A0FD02A68022613432B60FFF748FD2A
:1017E00007002B683342E9D1FFF742FDC01B0228F6
:1017F000F7D9A6E72A6802269A432A60FFF738FD40
:1018000007002B68334200D146E7FFF731FDC01BCC
:101810000228F6D995E7E26901235A4D002A10D033
:101820006A6A022613436B62FFF722FD07006B6AA8
:10183000334200D034E7FFF71BFDC01B0228F6D966
:101840007FE76A6A02269A436A62FFF711FD070082
:101850006B6A334200D123E7FFF70AFDC01B022861
:10186000F6D96EE780220021464D5205EB690091C2
:10187000134208D1EB691343EB61EB691340039307
:10188000039B012300938027414E7F0033683B4236
:1018900006D0A368012B13D12A6A13432B6230E0D0
:1018A00033683B433360FFF7E3FC019033683B420E
:1018B000EFD1FFF7DDFC019BC01A6428F6D940E7A1
:1018C0000122002B14D12B6A022793432B622B6A2F
:1018D000033293432B62FFF7CBFC06002B6A3B429B
:1018E00025D0FFF7C5FC2B4B801B9842F6D928E783
:1018F000052B0BD1296A013B0B432B622B6A1A4340
:101900002A62FFF7B5FC022706000DE02B6A93431D
:1019100004222B622B6A9343C0E7FFF7A9FC1D4BFF
:10192000801B984200D90CE72B6A3B42F5D0009B04
:10193000012B00D0B8E6EB69174A1340EB61B3E620
:10194000FFF796FCC01B022800D8C0E6F9E6053276
:1019500003D16A6B9A436A63BDE66A6B022613433E
:1019600001226B636B6B93436B63FFF781FC070092
:101970006B6B334200D1B5E6FFF77AFCC01B02283F
:10198000F6D9DEE600100240FFFFFEFFFFFFFBFF7F
:101990000070004088130000FFFFFFEF0C20354A65
:1019A000516815000140082947D0334A022B32D133
:1019B0002B68802613402B60FFF75AFC0700B60403
:1019C0002B68334221D10F22EB6A9343E26A13431F
:1019D000EB62616AA36A6A680B43284980240A4063
:1019E00013436B6080232A685B0413432B60FFF76B
:1019F0003FFC0600A4042B68234200D076E6FFF7E4
:101A000037FC801B0228F6D99BE6FFF731FCC01B90
:101A10000228D5D995E62B68802413402B60FFF768
:101A200027FC0600A4042B68234200D15EE6FFF7E2
:101A30001FFC801B0228F6D983E61800012B00D179
:101A400022E680215368656A4902D26A1940012062
:101A5000A94200D018E60F210A40E16A8A4200D06C
:101A600012E6F02080030340A06A1B1A581E83412F
:101A7000D8B209E600100240FFFFFFFEFFFFC2FFE1
:101A800070B5144C88B010222100684601F0C6F9E8
:101A9000210004AD10221031280001F0BFF90C2202
:101AA0000D4E73681A40082A11D10F206A46990C0E
:101AB0000140545CF26A0240A95CDB0305D507488B
:101AC000FEF72CFB604308B070BD0548FAE70348F9
:101AD000F9E7C046582E00080010024000127A00B4
:101AE00000093D00F7B505000F00002801D10120D5
:101AF000FEBD0122374C236813408B421CD329685A
:101B00008B0722D4CB072FD4012322681A40BA4274
:101B100051D82B68304C5B0754D4FFF7B1FF636892
:101B20002E4A1B061B0FD35CD8402D4B186000209B
:101B3000FFF75EFB0020DBE7236893430B43236042
:101B4000236813408B42D2D1D9E7234A4B0704D5EF
:101B5000E0235068DB0003435360F0205368834365
:101B6000A86803435360CDE71B4E6A683368012AB7
:101B700019D19B03BBD5032173688B431343736057
:101B8000FFF776FB01900C2372681A406B689B008C
:101B90009A42B9D0FFF76CFB019BC01A114B9842D7
:101BA000F1D90320A4E7022A02D19B01E3D49EE7E6
:101BB0009B07E0D49BE722689A43226022681A427E
:101BC000A7D094E76368084A1340EA681343636048
:101BD000A3E7C0460020024000100240A02E0008EB
:101BE0001000002088130000FFF8FFFF044B054A97
:101BF0005B685B055B0FD35C034A1068D840704795
:101C000000100240B02E000810000020F0B503685C
:101C100085B00500DB0328D580220021374C520512
:101C2000E3690091134208D1E3691343E361E36977
:101C300013400393039B012300938027304E7F00C2
:101C400033683B4226D0C022236A920013402D4EB7
:101C500032D1236A1E406B681E43009B2662012B13
:101C600003D1E369284A1340E3612A68D30706D504
:101C7000032022490B6B8343A86803430B630020B6
:101C8000930617D510211D4A136B8B43E9680B434C
:101C900013630FE033683B433360FFF7E9FA0190C9
:101CA00033683B42CFD1FFF7E3FA019BC01A6428A7
:101CB000F6D9032005B0F0BD69680A409A42C8D041
:101CC0008023226A206A11005B0203432362236A95
:101CD0000E483140034023622162D307B9D5FFF794
:101CE000C7FA07000222236A1342B2D1FFF7C0FAF3
:101CF000074BC01B9842F5D9DBE7C04600100240F5
:101D000000700040FFFCFFFFFFFFFFEFFFFFFEFF43
:101D100088130000A0210268F8B5D36804008B4343
:101D2000D360FFF7A5FAFA2706002025BF00236835
:101D3000DB682B4201D00020F8BDFFF799FA801B29
:101D4000B842F4D90320F7E7F8B54024036805004A
:101D5000DA68224201D00020F8BD01225242DA6046
:101D6000FFF786FAFA270600BF002B68DB682342DC
:101D7000F1D1FFF77DFA801BB842F6D90320EBE7DB
:101D800070B504000125002818D0437FDBB2002B7A
:101D900002D10377FFF75AF90223CA226377236837
:101DA00020005A62773A5A62FFF7CEFF2368051E79
:101DB00006D0FF225A62042301256377280070BDF4
:101DC0009A68174920690A409A60626899680243D4
:101DD000606902430A439A60E2681A61A26819695D
:101DE00012040A4380211A61DA688A43DA609B6828
:101DF0009B0606D42000FFF78DFF002801D0236842
:101E0000D7E7236807491A6C0A401A641A6CA1695B
:101E10000A431A64FF225A6201236377CEE7C04661
:101E2000BFFF8FFFFFFFFBFF0023092803D81B0123
:101E30001843C0B270470A380133C0B2F5E700005A
:101E40000223F7B50D00017F04001E00012933D0E5
:101E50000121437701770668AB783F310093B3687F
:101E600028786F780B40002A28D1002B00D1EB7026
:101E7000FFF7DAFF01903800FFF7D6FF0700009860
:101E8000FFF7D2FF0300E8783F0200041843019BEC
:101E90001B041843CA237362773B73620743200015
:101EA000FFF752FF2368061E13D0FF225A62042355
:101EB00063770023237701263000FEBD002B00D17D
:101EC000EB7000043F020743009BE8781F430004C7
:101ED000E0E71448144907401F609A6828690A40DF
:101EE0009A60EA68996802430A4380219A60DA6836
:101EF0008A43DA609B689B060BD42000FFF70AFF39
:101F0000002806D0FF2223685A62042326776377CD
:101F1000D1E7FF2223685A620123637700232377E6
:101F2000CAE7C0467F7F7F00FFFFFBFF0223F7B5B4
:101F30000E00017F05001C00012932D001213478F8
:101F4000017743776103F0787378B7780191002ABD
:101F500047D11032134202D093430A337370FFF714
:101F600063FF04007078FFF75FFF06003800FFF79B
:101F70005BFF019B24041843044336022643CA2214
:101F80002B6828005A62773A5A62FFF7DDFE2B6809
:101F9000041E08D0FF225A6204236B7700232B779C
:101FA00001242000FEBD8021114F3E405E60DA68B2
:101FB0008A43DA609B689B060BD42800FFF7AAFED1
:101FC000002806D0FF222B685A6204232C776B77F7
:101FD000E6E7FF222B685A6201236B7700232B77F9
:101FE000DFE7019A0004104307431E023E43C6E7A1
:101FF0003FFFFF00E021036810B55A688A435A602A
:1020000082224168520091420CD1802182680902EB
:102010008A4203D08021C9008A4203D140211A6834
:102020008A431A608021826A89018A4206D119682E
:10203000074C2140196019680A431A600300012205
:102040005D331A7000235C300370032010BDC0465E
:10205000FFDFFFFFF8B504000D001700802623689E
:102060009868304009D06A1CFAD0FFF701F9C01B0C
:102070008542F4D82000FFF7BDFFF8BDF7B5C027B3
:1020800005000C0016000193FF002B6898682040A3
:102090000DD0BC4200D11A7B721CF7D0FFF7E8F8D4
:1020A000019BC01A8642F0D82800FFF7A3FFFEBDAF
:1020B00070B513000D0016000A00C021490104008C
:1020C000FFF7DCFF002805D02023226E03201343F6
:1020D00023660FE0320029002000FFF7BBFF002835
:1020E000F2D1C02133002A00C9002000FFF7C6FF4B
:1020F0000028E9D170BD0000F8B504000120002CD3
:102100004ED000232500A3625D352B78DBB2002B77
:1021100005D122005C3213702000FEF7A7FF0223D6
:10212000402122682B701368E0688B43E021136024
:10213000C9000023884234D880267601884201D124
:1021400001E01E00A362236B002B04D102338842FE
:1021500000D801232363A7686368A1693B4327690B
:102160003B4367693B43E7693B43276A3B43A76AB5
:102170003B438027BF000F403B431360636A090C59
:102180001843636B18430423194001430E43566000
:10219000D369074900200B40D361012320662B70CF
:1021A000F8BDF0263601B042CBD11E00CBE7C046C9
:1021B000FFF7FFFFF0B51E00030085B05C3301930D
:1021C0001B7804000D0017000220012B7AD0012398
:1021D000019A1370FFF74CF8220000905D321378DB
:1021E0000220DBB2012B67D11800002D64D0002F34
:1021F00062D0023313700023A21D23662364A563FB
:10220000A787E78702329387D3872365E364802318
:10221000A16822681B02994204D180231168DB0166
:102220000B43136040231168194202D111680B431C
:102230001360E021E0686368C900884244D9002B3C
:1022400001D0012F07D12B880235D360E38FA5631E
:10225000013B9BB2E38702250CE0226893682B4286
:1022600021D0A36B19880233D160A363E38F013BB4
:102270009BB2E387E38F002BEFD1009A310020005F
:10228000FFF716FF00285DD1A368002B06D103934A
:102290002368DA6803929B680393039B206E431EB6
:1022A0009841C0B208E0FEF7E3FF009BC01AB042BD
:1022B000E0D3731CDED0032001235D3423700023A0
:1022C000019A137005B0F0BD002B01D0012F0AD187
:1022D000E38F012B09D92B880235D360E38FA563E7
:1022E000023B9BB2E387022517E02B781373A36BA5
:1022F0000133A363E38F013BF3E7226893682B422A
:1023000017D0E18FA36B01290BD919880233D16053
:10231000A363E38F023B9BB2E387E38F002BECD1F7
:10232000ABE71B781373A36B0133A363E38F013B0C
:10233000F1E7FEF79DFF009BC01AB042EDD3731C7E
:10234000EBD0B8E7202323669EE70000F7B51E0018
:1023500003005C3317001A7804000D000220012AE4
:1023600000D1AAE001221A70FEF782FF230001903B
:102370005D331B786168DBB2012B0CD08222022016
:102380005200914200D091E0A268002A00D08DE076
:10239000042B00D08AE00120002D00D186E0002F20
:1023A00000D183E0002E00D180E023005D331A7855
:1023B000042A01D005221A70220000230832236665
:1023C0002764D687A21DD687E022E068E3642365F0
:1023D000A563E687A6872368D200904201D8012E24
:1023E00030D95A686F4F3A405A6040221F681742EE
:1023F00002D11F683A431A60E022D20090425DD9B0
:10240000002901D0012E07D12A880235DA60E38F36
:10241000A563013B9BB2E387012502272E00E38FD2
:10242000002B14D123000833DB8F002B0FD1019A2E
:1024300008992000FFF73CFE002837D02023012018
:10244000236633E080225F6852013A43CCE721687B
:102450008B683B420ED0E38F002B0BD0012D09D1AE
:102460000025A36B1A880233CA60A363E38F013B84
:102470009BB2E3878B6833420ED022000832D38FA1
:10248000002B09D03500C968236C198002332364FE
:10249000D38F013B9BB2D387FEF7EAFE019BC01AA4
:1024A000089B8342BBD80133B9D00320230001220B
:1024B0005D331A7000235C342370FEBD002901D007
:1024C000012E0AD1E28F012A51D92A880235DA6019
:1024D000E38FA563023B9BB2E387012502272E0011
:1024E000E38F002B05D123000833DB8F002B00D1B5
:1024F0009DE7226893683B4211D0E38F002B0ED0FA
:10250000012D0CD1E18FA36B012938D91988023331
:10251000D160A363E38F023B00259BB2E387216870
:102520008B68334219D023000833DA8F002A14D085
:10253000D88F226C01282AD9C86835001080023251
:102540002264DA8F023A92B2DA87DB8F012B04D849
:1025500080234A685B0113434B60FEF789FE019BB1
:10256000C01A089B8342BBD80133B9D09DE72A78B3
:102570001A73A36B0133A363E38F013BABE71B78B3
:102580001373A36B0133A363E38F013BC4E7097BA0
:1025900035001170226C01322264DA8F013A92B256
:1025A000DA87DAE7FFEFFFFF036807491A680A4096
:1025B0001A609A682331FF318A439A602023836727
:1025C000002303667047C046DFFEFFFF436F10B570
:1025D000212B0DD1010052310A880368002A08D14D
:1025E00080211A688A431A60402219680A431A60D7
:1025F00010BDC46C22880234D205D20D1A85C46481
:102600000B88013B9BB20B80F2E7436F10B5212B87
:102610000DD1010052310A880368002A08D18021B7
:102620001A688A431A60402219680A431A6010BD6A
:10263000C26C147801321C85C2640B88013B9BB2CA
:102640000B80F4E770B505000120002D12D0242383
:1026500000246B672B681A6882431A6028001C608C
:102660005C609C60FEF76EFD2000EC676C67AC67F9
:1026700070352C7070BD000070B5446F03000220EF
:10268000202C30D1013800292DD0002A2BD08024D5
:102690009D686401A54204D11C69002C01D101424E
:1026A00021D11C00703426780220012E1BD0013865
:1026B0002070D964190050310A804A800022DA67FC
:1026C0005A6621325A678022520195420CD11A690A
:1026D000002A09D1054A5A661A6880230020116829
:1026E00020700B43136070BD014AF4E7CD2500084C
:1026F0000B26000870B5846F03000220202C41D106
:10270000013800293ED0002A3CD080259C686D010C
:10271000AC4204D11D69002D01D1014232D11D000E
:1027200070352E780220012E2CD001382870596582
:10273000190058310A804A80802000211A00196649
:1027400040015C32844220D1196900291BD1134910
:10275000118000220121DA6722329A671A68906894
:1027600001439160802149018C4215D119690029EA
:1027700012D10B4919669023002011685B000B43AE
:102780002870136070BDFF21E2E7002CE0D11969C9
:102790000029F8D07F21DBE70249EBE7FF010000C9
:1027A0000D280008AD27000870470000826F10B5A3
:1027B0000368222A23D102005C329B8C12881340CA
:1027C000426D13700200436D5A3201334365138822
:1027D000013B9BB2138013889BB2002B0ED1026881
:1027E000094C11682140116091682334FF34A143E2
:1027F0009160202203668267FEF73EF810BD082232
:1028000099690A439A61F9E7DFFEFFFF826F10B50D
:102810000368222A21D101005C319C8C0988426D19
:10282000214011800100023242655A310A88013A82
:1028300092B20A800A8892B2002A0DD11968094C16
:102840002140196099682334FF34A1439960202303
:1028500002668367FEF710F810BD082299690A43E3
:102860009A61F9E7DFFEFFFF036870B5DA690400DB
:102870004A4819689D6802420BD12020024200D1CB
:1028800075E0014200D172E0236E2000002B64D17C
:1028900064E00120054003D190267600314266D0E5
:1028A000024205D0CE0503D51862E66F3043E067DB
:1028B0000220024206D0002D04D01862E66F0018F4
:1028C0003043E0670420024206D0002D04D0186295
:1028D000E66F02383043E067100708D5880601D458
:1028E000002D04D008201862E56F2843E06780209F
:1028F0000001024206D04D0104D518622023E06F8A
:102900000343E367E36F002B28D020231A4206D04D
:10291000194204D0236E002B01D020009847236871
:10292000E56F9B6820005B0602D428231D401AD067
:10293000FFF73AFE402123689A680A420FD09A684E
:10294000E06E8A439A60002809D0154B4363FEF776
:1029500040FD002802D0E06E436B984770BD200018
:10296000FEF71EF8FAE7FEF71BF8E567F6E78020AA
:10297000024203D0014201D0636E86E7402002424A
:10298000ECD00142EAD01A6882431A6020236367C0
:10299000002320006366FFF707FFDFE70F08000052
:1029A000A5290008406A0023020010B55A3213809E
:1029B000083A1380FDF7F4FF10BD04230268916903
:1029C0000B4393617047000070B504002569A3684C
:1029D00002682B436569C1692B4310683E4D0B4368
:1029E00028400343136053683C48256A0340E0686D
:1029F00003435360A36990682B43394D2840034338
:102A000093600322374B384D1B6B1340374AD05C21
:102A100080231B02994235D1082826D8FDF774FB84
:102A200005250B251D2525252000FFF7DFF8636808
:102A300040005B0802E0636858082D4BC0186168CD
:102A4000FDF76CFB83B200201A00103AAA420FD99E
:102A5000012000232366636670BDFFF711F8E6E7E7
:102A60006368580880235B02E8E701200023EBE756
:102A70000F22190091430A001B0721685B0F1343C3
:102A8000CB60E6E7082823D8FDF73EFB05220A22A3
:102A90001A2222221D00FFF7A9F863685B0802E0F2
:102AA00063685808134BC0186168FDF737FB83B2A1
:102AB00000201A00103AAA42CAD82268D360C8E798
:102AC000FEF7DEFFE9E76368580880231B02EAE7A8
:102AD00001200023EDE7C046F369FFFFFFCFFFFFB2
:102AE000FFF4FFFF00100240EFFF0000B82E0008C7
:102AF0000024F40000127A00436A30B5DA0706D5E4
:102B00000168284C4A682240846A22434A609A0736
:102B100006D50168244C4A682240C46A22434A60B0
:102B20005A0706D50168214C4A682240046B2243AB
:102B30004A601A0706D501681D4C4A682240446B5A
:102B400022434A60DA0606D501681A4C8A68224098
:102B5000846B22438A609A0606D50168164C8A68FF
:102B60002240C46B22438A605A0610D50168134D77
:102B70004A68046C2A4022434A60802252039442ED
:102B800005D14A680E4C2240446C22434A601B0621
:102B900006D502680B4953680B40816C0B435360A8
:102BA00030BDC046FFFFFDFFFFFFFEFFFFFFFBFF45
:102BB000FF7FFFFFFFEFFFFFFFDFFFFFFFFFEFFFE5
:102BC000FFFF9FFFFFFFF7FFF7B5802704000E0010
:102BD000150001933F012268D36933409B1B594282
:102BE0004B41AB4201D000201CE0089B0133F3D0E5
:102BF000FEF73EFB019B089AC01A2368904201D859
:102C0000002A10D11A6813490A401A609A68A33141
:102C1000FF318A439A6020236367A3670023032060
:102C200070342370FEBD04211A680A42D3D0DA69D9
:102C30003A42D0D01F621A6806490A401A609A6860
:102C4000A331FF318A439A6020236367A367E36758
:102C5000E4E7C0465FFEFFFF73B500260400C667C9
:102C6000FEF706FB236805001B681B0715D42368C5
:102C70001B685B070AD580210E4B00220093C90315
:102C80002B002000FFF7A0FF002811D120230020F7
:102C90006367A367703420700BE08021054B32001E
:102CA0000093890303002000FFF78EFF0028DED089
:102CB000032076BDFFFFFF0110B5041E01D10120E6
:102CC00010BD436F002B04D1020070321370FEF769
:102CD000FDF92423012122686367136820008B43D8
:102CE0001360FFF771FE0128E9D0636A002B02D060
:102CF0002000FFF701FF236807495A6820000A40B7
:102D000008215A609A688A439A60012219680A4326
:102D10001A60FFF7A1FFD3E7FFF7FFFF70B50400CC
:102D20000E001500002801D1012070BD436F002B5B
:102D300004D1020070321370FEF7C8F92423012178
:102D400022686367136820008B431360FFF73CFE23
:102D50000128E9D0636A002B02D02000FFF7CCFEE7
:102D6000082023680E4A59681140596099688143C8
:102D70009960802109018D4205D15968360681404C
:102D8000C14031435960196820000A4015430122AF
:102D90001D6019680A431A60FFF75EFFC5E7C04669
:102DA000FFF7FFFF020010B5703211780300022018
:102DB00001290ED00121117024225A67802219683E
:102DC0009201086802430A60202218005A67FFF740
:102DD00043FF10BD70B500260C4D0D4C641BA410B4
:102DE000A64209D1002600F02BF80A4D0A4C641BBC
:102DF000A410A64205D170BDB300EB589847013628
:102E0000EEE7B300EB5898470136F2E7C02E000812
:102E1000C02E0008C02E0008C42E0008002310B5E4
:102E20009A4200D110BDCC5CC4540133F8E70300D2
:102E30001218934200D1704719700133F9E700006E
:102E4000F8B5C046F8BC08BC9E467047F8B5C04609
:082E5000F8BC08BC9E46704767
:102E580002030405060708090A0B0C0D0E0F1010D3
:102E68000102030405060708090A0B0C0D0E0F10D2
:102E780060090000C012000080250000004B00001F
:102E88000096000000E1000000C201000084030079
:102E98000008070000100E000000000000000000FD
:102EA80001020304060708090000000001020304E8
:042EB8000004080208
:042EBC00120520419A
:042EC000E90000081D
:042EC400C100000841
:102EC800FFFFFFFFFFFFFFFFFFFFFFFF32000000D4
:0C2ED80000127A0001000000040000005D
:040000050800119D41
:00000001FF
