:020000040800F2
:1000000098210020DD010008A1100008B50D0008AE
:100010009D10000889020008A518000800000000D3
:10002000000000000000000000000000EF010008D8
:100030001903000800000000F30100084918000837
:10004000F7010008F7010008F7010008F7010008B0
:10005000F7010008F7010008F7010008F7010008A0
:10006000F7010008F7010008F7010008F701000890
:10007000F7010008F7010008F7010008F701000880
:10008000F7010008F7010008F7010008F701000870
:10009000F7010008F7010008F7010008F701000860
:1000A000F7010008F7010008F7010008F701000850
:1000B000F7010008F7010008F7010008F701000840
:1000C000F7010008F7010008F7010008F701000830
:1000D000F7010008F7010008F7010008F701000820
:1000E000F7010008F7010008F7010008F701000810
:1000F000F7010008F7010008F7010008F701000800
:10010000F7010008F7010008F7010008F7010008EF
:10011000F7010008F7010008F7010008F7010008DF
:10012000F7010008F7010008F7010008F7010008CF
:10013000F7010008F7010008F7010008F7010008BF
:10014000F7010008F7010008F7010008F7010008AF
:10015000F7010008F7010008F7010008F70100089F
:10016000F7010008F7010008F7010008F70100088F
:10017000F7010008F7010008F7010008000000007F
:10018000F7010008F7010008F7010008F70100086F
:10019000F7010008F7010008F7010008F70100085F
:1001A000F7010008F7010008F7010008F70100084F
:1001B0007D160008F7010008F7010008F7010008A4
:1001C000F7010008F7010008DFF80CD000F026F86E
:1001D00000480047C91800089821002006488047B9
:1001E00006480047FEE7FEE7FEE7FEE7FEE7FEE71C
:1001F000FEE7FEE7FEE7FEE759180008C901000820
:1002000030B504460020034600E05B1C934203D255
:10021000E05CCD5C401BF8D030BD0000064C074DC3
:1002200006E0E06840F0010394E8070098471034C6
:10023000AC42F6D3FFF7CCFFC81E0008E81E00084A
:1002400040EA01039B0703D009E008C9121F08C058
:10025000042AFAD203E011F8013B00F8013B521ED8
:10026000F9D27047D2B201E000F8012B491EFBD24F
:1002700070470022F6E710B513460A4604461946B1
:10028000FFF7F0FF204610BD01F0BAFA70B5B74A8B
:10029000831C4C08D26944B133F8025C1E88013CCF
:1002A000043346EA05451560F5E7CB0704D021F095
:1002B000010130F811001080106870BDB0B5F84A27
:1002C000431C8C08D26934B153F8015C013C0433FF
:1002D0002DBA1560F7E701F00303032B06D0022BBC
:1002E00010D0012B16D121F0030108E021F0030109
:1002F0004C1C435C0231045D44EA03231380405CE0
:10030000107007E021F00301435C0131405C40EADA
:10031000032010801068B0BD7047000000F17841E4
:10032000B1F5003F02D2C1F3C73070470E4A02F563
:10033000003100EA01030D498B4201D1042011E094
:1003400002400B48824204D00A48824203D1062070
:1003500008E0052006E001F520214FF0FF308A4239
:1003600008BF0720C0B270470000FCFF0000020871
:100370000000040800000808B0B5C9490020204A60
:100380004CF2503488611F48D3680568ED0305D5E9
:10039000D568ED1AA542F8D90320B0BD03680268FC
:1003A00013F0F20F25D0920703D58A6942F020029C
:1003B0008A610268D20603D58A6942F010028A6116
:1003C0000268920603D58A6942F008028A610268CF
:1003D000520603D58A6942F004028A610268120655
:1003E00003D58A6942F002028A61F221016001208C
:1003F000B0BDD10701D0012101600020B0BD00BF18
:10040000080000200C3C0240FEB50446006900F1E3
:100410007841B1F1094F01D901211FE04FF400519A
:10042000002742F20C03425842F204012260561E99
:10043000455842F20801B7EB165F65604158A1606C
:10044000C358E36001D0022108E00135022D01D23A
:10045000032103E00131022902D204210846FEBD36
:100460000521B3F1006FF9D302F10165AB42F5D874
:100470004FF0FF318A4DCDE9012195F8381001295F
:100480002BD0022185F83910012185F83810E9694F
:10049000EA6B8B68012A43F001038B600CD0022ABF
:1004A0000FD0032A13D10022B2F5006F0ED050F8FE
:1004B000223001320B60F7E74FF40061FFF7FEFED8
:1004C00005E04FF40061FFF7E1FE00E0086800205E
:1004D00085F83800012085F8390001A8022100F0D4
:1004E00019F8216842F208022069891A1044890823
:1004F00000F010F8616888420AD1A068002100F17C
:10050000704000F07F40B0F11C5F88BF0721A5E775
:100510000621A3E710B5624C022294F83830012B73
:1005200021D084F83920012284F83820E26B012A96
:1005300009D0022A0AD0032A0CD1E26961B108C8A5
:1005400001391360FAE7FFF7B9FE01E0FFF79EFEFD
:10055000024602E0002200E01268002084F8380021
:10056000012084F83900104610BD00BF6C00002047
:1005700090F83510022908D1052180F8351000685F
:10058000016821F0010101607047802141657047D9
:10059000F8B500F039FB4148016B21F4805101634B
:1005A0003F4991F83920022A0ED0022281F83920E1
:1005B000CA69936843F001039360137900231371B0
:1005C00081F8383081F839300169364B43F6E07CE8
:1005D00041F480510161016921F480510161016898
:1005E00041F0810101600021816002681A402E4BB8
:1005F0000260416042681A432C4B4260C0F884108C
:10060000D0F884201A432A4BC0F88420026822F4D0
:1006100080220260CC4AC16013604FF0FF32026258
:100620000162426241620261016142614161826133
:1006300081612048BFF34F8FBFF36F8F026822F4B0
:1006400000320260C0F83C12BFF34F8FBFF36F8FD0
:100650000167BFF34F8F016821F480310160BFF360
:100660004F8FC26EC2F34E31C2F3C9039A070133F2
:100670000CEA411516461F4646EA050406F14046B7
:10068000013FC0F86042F7D14C1E00292146EFD14E
:10069000BFF34F8FBFF36F8FF8BD00BF003802402C
:1006A0006C000020FFFFF6FA10300024003000201C
:1006B0000024F40014ED00E02DE9F04F904A4FF0D3
:1006C0000A0A4FF0000801264FF00F094FF0000E04
:1006D000002590428B4A08BF4FF0090A02444FEAB6
:1006E000B223092B38BF4FEAB22A874AA2F57E7B94
:1006F000102D49D006FA05F20A423FD003230768BD
:1007000003FA0EF46FF00303A74303EA550C0760E6
:1007100008F01C0700EB0C0609FA07F7336ABB4325
:1007200033628368A3438360436893434360C36831
:10073000A343AC08C36008F00C0309FA03F75BF8A5
:1007400024600AFA03F33E409E424FF0010615D1A1
:100750005BF82430D243BB434BF824306A4B1C4631
:100760001B6813402360636813406360A3681340F1
:10077000A360664B1C461B681A40226008F10408FF
:100780000EF1020E0135B3E7BDE8F08F2DE9F84F09
:100790005B4A4FF00A094FF0000B4FF0010A4FF08F
:1007A0000F084FF0000E9042564A08BF4FF009095B
:1007B00002444FEAB223092B38BF4FEAB229002284
:1007C000102A00F09B800AFA02F60C68344200F00E
:1007D0008F804F6847F01004122C13D16FF0030381
:1007E0000BF01C0403EA520308FA04F70344D3F89D
:1007F00020C02CEA070C0F6907FA04F444EA0C0441
:100800001C624F68032407F003030568122F04FAE3
:100810000EF403FA0EF325EA04056FEA040443EA32
:100820000503036012D80AFA07F313F0061F0DD070
:100830008368CD68234005FA0EF52B438360C7F328
:10084000001345689340B5432B434360C36823407E
:100850008C6804FA0EF42343C360FB0048D52C4B8C
:10086000294F22F003051C461B68BC463D4443F457
:1008700080432360236803F4804300930BF00C0350
:10088000009F08FA03F409FA03F3224FB846EF5920
:1008900027EA0404234345F808304FF00F08DCF83A
:1008A00000304D6843EA0604EF0358BF23EA06040C
:1008B000CCF80040AF03DCF8043043EA060458BF2C
:1008C00023EA0604CCF80440EF02DCF8083043EADF
:1008D000060458BF23EA06040C4BCCF80840AD02CE
:1008E0001F461B6843EA060458BF23EA06043C601F
:1008F0000BF1040B0EF1020E013261E7BDE8F88F37
:10090000002402400000FEBF003C01400C3C0140BE
:100910004438024008FCFFFF0B484FF47A7100682E
:10092000B0FBF1F0411E0020B0EB116F07D1074A78
:10093000F023516006490B709060072010604FF063
:10094000FF3000F007B800BF0000002010E000E01A
:1009500023ED00E000F00F02114B1049B0F1FF3F12
:10096000A2F104021A4402F10C02C8BF421818682E
:100970004FF0FF33C0F30220C11E80F0070038BFE4
:100980000021042828BF042003FA00F00F2323EAE3
:100990000000884000011070704700BF00E400E0D4
:1009A0000CED00E0F8B59749D04DCC6895F84100C2
:1009B00080074FF0000064D585F840002868026881
:1009C000520749D5026822F004020260CE68EA6B41
:1009D000D2F858C092F83570022F27D11768D2F894
:1009E00040E03B68BEF1000F23F016033B607B69DB
:1009F00023F080037B6101D1936C1BB13B6823F032
:100A000008033B603B6823F001033B603B68DB0766
:100A100016D0CB689B1B062BF8D3202151650021F3
:100A200082F83410032182F8351004E0002182F8A6
:100A3000341080215165696C41F0040169640BE058
:100A4000D16D3F2303FA01F1CCF80810002182F8A0
:100A50003410012182F8351001682246022641F047
:100A60000201016002200121AB6C00F07BFD40B966
:100A70002868AB6C00212246C660202000F072FD81
:100A800000B1F8BD012085F841000020F8BD00BF8D
:100A9000C74890F84110890717D5002180F8401009
:100AA000082180F8411001680A6822F4F8120A60EF
:100AB0000A6852070AD40220C860086840F400306F
:100AC0000860086840F0020008607047C06B044A84
:100AD00002650A6822F004020A60FFF749BD00BF00
:100AE000911300082DE9F041B04FB14E0446FD6866
:100AF00096F84000012802D10220BDE8F0810120D3
:100B000086F8400096F84100012834D100200021E9
:100B10002A4623467064422086F84100202000F0D7
:100B200021FD48BB07F14C0C30689CE80E10816237
:100B300014494262C362C1F868C0FA6D036823F4C5
:100B400040031A4342F48002026001F140004FF07A
:100B5000006100F065FB082001212A462346082792
:100B60004FF0010800F0FEFC30B93068C76000208B
:100B700086F8418000E00220002186F84010BDE8A0
:100B8000F08100BF6C000020F8B505468748884E0C
:100B9000C46896F84000012801D10220F8BD012068
:100BA00086F84000022096F84110012920D100214A
:100BB000224641F28833716486F8410020200021EA
:100BC00000F0D0FCA0B92846002100F029FB686A9B
:100BD00020B1012086F84100002009E00220012117
:100BE000224641F288330225012700F0BBFC18B1F0
:100BF000002186F84010F8BD3068C56086F8417065
:100C0000EAE700BF08000020F8B5694E3068002808
:100C10006BD096F84010012967D0012186F840106A
:100C2000016821F0010101603148402101604FF06D
:100C30008051BFF34F8FBFF36F8F01602D492E4856
:100C4000BFF34F8F01F1B402BFF36F8F026090F8D2
:100C50003520022A1ED0D1F8B420212322F001022F
:100C6000C1F8B4200022C1F8B420C1F8B820C1F8FE
:100C7000BC20C1F8C020C1F8C420C1F8C8304FF072
:100C80007C6381658B601621426580F83420C165E4
:100C900080F83520FC4C194F4021A4F5805528469A
:100CA000B84728460421B84720464FF48071B8471A
:100CB00020464FF40071B84720468021B8472046AF
:100CC0004021B8470E48016841F002010160016807
:100CD00021F002010160016A21F00201016200209D
:100CE000706486F8410086F84000F8BD4801002095
:100CF00088E100E004640240E4000020B906000836
:100D00001838024070B5DB49DB4DCC682E6895F889
:100D10004010012901D1022070BD012185F8401049
:100D200095F84110012924D10021696418B31221DA
:100D300085F8411031690131E96231690131A962F7
:100D40006862706920F040607061E86AC8B1042090
:100D50000121224641F2883300F004FCF0B9686AB0
:100D6000411C6962007886F82000E86A0138E86270
:100D7000EBE7022015E0686C40F008006864012091
:100D80000FE002200121224641F28833022600F0C2
:100D9000E9FB18B92868C660FFF704FE012185F851
:100DA0004110002185F8401070BD00BF08000020F0
:100DB0004801002000F024FD2DE9F04F85B0AE4C35
:100DC000AC4D00264821201D2E70FFF752FAAB488B
:100DD00038214030FFF74DFA05F14C001821FFF79C
:100DE00048FAA7482060FFF70FFF4FF480701721E3
:100DF000102204230227C4E90173C4E90321C4E9D2
:100E00000506C4E90766D5F80C8094F8400001286F
:100E100000F02D81012084F8400094F8411019B1B0
:100E2000A36C4FF440709AE000214FF00A0B6E461D
:100E3000964D84F8401093498A6842F002028A6015
:100E40008A6802F002020092009A51F8182C42F0CF
:100E5000020241F8182C51F8182C22F0020241F835
:100E6000182C0A6842F002020A600A6802F00202C4
:100E70000092009A0A6842F002020A600A6802F0D0
:100E800002020092009A0A6842F020020A600A6890
:100E900002F020020092009A0A6842F020020A60E2
:100EA0000A6802F020020092009A0A6842F02002CA
:100EB0000A600A6802F020020092009A0A6842F072
:100EC00020020A60096801F0200100910099CDF824
:100ED00010B00321CDE902010220314601904020EB
:100EE00000906948A0F5805782463846A847002000
:100EF0004FF00909314602900420CDF8109000907F
:100F00003846A8474FF480703146CDF810B00090B5
:100F10005046A8474FF400703146CDF810B000900D
:100F20005046A84780203146CDF81090009050469A
:100F3000A84740203146CDF8109000905046A84771
:100F40005C20FFF707FD52484FF0805141F2883393
:100F500001606FF0FF01A364A06801EB002021682D
:100F600000250A6822F4F852104342460860202007
:100F7000002100F0F7FA002877D1D4E90001D4E984
:100F80000323444F06683E40324342EA0161E2696E
:100F90001143226A1143404A01604168114062696D
:100FA0001143A26941EA034111434160016841F0E4
:100FB000010101600121656484F8411084F840500A
:100FC00081688906FCD442F2661141610021816189
:100FD000C1610161BFF34F8F206881688906FCD42D
:100FE00042F29911416100218161C1610161BFF348
:100FF0004F8F206881688906FCD442F266214161E6
:1010000000218161C1610161BFF34F8F2068816858
:101010008906FCD442F29921416100218161C161BC
:101020000161BFF34F8F206881688906FCD442F2CA
:101030006631416100218161C1610161BFF34F8F60
:10104000206881688906FCD442F29931416100210F
:101050008161C161016141F28830BFF34F8F00F0BF
:10106000BDF820B905B0BDE8F08F84F8405000F01D
:10107000C7FB00BF08000020480100206C000020D2
:10108000001000A030380240001402408D07000814
:1010900008E100E02FFFFF00FEF8E0FF00F0B0FBEA
:1010A000704700002DE9F84F8046084691460D46EE
:1010B000FFF734F9074609EB0500FFF72FF9444C19
:1010C00006462068B0F1FF3F05DC424844F80C0CAE
:1010D000414844F80C0CDFF8BCAD9AF81400012824
:1010E00001D100205FE001208AF81400FFF744F9E5
:1010F00000284FF000014FF0000052D14FEAC70B1B
:10110000B74222D8206820F440702060206840F464
:1011100000702060206820F0F8002060206840EA1D
:101120000B0040F002002060206840F48030206016
:10113000BFF34F8FFFF720F9216821F07A0121607A
:1011400068BB0BF1080B0137DAE7002600278AF8A5
:1011500014604F452AD201208AF8140058F807B0CD
:10116000FFF70AF978BB206820F4407020602068FF
:1011700040F400702060206840F00100206045F8D5
:1011800007B0BFF34F8FFFF7F7F88AF81460043702
:101190000028216821F001012160DAD016E03846EC
:1011A00000218AF81410C0B2BDE8F88F20682946E3
:1011B0004A4640F0004020604046FFF721F80028F2
:1011C00018BF0120EFE700208AF814000120EAE7A9
:1011D000103C024023016745AB89EFCDB0B5E04933
:1011E00005244FF08072002310250C644FF48074A6
:1011F000C1E91B334B67C1E91534C1E917334A66AE
:10120000EA4901224FF48004C1E91332C1E91552C1
:10121000C1E91734FFF766FC002818BF0120B0BDF4
:101220002DE9F041426AB1F1406F18BF002A04D0A5
:10123000DD4B846A1B68013C1C618369056A7BB3D2
:10124000002D54D0D84C8768C669D0E904E82A43F9
:10125000D4F800C0002ECCF81C70D0E90B57446BBA
:1012600042EA050242EA070242EA040242EA8842EE
:1012700042EA0E0251D00B43C468B1F1406F43EA19
:10128000060342EA0302036842EA040242EA030256
:10129000CCF814207AD04068CCF81800BDE8F08172
:1012A000002D42D0C04B8668C469D0E904CE00F15D
:1012B0002C072A431B68002CDE61E0CF42EA0502BE
:1012C00042EA060242EA070242EA8E4242EA0C027F
:1012D00044D00C43B1F1406F42EA0402C46842EAD0
:1012E00004025A6152D040689861BDE8F081D0E9AB
:1012F0000B67456BC469D0F814C042EA060242EAA3
:10130000070242EA050242EA8C4264B30B432343DC
:10131000C4681A430368224315E019430068114367
:101320000843CCF81400BDE8F081C36903B300F1B1
:101330002C070A434469E0CF1A43C3682A43324367
:101340003A4342EA84421343974AB1F1406F12682C
:1013500053611BD040689061BDE8F08142EA010012
:101360005861BDE8F08119430068114308430AE061
:1013700062B1D0E90B3411434269406B19432143F8
:10138000084340EA8240884909684861BDE8F08125
:10139000806B00218163C16290F8411008290BD154
:1013A00000680221C160016841F4003101600168F8
:1013B00041F0020101607047012180F8411070473F
:1013C0002DE9F843934D2878F8B9DFF8C88A8521CC
:1013D0004FF0807200230124404640F8401F4FF434
:1013E00080714363C0E90531C0E90733C0E90924CE
:1013F000C0E90B33FFF7C8FB38B96B4FEC683E68A8
:10140000B06997F84010012901D1BDE8F8830121A6
:1014100087F8401097F84120012A34D100227A64DD
:10142000222287F8412032690132BA6332690132DF
:101430007A63726961F39B620DF103017261396332
:10144000B061B86B88B106200121224641F2883391
:1014500000F088F8A0B996F82000396B4A1C3A636E
:101460000870B86B0138B863EBE70220012122460F
:1014700041F2883302264FF0010900F073F838B1C9
:10148000012087F84100002087F84000BDE8F8837C
:101490003868C660FFF786FA00284FF0000187F829
:1014A000419087F84010B0D100F082F80028ACD10C
:1014B0009DF803100A2060F31F1140468DF80310B9
:1014C000812140F8401FFFF75FFB00289DD10DF1FF
:1014D0000300FFF717FC002897D100204FF40051BC
:1014E0004FF480724FF440634FF040740A26C8E90D
:1014F0001B00C8F87400C8E91310EB21C8E9156295
:10150000C8E91730C8E91940C8E91010EA6897F827
:10151000400001283FF479AF012087F8400097F898
:1015200041000128AFD10024822000217C6487F88B
:1015300041002020BB6C00F015F80028A3D13868CA
:10154000016821F00801016008F140004FF040619E
:10155000FFF766FE0120287087F84040BDE8F88359
:101560006C000020F0B5DFF890C25E1CB94FDCF8CB
:101570000050AC68044018BF01248C4211D0002EEA
:10158000F7D01BB1FC68A41A9C42F2D904208CF855
:101590004100DCF8440040F00100CCF84400012098
:1015A000F0BD0020F0BD00BF480100200800002071
:1015B00070B5174C06210025204640F8401F4FF417
:1015C0008071C0E90B554563C0E90551C0E9075575
:1015D0004562FFF7D9FA0146012001B170BD9D496E
:1015E00002224FF480031026C1E91322C1E91560DD
:1015F000C1E917534FF08071C4E919100520206428
:1016000041F28830FFF76EFA002818BF012070BD44
:101610006C0000200800002010B58EB014464FF476
:10162000406220F070400792122200924FF48072C4
:1016300006924FF4005203924FF04072099200223A
:101640000892CDE90C22CDE90A1205920190FFF72C
:10165000AFFF38B96846FFF797FA18B92046FFF789
:1016600051FB10B101200EB010BD41F28830FFF7E0
:10167000B5FD002818BF0120F5E7000010B55E4C4D
:1016800021688A680868530716D510F4802313D0A0
:1016900094F84100122832D18868400776D5E06A74
:1016A000002857D0606A421C6262007881F82000EE
:1016B000E06A0138E062EFE7930711D510F40033D8
:1016C0000ED00220C860086820F4E020086094F87A
:1016D0004100122828D10868400740F186803EE08A
:1016E00013072AD510F4002327D00820C860086803
:1016F00040024BD5086820F41020086077E094F889
:101700004100222842D10846826852073ED5A26B8A
:10171000EAB391F82000226B531C236310702068F9
:10172000A26B013AA263EFE794F84100222821D18D
:101730000868400713D4084650E0D30718BF10F4D8
:10174000803329D1D20621D510F480101CBF10207F
:10175000C86010BD086820F48020086010BD0868CB
:1017600020F004000860E06B0068016821F00101CE
:1017700001603AE094F84100022838D094F8410022
:10178000082803D1012084F84100606C10BD016875
:1017900021F48021016010BD0120C8600A6822F494
:1017A00070220A60626C42F0020262640A685207A8
:1017B0001ED5E06B114A02650A6822F004020A6035
:1017C000BDE81040FEF7D4BE91F82000226B531CF8
:1017D000236310702068A26B013AA263806810F442
:1017E000F85F1CBFA06B0028EED1FFF751F9012074
:1017F00084F8410010BD00BF48010020911300088B
:10180000FEF7C6FE02484AF6AA21016000F04CF835
:10181000003000401CB50446006809490840B0F19A
:10182000005F0BD1FEF7B4FE606801900548019996
:101830000160216881F30888006880471CBD00BFF3
:101840000000FC2F440100200248C1680131C16042
:10185000704700BF0800002010B50E480F4CD0F8AC
:10186000801041F47001C0F880100B490A6842F002
:1018700001020A6000228A600B6823400B60084B5B
:101880004B600B6823F480230B60CA604FF000614B
:10189000016010BD08ED00E000380240FFFFF6FED9
:1018A00010300024FFF7ACFFBFF34F8FBD48054A4F
:1018B000016801F4E06111430160BFF34F8F00BF85
:1018C000FDE700BF0400FA05D2B0B648816889037D
:1018D00012D4BFF34F8F0021BFF36F8FC0F84412B3
:1018E000BFF34F8FBFF36F8F816841F40031816088
:1018F000BFF34F8FBFF36F8F8168C90326D40021D8
:1019000043F6E07C8167BFF34F8F426FC2F34E31E5
:10191000C2F3C9039A0701330CEA411516461F4664
:1019200046EA050406F14046013FC0F85442F7D1AB
:101930004C1E00292146EFD1BFF34F8F816841F43F
:1019400080318160BFF34F8FBFF36F8F964D4FF69D
:10195000FF02D5F8FC1341F40071C5F8FC130168CF
:101960001140924A11430160FEF7D6FF6868904C1F
:1019700000F00C00042819D0686800F00C0008285A
:1019800002D12868400211D4D4F8F80740F480301E
:10199000C4F8F807DFF8D804C168D4F8F827920330
:1019A00006D4C268521A642AF7D95EE2D4F8F8075E
:1019B000686800F00C00082800F05782D4F8F80797
:1019C000DFF8ACA420F08070C4F8F807DAF80C0057
:1019D000D4F8F817890105D5DAF80C10091A02298C
:1019E000F6D942E273482860D4F8F80740F08070D6
:1019F000C4F8F807DAF80C00D4F8F817890105D410
:101A0000DAF80C10091A0329F6D32EE2E86B6A4EB5
:101A100040F08050E863E86B00F080500490049838
:101A2000306840F480303060DAF80C007168C90327
:101A300006D4DAF80C10091AB1F57A7FF6D914E257
:101A4000306840F400303060DAF80C0071688903C7
:101A500006D4DAF80C10091AB1F57A7FF6D904E247
:101A6000D5F8FC0300F00E0005280DD8D5F8FC03CE
:101A7000062161F30300C5F8FC03D5F8FC0300F070
:101A80000F00062840F0F181686820F0F0006860DF
:101A9000D4F8F807800140F1E8816868022161F319
:101AA000010041F288316860DAF80C006A6802F0DF
:101AB0000C02082A05D0DAF80C20121A8A42F5D94D
:101AC000D3E1D5F8FC0300F00F0007280DD3D5F8BB
:101AD000FC03062161F30300C5F8FC03D5F8FC0301
:101AE00000F00F00062840F0C0816868052161F30E
:101AF0008C2004216860686861F34F306860686812
:101B000000F00C01DB48082903D0042917D1DA487A
:101B100015E029682A685202D74A58BF024601F0E8
:101B20003F002968B2FBF0F0C1F38811022248435C
:101B30002968C1F3014102EB4101B0FBF1F0696892
:101B4000CEA2C1F30311515CC840D0490860FEF732
:101B5000E3FE0120CE4A8AF808008AF804004CF619
:101B6000CC40106045F2555010609AF804000028EF
:101B700018BF052050609AF80800002818BF40F6EA
:101B8000FF709060DAF80C00D16829B1DAF80C1017
:101B9000091A3029F8D914E0106978B100201061D1
:101BA0000FE000BF0CED00E0043802400003FA052E
:101BB0000830024004324022007000404AF6AA2059
:101BC0001060E86A0321002740F48050E862B148C1
:101BD000C16306F5E031C0E90C770784C161E96AA9
:101BE00001F480510491049990F8391009B980F8F2
:101BF0003870022180F83910A749E160216821F08E
:101C0000180121604FF0FF31A160216821F06001CF
:101C10002160216821F080012160012180F83910C4
:101C2000FFF7CAF8FFF7CCFB56469C4846F8107FF2
:101C300000F56020C6E90677C6E908709848C6E94D
:101C400001773446C6E90370304644F8147FFEF746
:101C5000DBFB054606F80F0C2046FEF7D5FB0446D5
:101C600006F80E0CB068F16981EA0002B7EB126F5A
:101C70003ED121F07F4120F07F40884238D2DAF80F
:101C80002000DAF8101001908448029181460D1866
:101C9000FFF792F84FF4807B4FF400580026814FF5
:101CA00044ACA9453ED84FF48060CDF81C814B90E0
:101CB000D820449009EA0700CDE94C665196CDE959
:101CC0004F66CDE9496B4590FFF772FC002840F064
:101CD000CC802046FEF758FF002840F0C68040F632
:101CE000B830FFF77BFA09F580390028D9D0BCE07D
:101CF000002D674D00F0A7800021504640F8381FA6
:101D0000C0E90111C16065490161FEF77DFB002852
:101D100000F09E80002C40F0A180DAE90C10DAF887
:101D2000242099E05D48DDE9011B8146BBF1000FED
:101D300068D04FF48074BBF5807F04A838BF5C4640
:101D400022460391FEF77CFA5FFA89F05FFA84F885
:101D5000270A20B3C0F580759FB34846294604AAD8
:101D6000FFF75AFC002840F08080601B04A905EBB7
:101D700009084E19C7B2050A6DB140464FF480718B
:101D80003246FFF749FC00286FD1013D06F5807609
:101D900008F58078F0E77FB34046394628E0F7B190
:101DA00004AE4D46FFB128464FF480713246FFF72E
:101DB00033FC002859D1013F06F5807605F5807582
:101DC000F0E7A8450BD904AE484629463246FFF74E
:101DD00023FC05EB0900A8EB0501721909E0484650
:101DE000214604AA05E0B8F1000F05D02846414677
:101DF0003246FFF711FCC0BB0399ABEB040BA144C7
:101E0000214493E7FEF7D8FFFFF7DAFA0198234958
:101E1000029AFEF7F5F940BBFEF7CEFFFFF7D0FAC6
:101E20004AF6AA241A4D2C60DAE90C10DAF82420BC
:101E3000FFF738F9C8B9FEF7BFFFFFF7C1FA2C600A
:101E40009AF8010050B9DAF81C00FFF7E3FC05E04E
:101E5000DAE91110DAF83820FFF724F91048FFF713
:101E6000D9FC4AF6AA202860FEE7FFF7C9FC00BFAC
:101E7000080000200024F40000127A000000000096
:101E8000000000000102030406070809000000200A
:101E9000003000406C000020B71DC1040000E2903B
:101EA000000001080000FF0F02E008C8121F08C16F
:101EB000002AFAD170477047002001E001C1121FCB
:101EC000002AFBD17047000010200008000000200D
:101ED00008000000A81E00081820000808000020C4
:101EE00090210000B81E0008000000000000000063
:101EF00000000000000000000000000000000000E2
:101F000000000000000000000000000000000000D1
:101F100000000000000000000000000000000000C1
:101F200000000000000000000000000000000000B1
:101F300000000000000000000000000000000000A1
:101F40000000000000000000000000000000000091
:101F50000000000000000000000000000000000081
:101F60000000000000000000000000000000000071
:101F70000000000000000000000000000000000061
:101F80000000000000000000000000000000000051
:101F90000000000000000000000000000000000041
:101FA0000000000000000000000000000000000031
:101FB0000000000000000000000000000000000021
:101FC0000000000000000000000000000000000011
:101FD0000000000000000000000000000000000001
:101FE00000000000000000000000000000000000F1
:101FF00000000000000000000000000000000000E1
:10200000000000000000000012052035000000085C
:082010000024F40000000000B0
:04000005080001C925
:00000001FF
